:400000000080002011000000610700006107000008B5044B1A6803F53F5302331A6000F0A7FB00BFFA46004010B5054C237833B9044B13B10448AFF300800123237010BD05
:400040004081FF1F00000000F81B0000084B10B51BB108490848AFF300800848036803B910BD074B002BFBD0BDE81040184700BF000000004481FF1FF81B0000C880FF1FEC
:40008000000000000122014B1A6070476081FF1F10B500F083FE00F095FE044600F0AAFE201A014B586010BD6081FF1F08B5012000F010FF00F0DEFE002000F00BFF08BD74
:4000C00010B500F06BFE00F07DFE044600F092FE201A034B5860034800F07AFF10BD00BF6081FF1F541C000038B50D461E4B03EBC000002305E0C25C303A1C4941F82320F6
:400100000133062BF7DD194C2068B0FA80F0400900F088FB6068B0FA80F0400900F08EFBA068B0FA80F0400900F094FBE068B0FA80F0400900F09AFB2069B0FA80F0400919
:4001400000F0A0FB6069B0FA80F0400900F0A6FBA069B0FA80F0400900F0ACFBB5FA85F0400900F0B3FB38BDFC1B0000D481FF1FF8B5764B1B68002B00F0E68004460D469B
:4001800002460B467149D1E9020101F09BFC002840F0A38000226E4B2046294601F0B0FC50B94CE000226B4B2046294601F022FA04460D46013600E000260022664B2046DD
:4001C000294601F089FC0028ECD12046294601F0ABFC624981FB0031C217C2EBA111DFF884E18EFB0137CB17C3EBA70303EB8303A1EB4303554F3B61594B83FB0013C2EB99
:4002000063138EFB031CD917C1EBAC0101EB8101A3EB410179618EFB0013C2EBA3038EFB032EDA17C2EBAE0202EB8202A3EB4202BA6103EB8303A0EB4303FB613CE000220B
:40024000454B2046294601F0D5F901F06DFC434E86FB0036C317C3EBA616424A82FB0617F117C1EBA70101EB8101A6EB4101374E31613B4F87FB0017C3EB671782FB071EA9
:40028000F917C1EBAE0101EB8101A7EB4101716182FB0071C3EBA10382FB0321DA17C2EBA10202EB8202A3EB4202B26103EB8303A0EB4303F3610326002305E0234A02EB23
:4002C0008302002111620133032BF7DD1F4B03EB860601223262C3E902451C4C236B013303F003032363012000F0FCFA012000F005FB012000F00EFB012000F017FB236B95
:40030000C3F1030204EB820204EB8303116A1869FFF7EAFE236B1BB9002000F0E3FA10E0012B03D1002000F0E9FA0AE0022B03D1002000F0EFFA04E0032B02D1002000F037
:40034000F5FA0022014B1A60F8BD00BF6081FF1F0000F03F0000244000408F40D34D62101F85EB516766666608B562B600F078FB00F01AFB00F046FB00F0DAFD224800F0F7
:4003800061FB224800F002FB214800F02DFB032000F00CFD1F4800F0BDFD00F0DDFB00F011FC00F07FFC00F0DFFC00F085FD00F01DFC00F0F3FD012000F08CFD002000F0DC
:4003C00089FD00F057FD144C606801F0ADF80CA3D3E9002301F038FA0022104B00F056FFC4E90E0100220E4B01F004F900220B4B01F000F9C4E91001FFF7BAFEE3E700BF86
:40040000000000000088C34085000000AD00000091000000C10000006081FF1F0000E03F00004140FEE700BFF0B40022174611E050F82760F3B226F0FF0608E001EB4205AC
:4004400011F812406D78A5550132013BDBB2002BF4D101371E2FEBD9F0BC704710B41D4B1B78DBB203F007011B4A11701B09013213704122194B1A700123194A13700C211B
:4004800002F22F721170402102F5DA7211702021043211700422134802701024083004700730027049300370302410300470802403300470013001700B490A700B4A137006
:4004C00040F205120A4B1A804422A3F2CE231A7010BC7047CF0100496E5800400D5100403D510040285A0040C05A0040C45A0040445B004008B50A46002101F074FB08BD94
:4005000038B50122324B1A801C2202331A704FF49C7202331A8018232E4A137040F25721023211800232137043F697222A4B1A80192502331D7047F22F53284A1380023226
:40054000157002321380264B1D70022203F26A231A7008224FF040231A70032103F500731970204B1B78DBB21F490B701F4B1A8041F25122023B1A8000240CE01C4B1B789A
:4005800003F0010343EA440404F003044FF4F07000F03EFD013D0DB1032CEFD115B90320FFF740FF134B4FF480721A8007221A70002211490A704820023108701A7002225E
:4005C000033B1A700D4A137843F03F03137038BD80400040864000408C400040904000409640004008010049A146004022420040254200400440004006400040A243004039
:4006000008B501F0E5FA08BD38B572B63E4A137843F00403137000240CE03C4D630019194A0011462A44084691882858FFF762FF0134E4B2062CF0D900240BE03348A20016
:4006400011194B0003449A8E196BD86AFFF7D8FF0134E4B2012CF1D92D494FF09040FFF7E3FE03222B4B1A802B4A03F53C4310331A602A4A03F5D0631A60294A137843F0BD
:40068000020313701032137843F002031370254C237843F040032370A2F58632513A137843F0100313700A221F492048FFF7A8FF0A221F491F48FFF7A3FF0A221E491F48C1
:4006C000FFF79EFF0A221E491E48FFF799FF0A221D491E48FFF794FF1D4A137843F0080313701C4D61232B70FFF70AFF81232B700122194B1A70FFF7B1FE0E22214617483A
:40070000FFF77EFF38BD00BFE84600405C1C00007C00004848580040040404C40400004403500140A0430040340600480051004040060048C05100404C060048105100400C
:4007400058060048205100406406004830510040224300400048004004000840B043004008B501F009FA03680C2B00D1FEE7FEE708B5104E104D16E029686B68AC6800220D
:4007800004E051F8040B43F8040B0432A242F8D1E868002203E0002143F8041B04328242F9D11035013E002EE6D101F0EBF9FFF7DBFDFEE701000000D81C000008B5104A3F
:4007C000104B1A60104A136843F40073136000230AE0032B03D80D4A52F8231000E00C490C4A42F8231001332F2BF2D90A4B1A780A4B1A70074A0A4B1A60FFF705FF08BD52
:400800000004FA050CED00E014ED00E000000000610700000080FF1FBC760040C080FF1F08ED00E0044A137803F0FB03800000F0040018431070704720510040044A1378F6
:4008400003F0FE0300F0010018431070704700BF20510040044A137803F0EF03000100F0100018431070704720510040044A137803F0BF03800100F04000184310707047BE
:4008800020510040044A137803F07F03C001C0B218431070704700BF20510040044A137803F0FD03400000F0020018431070704720510040044A137803F0F703C00000F04D
:4008C000080018431070704720510040044A137803F0DF03400100F0200018431070704720510040044A137803F07F03C001C0B218431070704700BF10510040044A13781F
:4009000003F0DF03400100F0200018431070704710510040044A137803F0BF03800100F0400018431070704710510040044A137803F0EF03000100F010001843107070479B
:400940001051004008B5034B1B7A00FB03F000F05FFB08BDCC80FF1F014B1B681864704708ED00E04001C0B2014B1870704700BF00E400E00122014B1A60704700E100E0D6
:400980000122014B1A60704780E100E010B50446FFF7F6FF2046FFF7DFFF0720FFF7E2FFFFF7E8FF10BD00BF0122014B1A60704780E200E0014B1B685864704708ED00E0C2
:4009C0004001C0B2014B1870704700BF01E400E00222014B1A60704700E100E00222014B1A60704780E100E010B50446FFF7F6FF2046FFF7DFFF0720FFF7E2FFFFF7E8FFE2
:400A000010BD00BF0222014B1A60704780E200E0014B1B68D864704708ED00E04001C0B2014B1870704700BF03E400E00822014B1A60704700E100E00822014B1A607047DD
:400A400080E100E010B50446FFF7F6FF2046FFF7DFFF0620FFF7E2FFFFF7E8FF10BD00BF0822014B1A60704780E200E0084A137843F0040313701032137843F0040313708E
:400A800002F5A5521E32137843F0800313707047A9430040044A137803F0FC0300F0030018431070704700BF0958004010B487B00446194B03AA1868596803C2197A117031
:400AC0006A4653F80C0F596803C21B7A1370082C1ED812490B7803F08003DBB20B70087806AB1C4414F80C3C14F8182C920002F00C02134303430B70094A137803F0F30317
:400B00001370117814F8183C0B4343F00C03137007B010BC704700BF9C1C00000A5800400958004008B50C22084B1A70084A137843F0200313700022064B1A700420FFF7AD
:400B4000B5FF0120FFF7A6FF08BD00BF08580040095800400A58004008B5054B1B7823B9FFF7E0FF0122024B1A70FFF77FFF08BDB081FF1F084A137843F060031370A2F53E
:400B8000A652133A137843F0040313701032137843F004031370704777580040054B1A7802F0FC021A701A7800F0030010431870704700BF5C58004008B50120FFF7EEFF71
:400BC00008BD00BF08B5054B1B7823B90122034B1A70FFF7F1FFFFF7CDFF08BDB181FF1F08B500F07BFA00F083FA08BD08B5FFF7F7FF08BD054A137843F0010313701032A5
:400C0000137843F001031370704700BFA74300400F490B7803F0FC0200F0030313430B7001280AD10B4B1B78DBB20B4A13700B4B1B78DBB2013213707047094B1B78DBB293
:400C4000054A1370074B1B78DBB201321370704740580040100100493046004014010049AD010049B501004908B50120FFF7D0FF0B4B1A7842F020021A701A7802F0FB029D
:400C80001A701A7842F008021A7003F287231A7802F0E7021A701A7842F010021A7008BD4058004008B5054B1B7823B9FFF7DCFF0122024B1A70FFF79DFF08BDB281FF1FD0
:400CC000054A137843F0010313701032137843F001031370704700BFA8430040054B1A7802F0FD021A701A7800F0020010431870704700BF20580040014B1870704700BF04
:400D0000805B0040064B1B78C3F3810303F19243063393F82031DBB2024A1370704700BF205800400846004008B5064B1A7802F0F3021A701A7800F00C0010431870FFF714
:400D4000E1FF08BD2058004010B50024054B1C7001331C700420FFF7E7FF2046FFF7BEFF10BD00BF2058004008B5074B1B7823B9FFF7EAFF0122044B1A70FFF7A1FFBB206A
:400D8000FFF7BAFF08BD00BFB381FF1F024A137843F080031370704779650040024A137803F07F031370704779650040014B1870704700BF8B650040014B1878704700BF59
:400DC0006B650040014B188880B27047486A0040014B1880704700BF486A0040014B188880B27047886A0040014B1880704700BF086A0040024B1B78024B188880B2704707
:400E000004650040886A004000F00300044B1A7802F0FC021A701A7810431870704700BF7965004008B501E0FFF7D8FFFFF7C4FF10F0080FF8D108BD08B54CF24F30FFF74F
:400E4000C7FF4CF24F30FFF7CFFF00F0E9F8084A137843F01003137000F0E6F80020FFF7D3FFFFF7DFFF0720FFF7A0FF08BD00BF9B65004008B5054B1B7823B9FFF7DCFF5D
:400E80000122024B1A70FFF781FF08BDB481FF1F0922014B1A7070478465004008B500F0BFF8044A137843F02003137000F0BCF808BD00BF9465004008B5054B1B7823B9D6
:400EC000FFF7E6FF0122024B1A70FFF7E7FF08BDB581FF1F014B1870704700BF75650040014B1B689864704708ED00E04001C0B2014B1870704700BF02E400E00422014B38
:400F00001A60704700E100E00422014B1A60704780E100E010B50446FFF7F6FF2046FFF7DFFF0720FFF7E2FFFFF7E8FF10BD00BF0422014B1A60704780E200E07222084B74
:400F40001A702022A3F201131A7006229F331A70472210331A700022B03B1A70704700BF8A65004010B500F05BF804460A4A137843F020031370A2F20112137843F01003FA
:400F80001370013A137843F01003137000F032F8204600F049F810BD9A65004008B5054B1B7823B9FFF7CAFF0122024B1A70FFF7D9FF08BDB681FF1F034B1B7813F0040F4E
:400FC000FAD1024B18707047686400404864004038B5074B1B782BB938BDFFF7EDFF0134A4B201E005460024285D0028F5D138BDB681FF1F054A137843F0020313701032A6
:40100000137843F002031370704700BFA24300400230800803D000BF01380046FCD17047EFF3108072B6704780F31088704700BF10B500F087F800F0CFF810BB012000F0E7
:40104000ADF8072818D102210F4800F08DF802280AD102E00120FFF775FC0C4B1B7813F0020FF7D0002409E0084B1B7813F0020FE9D04FF0FF3401E04FF0FF3400F0D2F851
:4010800000E00424204610BDF081FF1F2247004010B500F057F800F09FF8D0B900F0DEF80446072812D102E00120FFF74BFC0A4B1B7813F0020FF7D0074B1B7813F0020F8B
:4010C00004D0054B1B789B0800D1002400F0AAF800E00424204610BD2247004008B5FFF7D7FF034610B9FFF7A3FF0346184608BD08B5FFF795FF0F4A137843F008031370A0
:401100001032137843F008031370C8220A4B1A700A4A137843F0100313701032137843F010031370064B1B7813F0200FFAD0FFF77BFF08BDA043004001470040AC4300402B
:401140000047004008B5FFF76BFF064A137843F0080313701032137843F008031370FFF763FF08BDA043004070B506460D4600240CE00120FFF7E6FB064B1B7813F0010F9E
:40118000F7D0054B1B7833550134E4B2AC42F3D3204670BD22470040204700400C4B1B7813F0020F0FD00B4BB6221A70E1221A700E221A7002331B7813F0020F05D1054BBD
:4011C000187007207047042070470920704700BF224700402047004010B5FFF721FF0F4B1B78A3B901220D4B1A700D4B1B6813F0010F0ED00A4A136823F00103136000BFB2
:4012000000BF00BF0122054B5A60002402E0042400E00024FFF708FF204610BDB881FF1F0400084008B5FFF7FBFE0A4B00221A705B68012B0AD1084A136843F00103136010
:4012400000BF00BF00BF0022024B5A60FFF7ECFE08BD00BFB881FF1F04000840074B1B7813F0020F08D0064BB6221A70E0221A700D221A70072070470420704722470040D6
:401280002047004081F0004102E000BF83F0004330B54FEA41044FEA430594EA050F08BF90EA020F1FBF54EA000C55EA020C7FEA645C7FEA655C00F0E2804FEA5454D4EBFC
:4012C0005555B8BF6D420CDD2C4480EA020281EA030382EA000083EA010180EA020281EA0303362D88BF30BD11F0004F4FEA01314FF4801C4CEA113102D0404261EB4101A1
:4013000013F0004F4FEA03334CEA133302D0524263EB430394EA050F00F0A780A4F10104D5F1200E0DDB02FA0EFC22FA05F2801841F1000103FA0EF2801843FA05F359410F
:401340000EE0A5F120050EF1200E012A03FA0EFC28BF4CF0020C43FA05F3C01851EBE37101F0004507D54FF0000EDCF1000C7EEB00006EEB0101B1F5801F1BD3B1F5001FA3
:401380000CD349085FEA30004FEA3C0C04F101044FEA445212F5800F80F09A80BCF1004F08BF5FEA500C50F1000041EB045141EA050130BD5FEA4C0C404141EB010111F47D
:4013C000801FA4F10104E9D191F0000F04BF01460020B1FA81F308BF2033A3F10B03B3F120020CDA0C3208DD02F1140CC2F10C0201FA0CF021FA02F10CE002F11402D8BF31
:40140000C2F1200C01FA02F120FA0CFCDCBF41EA0C019040E41AA2BF01EB0451294330BD6FEA04041F3C1CDA0C340EDC04F11404C4F1200220FA04F001FA02F340EA030036
:4014400021FA04F345EA030130BDC4F10C04C4F1200220FA02F001FA04F340EA0300294630BD21FA04F0294630BD94F0000F83F4801306BF81F480110134013D4EE77FEA33
:40148000645C18BF7FEA655C29D094EA050F08BF90EA020F05D054EA000C04BF1946104630BD91EA030F1EBF0021002030BD5FEA545C05D14000494128BF41F0004130BD93
:4014C00014F580043CBF01F5801130BD01F0004545F0FE4141F470014FF0000030BD7FEA645C1ABF194610467FEA655C1CBF0B46024650EA013406BF52EA033591EA030FEA
:4015000041F4002130BD00BF90F0000F04BF0021704730B54FF4806404F132044FF000054FF0000150E700BF90F0000F04BF0021704730B54FF4806404F1320410F0004528
:4015400048BF40424FF000013EE700BF42004FEAE2014FEA31014FEA02701FBF12F07F4393F07F4F81F06051704792F0000F14BF93F07F4F704730B54FF4607401F00045E0
:4015800021F0004120E700BF50EA010208BF704730B54FF000050AE050EA010208BF704730B511F0004502D5404261EB41014FF4806404F132045FEA915C3FF4DCAE4FF0F4
:4015C00003025FEADC0C18BF03325FEADC0C18BF033202EBDC02C2F1200300FA03FC20FA02F001FA03FE40EA0E0021FA02F11444C1E600BF70B54FF0FF0C4CF4E06C1CEAC5
:4016000011541DBF1CEA135594EA0C0F95EA0C0F00F0DEF82C4481EA030621EA4C5123EA4C5350EA013518BF52EA033541F4801143F4801338D0A0FB02CE4FF00005E1FBEC
:4016400002E506F00042E0FB03E54FF00006E1FB03569CF0000F18BF4EF0010EA4F1FF04B6F5007F64F5407404D25FEA4E0E6D4146EB060642EAC62141EA55514FEAC52018
:4016800040EA5E504FEACE2EB4F1FD0C88BFBCF5E06F1ED8BEF1004F08BF5FEA500E50F1000041EB045170BD06F0004646EA010140EA020081EA0301B4EB5C04C2BFD4EB8F
:4016C0000C0541EA045170BD41F480114FF0000E013C00F3AB8014F1360FDEBF002001F0004170BDC4F10004203C35DA0C341BDC04F11404C4F1200500FA05F320FA04F016
:4017000001FA05F240EA020001F0004221F0004110EBD37021FA04F642EB06015EEA430E08BF20EAD37070BDC4F10C04C4F1200500FA04F320FA05F001FA04F240EA0200E9
:4017400001F0004110EBD37041F100015EEA430E08BF20EAD37070BDC4F1200500FA05F24EEA020E20FA04F301FA05F243EA020321FA04F001F0004121FA04F220EA020046
:4017800000EBD3705EEA430E08BF20EAD37070BD94F0000F0FD101F00046400041EB010111F4801F08BF013CF7D041EA060195F0000F18BF704703F00046520043EB030387
:4017C00013F4801F08BF013DF7D043EA0603704794EA0C0F0CEA135518BF95EA0C0F0CD050EA410618BF52EA4306D1D181EA030101F000414FF0000070BD50EA410606BF74
:401800001046194652EA430619D094EA0C0F02D150EA013613D195EA0C0F05D152EA03361CBF104619460AD181EA030101F0004141F0FE4141F470014FF0000070BD41F020
:40184000FE4141F4780170BD70B54FF0FF0C4CF4E06C1CEA11541DBF1CEA135594EA0C0F95EA0C0F00F0A7F8A4EB050481EA030E52EA03354FEA013100F088804FEA033382
:401880004FF0805545EA131343EA12634FEA022245EA111545EA10654FEA00260EF000419D4208BF964244F1FD0404F5407402D25B084FEA3202B61A65EB03055B084FEA60
:4018C00032024FF480104FF4002CB6EB020E75EB030E22BFB61A754640EA0C005B084FEA3202B6EB020E75EB030E22BFB61A754640EA5C005B084FEA3202B6EB020E75EBE9
:40190000030E22BFB61A754640EA9C005B084FEA3202B6EB020E75EB030E22BFB61A754640EADC0055EA060E18D04FEA051545EA16754FEA06164FEAC30343EA52734FEA39
:40194000C2025FEA1C1CC0D111F4801F0BD141EA00014FF000004FF0004CB6E711F4801F04BF01430020B4F1FD0C88BFBCF5E06F3FF6AFAEB5EB030C04BFB6EB020C5FEAC2
:40198000500C50F1000041EB045170BD0EF0004E4EEA113114EB5C04C2BFD4EB0C0541EA045170BD41F480114FF0000E013C90E645EA060E8DE60CEA135594EA0C0F08BF7F
:4019C00095EA0C0F3FF43BAF94EA0C0F0AD150EA01347FF434AF95EA0C0F7FF425AF104619462CE795EA0C0F06D152EA03353FF4FDAE1046194622E750EA410618BF52EA39
:401A000043067FF4C5AE50EA41047FF40DAF52EA43057FF4EBAE12E74FF0FF3C06E000BF4FF0010C02E000BF4FF0010C4DF804CD4FEA410C7FEA6C5C4FEA430C18BF7FEA53
:401A40006C5C1BD001B050EA410C0CBF52EA430C91EA030F02BF90EA020F0020704710F1000F91EA030F58BF994208BF90422CBFD8176FEAE37040F0010070474FEA410C59
:401A80007FEA6C5C02D150EA013C07D14FEA430C7FEA6C5CD6D152EA033CD3D05DF8040B704700BF8446104662468C461946634600E000BF01B5FFF7B7FF002848BF10F1A8
:401AC000000F01BD4DF808EDFFF7F4FF0CBF012000205DF808FB00BF4DF808EDFFF7EAFF34BF012000205DF808FB00BF4DF808EDFFF7E0FF94BF012000205DF808FB00BFB5
:401B00004DF808EDFFF7CEFF94BF012000205DF808FB00BF4DF808EDFFF7C4FF34BF012000205DF808FB00BF4FEA410212F5001215D211D56FF47873B3EB625212D94FEA99
:401B4000C12343F0004343EA505311F0004F23FA02F018BF404270474FF00000704750EA013005D111F0004008BF6FF0004070474FF00000704700BF014B1868704700BF40
:401B80003C81FF1F0E4B70B51E460E4C0025E41AA410A54204D056F8253098470135F8E700F088F8084B094C1E46E41AA4100025A54204D056F8253098470135F8E770BD13
:401BC000C01C0000C01C0000C01C0000C81C000010B5431E0A44914204D011F8014B03F8014FF8E710BD03460244934202D003F8011BFAE77047000000000000313131315D
:401C00003131300030313130303030003131303131303100313131313030310030313130303131003130313130313100313031313131310031313130303030003131313100
:401C40003131310031313131303131003030303030303000496E74330A000000405100403000F0510040100000000140001080140140800700400140000A004C014000026A
:401C8000005001402000000060520040AC050048060000140140B40500488000011121314161536373000000080901010507070404430000F8B500BFF8BC08BC9E4670478D
:401CC0004D000000BD070000F8B500BFF8BC08BC9E46704729000000E81C0000C880FF1F78000000B8000000000000000000E02EC05D00001800000000366E0100000000A9
:401D000000000000000000000000000000000000000000000000000000000000B11C00000000000000000000000000000000000000000000000000000000000000000000D6
:401D400000000000000000000000000000000000000000000000000000000000DC80FF1F0000000000000000000000000000000000000000000000000000000000000000E9
:401D80000000000000000000000000000000000000000000000000000000000000000000000000000000000000000000000000000000000000000000000000000000000023
:401DC00000000000000000000000000000000000000000000000000000000000000000000000000000000000000000000000000000000000000000000000000000000000E3
:401E000000000000000000000000000000000000000000000000000000000000000000000000000000000000000000000000000000000000000000000000000000000000A2
:401E40000000000000000000000000000000000000000000000000000000000000000000000000000000000000000000000000000000000000000000000000000000000062
:020000040003F7
:0200000480007A
:4000000002520040026400400365004001010140010701404E0801403A090140010B0140010D0140020F014028140140511501400417014063180140461901403D1A0140D5
:400040004A1B014007400140054101400642014005430140064401400145014001460140034701400748014018490140044C01400A4D01400550014001510140186219205D
:40008000880F8938847F8A728B0FE681E4200114041306040A150B030D100F401020111013AC15DC17221803190C1A141B711C131E0C2109222023D0280A2A142B202E0838
:4000C000321033E03420351F360F3A803B083E144013410245EC47B0482349FF4AFF4BFF4EF04F44500C5401580459045A045B045C115D115F0166C06A406B0287018B02E6
:400100008E02900297029B01A004AE01B001B404B501B602B702B880BE50BF50D418D804D904DB04DC04DD10DF01030105200604071808210B040C010D800F041080120125
:4001400014041602172119801A841C081D801E021F0820042280253027102D202E033008322034043601371039283DA03F02458047184C804F0557015A025C205E045F41D3
:40018000600462808B018D809680C061C2D8C4D9CAA0CCE6CEB6D070D6F1D80CE420968096808240E680825B8A138C038E04921C945B980AA67BAA09B01FB220B440BA0210
:4001C000BE10C053C104C202C62CC7E0C82CC9FFCAFFCBFFCD83CE03CF01D018D804DA04DB04DF01E040E240E440E540E680E880EA80EC80EE800061021004030520070117
:4002000008080A450E600F0410061101130614081508184019201A051B501C241D241E601F02200121082240230828082B52300231043260384039013A103B0440054220CA
:4002400045204620470148024C0155015630578060206C026E806F017380780479087A60810183088402878089088F809108930498289B02A820AD04AF02C0DFC27FC46F07
:40028000CA0FCC0FCE0FD0EED218D802DE01E00CE210E409EC40EE0680088704E202E604030C0432070308040A100C010F08110113061401150C1703180819011B0E1C32BB
:4002C000240128202A022D1030083230330F34013606371038883B083E053F404003460449FF4A074BFF4C404D204EF04F055008580459045A045C115D015F01604061A891
:40030000624063208004821A8301850188088A069201940C9F01A40CA901B010B20CB301B603B908BB20BE40C046C103C202C401C6E0C70CC818C9FFCAFFCBFFCC62CDA0FA
:40034000CEF0CF41D00CD283D804D904DA04DB04DC11DD01DF01E640E702E910EA30EB10ED10EE10EF120012060407120A100B800D200E1211041504172018111B021D183D
:400380001E011F11210423042688272029202C012E8031803609371038023B043D803E013F084001411142204508491050085220554056045704662067046A206B0173404D
:4003C000821087018F01952896039B109C019E059F20A120A201A408A540A620AC04B348C0EAC2ECC464CA14CCE8CED3D04FD204EC020001013C03C204330518060C0802E4
:4004000009080C1F0D100E2010031304162317E3183F19FF1C1C1DC01E232008214424042580280C29E72B182D1C2FE1301031C0340F3538362C371F3AA03B803E01560214
:400440005713580459045B045C115D105F0188048A018C018E0694029601A407A807B607D403D604D804DB04DC01DF0500160180041005400604081009880BA60E2010285D
:4004800013011514180619A11D401F402190220129A02A042B8030103148330238A83B0259015C0A5E405F20648069146A106B02707C73017E0880028240840886088801F8
:4004C00089218A108BA08C808E809010932494029526961297809D209E809F02A302A401A580AA80AF40B601C0CFC22FC46ECA0FCC0FCE0FD6F1D880DE20E210E430EC40BF
:4005000030013240364482408804CCF0E6800BA098049C01A644C210938098049C01A604AE40AF108B20938098049C01A6042A207E018A20CA08DE04E601960296028D017E
:400540009602E4022720938098049C019F20A604C88009041910564058045F02624064016780811082048F02938098049C01A504A604AC04B504C210C640D440D6C0D880B8
:40058000E8108C019901AE01E002104070017501884090029901C408DC01DE04E20100120C1210071A051C0300FF000030900000400000000000BA0700280250B8040080F7
:4005C00000020280107F0800087810000000C0780001047800070100002820500018B8603E18406001000078F88006070000200000000010130502000000000000FFFFFF90
:40060000000000011800000000000228040404040020080140004000404080008000800080008000000000000000000000000000000000001E00001E00000000C0000000C2
:40064000800040B0B000B00000000000F00000FBFB00000000000000FF0000FFFF00000000000000100000F2E200E200010000000000000000000000000000000000000000
:40068000000000000000000000000000000000000000000000000000000000000000000000000000000000000000000000000000000000000000000000000000000000003A
:4006C00000000000000000000000000000000000000000000000000000000000000000000000000000000000000000000000000000000000000000000000000000000000FA
:4007000000000000000000000000000000000000000000000000000000000000000000000000000000000000000000000000000000000000000000000000000000000000B9
:400740000000000000000000000000000000000000000000000000000000000000000000000000000000000000000000000000000000000000000000000000000000000079
:0200000490006A
:0400000000004005B7
:0200000490105A
:04000000BC90ACAF55
:0200000490303A
:02000000ACACA6
:0200000490402A
:4000000000000000000000000000000000000000000000000000000000000000000000000000000000000000000000000000000000000000000000000000000000000000C0
:400040000000000000000000000000000000000000000000000000000000000000000000000000000000000000000000000000000000000000000000000000000000000080
:400080000000000000000000000000000000000000000000000000000000000000000000000000000000000000000000000000000000000000000000000000000000000040
:4000C0000000000000000000000000000000000000000000000000000000000000000000000000000000000000000000000000000000000000000000000000000000000000
:0200000490501A
:0C00000000012E16106900012E22BD1513
:00000001FF