:400000000080002011000000650900006509000008B5044B1A6803F53F5302331A6000F0A9FC00BFFA46004010B5054C237833B9044B13B10448AFF300800123237010BDF6
:400040004081FF1F00000000FC1E0000084B10B51BB108490848AFF300800848036803B910BD074B002BFBD0BDE81040184700BF000000004481FF1FFC1E0000C880FF1FDE
:40008000000000000122014B1A6070476081FF1F10B500F07BFF00F08DFF044600F0A2FF201A014B586010BD6081FF1F10B501F09BF8044601F0B0F8201A01F0A7FB0022F6
:4000C000014B01F043FD10BD00408F4038B504460D46FFF7EBFF034BC3E90201C3E9044538BD00BF6081FF1F10B500F04FFF00F061FF044600F076FF201A074B586004A1AD
:40010000D1E90001FFF7E2FF10BD00BFAFF300809A9999999999B93F6081FF1F38B504460D46FFF7C3FF094BD3E9022301F030FA22462B4601F052FE18B1002001F0A8F8CB
:4001400038BD012001F0A4F838BD00BF6081FF1F08B5012000F0B6FF00F084FF002000F0B1FF08BD08B5FFF7F3FF08BD014BC3E90A0170476081FF1F38B50D461E4B03EBF4
:40018000C000002305E0C25C303A1C4941F823200133062BF7DD194C2068B0FA80F0400900F042FC6068B0FA80F0400900F048FCA068B0FA80F0400900F04EFCE068B0FA61
:4001C00080F0400900F054FC2069B0FA80F0400900F05AFC6069B0FA80F0400900F060FCA069B0FA80F0400900F066FCB5FA85F0400900F06DFC38BD001F0000F081FF1F35
:40020000F8B5B14B1B68002B00F05D8104460D460022002301F000FE002800F0AE80AA4BD3E90C232046294601F0CEFD002840F013810022A54B2046294601F0E3FD50B964
:400240004CE00022A24B2046294601F055FB04460D46013600E0002600229E4B2046294601F0BCFD0028ECD12046294601F0DEFD994981FB0031C217C2EBA111DFF860E263
:400280008EFB0137CB17C3EBA70303EB8303A1EB43038D4FBB63914B83FB0013C2EB63138EFB031CD917C1EBAC0101EB8101A3EB4101F9638EFB0013C2EBA3038EFB032E3F
:4002C000DA17C2EBAE0202EB8202A3EB42023A6403EB8303A0EB43037B643CE000227D4B2046294601F008FB01F0A0FD7A4E86FB0036C317C3EBA616794A82FB0617F11726
:40030000C1EBA70101EB8101A6EB41016E4EB163724F87FB0017C3EB671782FB071EF917C1EBAE0101EB8101A7EB4101F16382FB0071C3EBA10382FB0321DA17C2EBA1020D
:4003400002EB8202A3EB4202326403EB8303A0EB430373640326002305E05B4A02EB8302002191640133032BF7DD574B03EB86060122B264C3E90C456EE00022594B204628
:40038000294601F021FD48B14F4B0F229A631022DA6312221A6411225A645DE000224FF040432046294601F00FFD48B1464B0D229A630C22DA630B221A640E225A644BE014
:4003C0000022494B2046294601F0FEFC40B13E4B0A229A63DA631A645A640122DA643BE00022424B2046294601F0EEFC30B1364B0A229A63DA631A645A642DE0324B0A22D6
:400400009A63DA631A645A640022394B2046294601F0DAFC10B108222B4B9A630022354B2046294601F0D0FC10B10822264BDA630022314B2046294601F0C6FC10B10822C8
:40044000214B1A6400222D4B2046294601F0BCFC10B108221C4B5A641B4CA36D013303F00303A365012000F03FFB012000F048FB012000F051FB012000F05AFBA36DC3F198
:40048000030204EB820204EB8303916C986BFFF773FEA36D1BB9002000F026FB10E0012B03D1002000F02CFB0AE0022B03D1002000F032FB04E0032B02D1002000F038FB5C
:4004C0000022014B1A60F8BD6081FF1F0000F03F0000244000408F40D34D62101F85EB51676666660000F0BF000008C0000010C0000014C0000018C000001CC0000020C004
:4005000010B5054CD4E90401FFF708FED4E90A01FFF776FE10BD00BF6081FF1F38B562B600F0A0FB00F042FB00F06EFB00F0F8FD3C4800F089FB3C4800F02AFB3B4800F02B
:4005400055FB032000F02AFD394800F0DBFD00F005FC00F039FC00F09DFC00F0FDFC00F0A3FD032000F034FE00F084FE00F0A2FE00F00AFEFFF79AFD04460D4638E0FFF719
:4005800095FD22462B4601F003F801F04FFC18B900202849FFF7EAFDFFF788FD22462B4600F0F6FF01F042FC012803D100202249FFF7DCFDFFF77AFD22462B4600F0E8FF8D
:4005C00001F034FC022803D100201C49FFF7CEFDFFF76CFD22462B4600F0DAFF01F026FC032803D100201649FFF7C0FDFFF788FFFFF75CFD22462B4600F0CAFF0022114B75
:4006000001F0F6FB0028BAD140F2B91000F056FE0446204601F00AF9FFF7A8FDFFF770FFF7E700BF8500000065010000E900000091000000000014C0000018C000001CC0B8
:40064000000020C000001040FEE700BFF0B40022174611E050F82760F3B226F0FF0608E001EB420511F812406D78A5550132013BDBB2002BF4D101371D2FEBD9F0BC704717
:4006800010B41D4B1B78DBB203F007011B4A11701B09013213704122194B1A70012230331A700C2203F22F731A70402203F5DA731A70202204331A7080210C3319700420C2
:4006C0000733187002230F480370302408300470033001700C490A7090210C4A11700432137040F205120A4B1A804422A3F2CE231A7010BC704700BFCF0100496E58004086
:400700000D510040885A0040945A0040D85A0040445B004008B50A46002101F0E6FB08BD38B50122304B1A801C2202331A704FF49C7202331A8018232C4A137040F2572195
:40074000023211800232137045F6BF51023211800232137043F69722254B1A80192502331D70022203F26E231A7008224FF040231A70032103F5007319701E4B1B78DBB20F
:400780001D490B701D4B1A8041F25122023B1A8000240CE01A4B1B7803F0010343EA440404F003044FF4F07000F09EFD013D0DB1032CEFD115B90320FFF746FF114B4FF486
:4007C00080721A8007221A7000220F490A704820023108701A700222033B1A700B4A137843F01F03137038BD80400040864000409040004008010049A1460040224200405D
:40080000254200400440004006400040A243004008B501F05FFB08BD38B572B63C4A137843F00403137000240CE03A4D630019194A0011462A44084691882858FFF76AFFB1
:400840000134E4B2072CF0D900240BE03148A20011194B0003441A8F596B186BFFF7D8FF0134E4B2012CF1D92B494FF09040FFF7EDFE40F20332294B1A80294A03F53E4387
:400880000A331A60274A137843F0020313701032137843F002031370234C237843F040032370A2F58632513A137843F0100313700A221E491E48FFF7ABFF0A221D491E4870
:4008C000FFF7A6FF0A221D491D48FFF7A1FF0A221C491D48FFF79CFF0A221C491C48FFF797FF1C4A137843F0080313701A4D61232B70FFF715FF81232B700122174B1A7038
:40090000FFF7BEFE0E2221461548FFF781FF38BDE8460040981F0000780000484E5800400404008403500140A04300409807004800510040A4070048C0510040B0070048DD
:4009400010510040BC07004820510040C807004830510040224300400048004004000840B043004008B501F089FA03680C2B00D1FEE7FEE708B5104E104D16E029686B6856
:40098000AC68002204E051F8040B43F8040B0432A242F8D1E868002203E0002143F8041B04328242F9D11035013E002EE6D101F06BFAFFF7B3FDFEE7010000001820000081
:4009C00008B5104A104B1A60104A136843F40073136000230AE0032B03D80D4A52F8231000E00C490C4A42F8231001332F2BF2D90A4B1A780A4B1A70074A0A4B1A60FFF702
:400A00000BFF08BD0004FA050CED00E014ED00E000000000650900000080FF1FBC760040C080FF1F08ED00E0044A137803F0FB03800000F0040018431070704720510040F8
:400A4000044A137803F0FE0300F0010018431070704700BF20510040044A137803F0EF03000100F0100018431070704720510040044A137803F0BF03800100F0400018431A
:400A80001070704720510040044A137803F07F03C001C0B218431070704700BF20510040044A137803F0FD03400000F0020018431070704720510040044A137803F0F703C4
:400AC000C00000F0080018431070704720510040044A137803F0DF03400100F0200018431070704720510040044A137803F07F03C001C0B218431070704700BF1051004046
:400B0000044A137803F0DF03400100F0200018431070704710510040044A137803F0BF03800100F0400018431070704710510040044A137803F0EF03000100F010001843F7
:400B4000107070471051004008B5034B1B7A00FB03F000F0C9FB08BDCC80FF1F014B1B681864704708ED00E04001C0B2014B1870704700BF00E400E00122014B1A607047F4
:400B800000E100E00122014B1A60704780E100E010B50446FFF7F6FF2046FFF7DFFF0720FFF7E2FFFFF7E8FF10BD00BF0122014B1A60704780E200E0014B1B6858647047D4
:400BC00008ED00E04001C0B2014B1870704700BF01E400E00222014B1A60704700E100E00222014B1A60704780E100E010B50446FFF7F6FF2046FFF7DFFF0720FFF7E2FFE8
:400C0000FFF7E8FF10BD00BF0222014B1A60704780E200E0014B1B68D864704708ED00E04001C0B2014B1870704700BF03E400E00822014B1A60704700E100E00822014B2F
:400C40001A60704780E100E010B50446FFF7F6FF2046FFF7DFFF0620FFF7E2FFFFF7E8FF10BD00BF0822014B1A60704780E200E0084A137843F0040313701032137843F0E5
:400C80000403137002F5A5521E32137843F0800313707047A9430040044A137803F0FC0300F0030018431070704700BF0958004010B487B00446194B03AA1868596803C2B9
:400CC000197A11706A4653F80C0F596803C21B7A1370082C1ED812490B7803F08003DBB20B70087806AB1C4414F80C3C14F8182C920002F00C02134303430B70094A1378EA
:400D000003F0F3031370117814F8183C0B4343F00C03137007B010BC704700BFDC1F00000A5800400958004008B50C22084B1A70084A137843F0200313700022064B1A7099
:400D40000420FFF7B5FF0120FFF7A6FF08BD00BF08580040095800400A58004008B5054B1B7823B9FFF7E0FF0122024B1A70FFF77FFF08BDC881FF1F084A137843F0600324
:400D80001370A2F5A652133A137843F0040313701032137843F004031370704777580040054B1A7802F0FC021A701A7800F0030010431870704700BF5C58004008B5012038
:400DC000FFF7EEFF08BD00BF08B5054B1B7823B90122034B1A70FFF7F1FFFFF7CDFF08BDC981FF1F054A137843F0080313701032137843F008031370704700BFA743004077
:400E00000F490B7803F0FC0200F0030313430B7001280AD10B4B1B78DBB20B4A13700B4B1B78DBB2013213707047094B1B78DBB2054A1370074B1B78DBB2013213707047C5
:400E400043580040130100493646004017010049B3010049BB01004908B50120FFF7D0FF0B4B1A7842F020021A701A7802F0FB021A701A7842F008021A7003F527731A782B
:400E800002F0E7021A701A7842F010021A7008BD4358004008B5054B1B7823B9FFF7DCFF0122024B1A70FFF79DFF08BDCA81FF1F054A137843F0020313701032137843F031
:400EC00002031370704700BFA8430040054B1A7802F0FD021A701A7800F0020010431870704700BF24580040014B1870704700BF815B0040064B1B78C3F3810303F192438E
:400F0000063393F83031DBB2024A1370704700BF245800400946004008B5064B1A7802F0F3021A701A7800F00C0010431870FFF7E1FF08BD2458004010B50024054B1C70D9
:400F400001331C700420FFF7E7FF2046FFF7BEFF10BD00BF2458004008B5074B1B7823B9FFF7EAFF0122044B1A70FFF7A1FFBB20FFF7BAFF08BD00BFCB81FF1F024A137812
:400F800043F080031370704775650040024A137803F07F031370704775650040014B1870704700BF86650040014B1878704700BF66650040014B188880B27047486A0040EE
:400FC000014B1880704700BF486A0040014B188880B27047886A0040014B1880704700BF086A0040024B1B78024B188880B2704704650040886A004000F00300044B1A782D
:4010000002F0FC021A701A7810431870704700BF7565004008B501E0FFF7D8FFFFF7C4FF10F0080FF8D108BD08B54CF24F30FFF7C7FF4CF24F30FFF7CFFF00F05DF9084A21
:40104000137843F01003137000F05AF90020FFF7D3FFFFF7DFFF0720FFF7A0FF08BD00BF9665004008B5054B1B7823B9FFF7DCFF0122024B1A70FFF781FF08BDCC81FF1FB5
:401080000922014B1A7070478864004008B500F033F9044A137843F02003137000F030F908BD00BF9864004008B5054B1B7823B9FFF7E6FF0122024B1A70FFF7E7FF08BDF6
:4010C000CD81FF1F014B1870704700BF78650040014B1B689864704708ED00E04001C0B2014B1870704700BF02E400E00422014B1A60704700E100E00422014B1A607047FC
:4011000080E100E010B50446FFF7F6FF2046FFF7DFFF0720FFF7E2FFFFF7E8FF10BD00BF0422014B1A60704780E200E07222074B1A70202201331A700622633B1A704722C5
:4011400010331A70002254331A7070478965004010B500F0D1F804460A4A137843F0200313700132137843F0100313700132137843F01003137000F015F8204600F0C0F8F1
:4011800010BD00BF9965004008B5054B1B7823B9FFF7CCFF0122024B1A70FFF7D9FF08BDCE81FF1F054A137843F0020313701032137843F002031370704700BFA243004076
:4011C000024A137843F08003137070477B640040014B1870704700BF8B640040014B1878704700BF6B640040014B1868704700BF28640040014B1860704700BF286400401B
:40120000014B1868704700BF48640040014B1860704700BF08640040024B1B78024B1868704700BF086400404864004008B501E0FFF7E6FFFFF7D2FF10F0080FF8D108BDFA
:4012400008B54FF0FF30FFF7D5FF4FF0FF30FFF7DDFF00F051F8064A137843F01003137000F04EF8FFF7E2FF0020FFF7B1FF08BD9B64004008B5054B1B7823B9FFF7E0FF34
:401280000122024B1A70FFF79BFF08BDD081FF1F044A137803F0F703C00000F008001843107070473051004008B500F083F800F08BF808BD08B5FFF7F7FF08BD38B504469A
:4012C00000F01AF8054600F0A9F804F1804000F500400478E4B200F0AFF8284600F010F8204638BD000000000230800803D000BF01380046FCD17047EFF3108072B670471C
:4013000080F31088704700BF10B500F09DF800F0E5F810BB012000F0C3F8072818D102210F4800F0A3F802280AD102E00120FFF70BFC0C4B1B7813F0020FF7D0002409E08A
:40134000084B1B7813F0020FE9D04FF0FF3401E04FF0FF3400F0E8F800E00424204610BD0C82FF1F2247004010B500F06DF800F0B5F8D0B900F0F4F80446072812D102E03B
:401380000120FFF7E1FB0A4B1B7813F0020FF7D0074B1B7813F0020F04D0054B1B789B0800D1002400F0C0F800E00424204610BD2247004008B5FFF7D7FF034610B9FFF712
:4013C000A3FF0346184608BD08B5FFF795FF0F4A137843F0080313701032137843F008031370C8220A4B1A700A4A137843F0100313701032137843F010031370064B1B787A
:4014000013F0200FFAD0FFF77BFF08BDA043004001470040AC43004000470040054A137843F001031370034B1B7813F0020FFAD0704700BF02470040024A137803F0FE03FD
:40144000137070470247004008B5FFF755FF064A137843F0080313701032137843F008031370FFF74DFF08BDA043004070B506460D4600240CE00120FFF766FB064B1B781E
:4014800013F0010FF7D0054B1B7833550134E4B2AC42F3D3204670BD22470040204700400C4B1B7813F0020F0FD00B4BB6221A70E1221A700E221A7002331B7813F0020FCD
:4014C00005D1054B187007207047042070470920704700BF224700402047004010B5FFF70BFF0F4B1B78A3B901220D4B1A700D4B1B6813F0010F0ED00A4A136823F00103D1
:40150000136000BF00BF00BF0122054B5A60002402E0042400E00024FFF7F2FE204610BDD481FF1F0400084008B5FFF7E5FE0A4B00221A705B68012B0AD1084A136843F063
:401540000103136000BF00BF00BF0022024B5A60FFF7D6FE08BD00BFD481FF1F04000840074B1B7813F0020F08D0064BB6221A70E0221A700D221A700720704704207047FF
:40158000224700402047004081F0004102E000BF83F0004330B54FEA41044FEA430594EA050F08BF90EA020F1FBF54EA000C55EA020C7FEA645C7FEA655C00F0E2804FEAB7
:4015C0005454D4EB5555B8BF6D420CDD2C4480EA020281EA030382EA000083EA010180EA020281EA0303362D88BF30BD11F0004F4FEA01314FF4801C4CEA113102D04042C5
:4016000061EB410113F0004F4FEA03334CEA133302D0524263EB430394EA050F00F0A780A4F10104D5F1200E0DDB02FA0EFC22FA05F2801841F1000103FA0EF2801843FA10
:4016400005F359410EE0A5F120050EF1200E012A03FA0EFC28BF4CF0020C43FA05F3C01851EBE37101F0004507D54FF0000EDCF1000C7EEB00006EEB0101B1F5801F1BD3D3
:40168000B1F5001F0CD349085FEA30004FEA3C0C04F101044FEA445212F5800F80F09A80BCF1004F08BF5FEA500C50F1000041EB045141EA050130BD5FEA4C0C404141EBBC
:4016C000010111F4801FA4F10104E9D191F0000F04BF01460020B1FA81F308BF2033A3F10B03B3F120020CDA0C3208DD02F1140CC2F10C0201FA0CF021FA02F10CE002F1D4
:401700001402D8BFC2F1200C01FA02F120FA0CFCDCBF41EA0C019040E41AA2BF01EB0451294330BD6FEA04041F3C1CDA0C340EDC04F11404C4F1200220FA04F001FA02F3B3
:4017400040EA030021FA04F345EA030130BDC4F10C04C4F1200220FA02F001FA04F340EA0300294630BD21FA04F0294630BD94F0000F83F4801306BF81F480110134013DA1
:401780004EE77FEA645C18BF7FEA655C29D094EA050F08BF90EA020F05D054EA000C04BF1946104630BD91EA030F1EBF0021002030BD5FEA545C05D14000494128BF41F020
:4017C000004130BD14F580043CBF01F5801130BD01F0004545F0FE4141F470014FF0000030BD7FEA645C1ABF194610467FEA655C1CBF0B46024650EA013406BF52EA033546
:4018000091EA030F41F4002130BD00BF90F0000F04BF0021704730B54FF4806404F132044FF000054FF0000150E700BF90F0000F04BF0021704730B54FF4806404F13204DD
:4018400010F0004548BF40424FF000013EE700BF42004FEAE2014FEA31014FEA02701FBF12F07F4393F07F4F81F06051704792F0000F14BF93F07F4F704730B54FF46074CE
:4018800001F0004521F0004120E700BF50EA010208BF704730B54FF000050AE050EA010208BF704730B511F0004502D5404261EB41014FF4806404F132045FEA915C3FF484
:4018C000DCAE4FF003025FEADC0C18BF03325FEADC0C18BF033202EBDC02C2F1200300FA03FC20FA02F001FA03FE40EA0E0021FA02F11444C1E600BF70B54FF0FF0C4CF44B
:40190000E06C1CEA11541DBF1CEA135594EA0C0F95EA0C0F00F0DEF82C4481EA030621EA4C5123EA4C5350EA013518BF52EA033541F4801143F4801338D0A0FB02CE4FF078
:401940000005E1FB02E506F00042E0FB03E54FF00006E1FB03569CF0000F18BF4EF0010EA4F1FF04B6F5007F64F5407404D25FEA4E0E6D4146EB060642EAC62141EA555152
:401980004FEAC52040EA5E504FEACE2EB4F1FD0C88BFBCF5E06F1ED8BEF1004F08BF5FEA500E50F1000041EB045170BD06F0004646EA010140EA020081EA0301B4EB5C04AE
:4019C000C2BFD4EB0C0541EA045170BD41F480114FF0000E013C00F3AB8014F1360FDEBF002001F0004170BDC4F10004203C35DA0C341BDC04F11404C4F1200500FA05F3E1
:401A000020FA04F001FA05F240EA020001F0004221F0004110EBD37021FA04F642EB06015EEA430E08BF20EAD37070BDC4F10C04C4F1200500FA04F320FA05F001FA04F204
:401A400040EA020001F0004110EBD37041F100015EEA430E08BF20EAD37070BDC4F1200500FA05F24EEA020E20FA04F301FA05F243EA020321FA04F001F0004121FA04F223
:401A800020EA020000EBD3705EEA430E08BF20EAD37070BD94F0000F0FD101F00046400041EB010111F4801F08BF013CF7D041EA060195F0000F18BF704703F000465200AC
:401AC00043EB030313F4801F08BF013DF7D043EA0603704794EA0C0F0CEA135518BF95EA0C0F0CD050EA410618BF52EA4306D1D181EA030101F000414FF0000070BD50EA49
:401B0000410606BF1046194652EA430619D094EA0C0F02D150EA013613D195EA0C0F05D152EA03361CBF104619460AD181EA030101F0004141F0FE4141F470014FF000006F
:401B400070BD41F0FE4141F4780170BD70B54FF0FF0C4CF4E06C1CEA11541DBF1CEA135594EA0C0F95EA0C0F00F0A7F8A4EB050481EA030E52EA03354FEA013100F0888090
:401B80004FEA03334FF0805545EA131343EA12634FEA022245EA111545EA10654FEA00260EF000419D4208BF964244F1FD0404F5407402D25B084FEA3202B61A65EB03058A
:401BC0005B084FEA32024FF480104FF4002CB6EB020E75EB030E22BFB61A754640EA0C005B084FEA3202B6EB020E75EB030E22BFB61A754640EA5C005B084FEA3202B6EBBA
:401C0000020E75EB030E22BFB61A754640EA9C005B084FEA3202B6EB020E75EB030E22BFB61A754640EADC0055EA060E18D04FEA051545EA16754FEA06164FEAC30343EAC4
:401C400052734FEAC2025FEA1C1CC0D111F4801F0BD141EA00014FF000004FF0004CB6E711F4801F04BF01430020B4F1FD0C88BFBCF5E06F3FF6AFAEB5EB030C04BFB6EB18
:401C8000020C5FEA500C50F1000041EB045170BD0EF0004E4EEA113114EB5C04C2BFD4EB0C0541EA045170BD41F480114FF0000E013C90E645EA060E8DE60CEA135594EA07
:401CC0000C0F08BF95EA0C0F3FF43BAF94EA0C0F0AD150EA01347FF434AF95EA0C0F7FF425AF104619462CE795EA0C0F06D152EA03353FF4FDAE1046194622E750EA410667
:401D000018BF52EA43067FF4C5AE50EA41047FF40DAF52EA43057FF4EBAE12E74FF0FF3C06E000BF4FF0010C02E000BF4FF0010C4DF804CD4FEA410C7FEA6C5C4FEA430C7D
:401D400018BF7FEA6C5C1BD001B050EA410C0CBF52EA430C91EA030F02BF90EA020F0020704710F1000F91EA030F58BF994208BF90422CBFD8176FEAE37040F0010070479C
:401D80004FEA410C7FEA6C5C02D150EA013C07D14FEA430C7FEA6C5CD6D152EA033CD3D05DF8040B704700BF8446104662468C461946634600E000BF01B5FFF7B7FF002827
:401DC00048BF10F1000F01BD4DF808EDFFF7F4FF0CBF012000205DF808FB00BF4DF808EDFFF7EAFF34BF012000205DF808FB00BF4DF808EDFFF7E0FF94BF012000205DF86C
:401E000008FB00BF4DF808EDFFF7CEFF94BF012000205DF808FB00BF4DF808EDFFF7C4FF34BF012000205DF808FB00BF4FEA410212F5001215D211D56FF47873B3EB6252F8
:401E400012D94FEAC12343F0004343EA505311F0004F23FA02F018BF404270474FF00000704750EA013005D111F0004008BF6FF0004070474FF00000704700BF014B18688F
:401E8000704700BF3C81FF1F0E4B70B51E460E4C0025E41AA410A54204D056F8253098470135F8E700F0A6F8084B094C1E46E41AA4100025A54204D056F825309847013588
:401EC000F8E770BD0020000000200000002000000820000010B5431E0A44914204D011F8014B03F8014FF8E710BD03460244934202D003F8011BFAE7704700000000000002
:401F000031313131313130003031313030303000313130313130310031313131303031003031313030313100313031313031310031303131313131003131313030303000FD
:401F400031313131313131003131313130313100303030303030300030303031313031003030313031303100303031303030300030303130313131003130303131313000C5
:401F8000313030313131310030303031313131003131313031313000405100403000F0510040100000000140001000140140800400190140000300400140000A004C0140F2
:401FC00000020050014020006052004010070048060080180140180700488000011121314161536373000000080901010507070404430000F8B500BFF8BC08BC9E467047F8
:402000004D000000C1090000F8B500BFF8BC08BC9E4670472900000028200000C880FF1F78000000D0000000000000000000E02EC05D00001800000000366E010000000003
:4020400000000000000000000000000000000000000000000000000000000000F11F0000000000000000000000000000000000000000000000000000000000000000000050
:4020800000000000000000000000000000000000000000000000000000000000DC80FF1F0000000000000000000000000000000000000000000000000000000000000000A6
:4020C00000000000000000000000000000000000000000000000000000000000000000000000000000000000000000000000000000000000000000000000000000000000E0
:40210000000000000000000000000000000000000000000000000000000000000000000000000000000000000000000000000000000000000000000000000000000000009F
:40214000000000000000000000000000000000000000000000000000000000000000000000000000000000000000000000000000000000000000000000000000000000005F
:40218000000000000000000000000000000000000000000000000000000000000000000000000000000000000000000000000000000000000000000000000000000000001F
:020000040003F7
:0200000480007A
:40000000025200400264004004650040020701405D08014031090140420A01401F0B014059140140451501404C1601403C1701400A18014044190140481A0140491B0140B1
:4000400003400140054101400442014006430140044401400245014003460140044701400A48014016490140014C0140084D0140055001400151014018421920887F8B0D8B
:40008000860F89728A388B0F8A04E00104700503060907040840090A0B040C310E441103130414241640170519031A0C1B0C1C502402251028412A302B083203330F347C34
:4000C000371038083B083F40404149FF4AFF4BFF4F01501856025728580459045A045B045C115D235E085F016040624064406540668068806A806C806E8089038A018C02E1
:400100008D028F0199039A01A402A802A901AB02B001B202B703BE01C041C9FFCAFFCBFFCD83CE03CF01D018D804D904DA04DC11DD03DF01E040E240E440E540E680E88012
:40014000EA80EC80EE8000200301062407020A080DA00E201010111017281A301B011D201E201F2821402680272029202F2830103310372A39903E284102420245024643F7
:40018000671074027F0283048A1093109A419F04A402B401C0E3C2E2C466CA64CCE4CE6CD099D840DE10E2800A01110117012C013601370138803E403F40401449FF4AFF6F
:4001C0004BFF4D834E034F015018580459045A045D035F016040624064406540668068806A806C806E808E01AD01AE01B001B301BE01BF04C041C5ECC720C823C9FFCAFF00
:40020000CBFFCD83CE03CF01D018D280D401D804D904DA04DB04DD33DF01E040E240E440E540E680E880EA80EC80EE800304060110021330174018021E80230227202C02E5
:4002400030023304434246414D044F01560157025D045E805F01764077408702C082C481CA10CC03D099D6D0E4020401050308020B0117011C071F022304240727012804D9
:400280002E0733043407370340234101420649FF4AFF4BFF4F015018580459045A045F016040624064406540668068806A806C806E80811785078601870889018A028B026C
:4002C0008F1897209B179D029F01A401A717AA01AB20AF04B002B11FB401B720BB02BE10BF40C063C101C202C5ECC620C80BC9FFCAFFCBFFCD83CE03CF01D018D283D80413
:40030000D904DA04DB04DC03DF01E040E240E440E540E680E880EA80EC80EE800004020804040604098010021124171818041B301C881D20218022082440264229012B1064
:400340002E602F20318032083688371039043A203C403D043E114006422044024520462048044D094F20551056206E506F08740275018201844086018708910495019640E9
:4003800098029A059B189D08A280A642A718B080B414C066C201C467CA73CC7ACEF6D07ED224E402E6010506060F07080B360D141005120A1326160F180F1B371C031E0C9D
:4003C0001F382005220A240F253628032A0C2B12320F3501373E3B8054035604580459045B045F05841A850C86048703880389018A0C8B0E8F089208970C99019A189B060D
:400400009F03A205A403A614B003B21CB50FB802BA08BB20BE01C004C604C9FFCA07CBFFCC40CD20CEF0CF05D008D804D904DA04DC11DD01DF01E040E1A8E240E32000143F
:4004400007100A080B800DA00E440F2010A01514170118101B021E20200425A0268027082D102E042F0830A0320436823711381439803D043E403F20430248805140534068
:400480005D095EA066017D048140840285048E0492089B10A020AB10AC20C026C2FAC47CCA60CCBECE7ED001D6F0D880DE40E001E410E602EA0606010A010C0126012801F7
:4004C00030013E0158045B045F01008001200201031006280702081809080A030B841002111012601728180419411B801E402040222C282029602A413090310832013828ED
:4005000039803B804068421048104A0A5002590169106B116E806F0270B4820486408A028B0491809230951096089B209D209E2C9F1BA280A301A410A580A702AF20C0E746
:40054000C20FC46FCA0FCC0FCE0ED007D20CD601EA04000604C0050C083E09040AC00CE00D020E161004110F13101513161E170C1A201B131C221D081E012080210324406E
:40058000251F28FE29012CE02D0C2E0E2F133006311C330F340136F83A803B2A5418580459045B045C115D105F018F019801B101B401BE10C023C104C5EEC60BC70CC817A3
:4005C000C9FFCAFFCBFFCEF0CF44D00CD401D804D904DA04DB04DC30DD11DF01E6C0EA40EB0201840208038008800A240B800F0810A0121619811A051E0820802108220AFB
:4006000023042740281029A02A042B80308031083212380839043A103B803F40472A4F095580560859015C205E485F0160046302642066088340874088808920900C9260C8
:4006400093809601970498109B2A9D209E08A0A0A381A440A588AE80B308B620B702C00FC24FC40FCA0FCC0FCE1ED0E0D6F1D80CE810ECC833423624CCF009089F40A624D9
:40068000A702C2109F40A108A624A70283809F40A108A624A702E08073407C40DC01DE04944097408740944097400004B440C008E80227808D089B089FC0A108A624A70217
:4006C000AB08C880EA200B401E0856405B085C04626280048342860287409B089F40A624A702C210C680D440D6C0D840E260E440E680A804101074018810A001AC01C40841
:40070000DE04E204000E0C0E100B1A0B1C0A00FF9080000040000000000000000E0C00000404020001000020080E02010103000C010F000001080000020C0C03000010025E
:400740000E000020000010100130000E10010E00002000000000110123050600040C00E021FFFFFF62A0F0410C000000000002130404040411110001000000000000400296
:400780000010301000101012000000000000000000000000000000001E00001E00000000C0000000800040B0B000B00000000000F00000FBFB00000000000000FF0000FF07
:4007C000FF00000000000000180000FAEA00E2000100000000000000000000000000000000000000000000000000000000000000000000000000000000000000000000001B
:4008000000000000000000000000000000000000000000000000000000000000000000000000000000000000000000000000000000000000000000000000000000000000B8
:400840000000000000000000000000000000000000000000000000000000000000000000000000000000000000000000000000000000000000000000000000000000000078
:400880000000000000000000000000000000000000000000000000000000000000000000000000000000000000000000000000000000000000000000000000000000000038
:4008C00000000000000000000000000000000000000000000000000000000000000000000000000000000000000000000000000000000000000000000000000000000000F8
:0200000490006A
:0400000000004005B7
:0200000490105A
:04000000BC90ACAF55
:0200000490303A
:02000000783551
:0200000490402A
:4000000000000000000000000000000000000000000000000000000000000000000000000000000000000000000000000000000000000000000000000000000000000000C0
:400040000000000000000000000000000000000000000000000000000000000000000000000000000000000000000000000000000000000000000000000000000000000080
:400080000000000000000000000000000000000000000000000000000000000000000000000000000000000000000000000000000000000000000000000000000000000040
:4000C0000000000000000000000000000000000000000000000000000000000000000000000000000000000000000000000000000000000000000000000000000000000000
:0200000490501A
:0C00000000012E16106900012E24889EBD
:00000001FF