:400000000080002011000000CD090000CD09000008B5044B1A6803F53F5302331A6000F0DDFC00BFFA46004010B5054C237833B9044B13B10448AFF300800123237010BDF2
:400040005881FF1F00000000F41F0000084B10B51BB108490848AFF300800848036803B910BD074B002BFBD0BDE81040184700BF000000005C81FF1FF41F0000C880FF1FBC
:4000800000000000034A1368B3FA83F35B091360704700BFCC80FF1F034A5368B3FA83F35B095360704700BFCC80FF1F034A9368B3FA83F35B099360704700BFCC80FF1FDA
:4000C000034AD368B3FA83F35B09D360704700BFCC80FF1F034A1369B3FA83F35B091361704700BFCC80FF1F0122014B1A6070477881FF1F10B500F075FF00F081FF0446A0
:4001000000F084FF201A014B586010BD7881FF1F10B501F053F8044601F068F8201A01F0F1FB0022014B01F08DFD10BD00408F4038B504460D46FFF7EBFF094BD3E9022313
:4001400001F0A2FA22462B4601F0C4FE18B1002001F0B6F838BD012001F0B2F838BD00BF7881FF1F014BC3E90A0170477881FF1F38B50D461E4B03EBC000002305E0C25C14
:40018000303A1C4941F823200133062BF7DD194C2068B0FA80F0400900F07AFC6068B0FA80F0400900F080FCA068B0FA80F0400900F086FCE068B0FA80F0400900F08CFC6E
:4001C0002069B0FA80F0400900F092FC6069B0FA80F0400900F098FCA069B0FA80F0400900F09EFCB5FA85F0400900F0A5FC38BDF81F00000C82FF1FF8B5B44B1B68002BDF
:4002000000F0888104460D460022002301F080FE002800F0AE80AD4BD3E90C232046294601F04EFE002840F021810022A84B2046294601F063FE50B94CE00022A54B204656
:40024000294601F0D5FB04460D46013600E000260022A14B2046294601F03CFE0028ECD12046294601F05EFE9C4981FB0031C217C2EBA111DFF86CE28EFB0137CB17C3EB1F
:40028000A70303EB8303A1EB4303904FBB63944B83FB0013C2EB63138EFB031CD917C1EBAC0101EB8101A3EB4101F9638EFB0013C2EBA3038EFB032EDA17C2EBAE0202EB4F
:4002C0008202A3EB42023A6403EB8303A0EB43037B643CE00022804B2046294601F088FB01F020FE7D4E86FB0036C317C3EBA6167C4A82FB0617F117C1EBA70101EB810195
:40030000A6EB4101714EB163754F87FB0017C3EB671782FB071EF917C1EBAE0101EB8101A7EB4101F16382FB0071C3EBA10382FB0321DA17C2EBA10202EB8202A3EB420286
:40034000326403EB8303A0EB430373640326002305E05E4A02EB8302002191640133032BF7DD5A4B03EB86060122B264C3E90C457CE0002200232046294601F0A1FD30B1F9
:40038000524B00229A63DA631A645A646EE00022554B2046294601F093FD48B14B4B0F229A631022DA6312221A6411225A645DE000224FF040432046294601F081FD48B175
:4003C000424B0D229A630C22DA630B221A640E225A644BE00022454B2046294601F070FD40B13A4B0A229A63DA631A645A640122DA643BE000223E4B2046294601F060FDCE
:4004000030B1324B0A229A63DA631A645A642DE02E4B0A229A63DA631A645A640022354B2046294601F04CFD10B10822274B9A630022314B2046294601F042FD10B10822FB
:40044000224BDA6300222D4B2046294601F038FD10B108221D4B1A640022294B2046294601F02EFD10B10822184B5A64174CA36D013303F00303A365012000F069FB01209B
:4004800000F072FB012000F07BFB012000F084FBA36DC3F1030204EB820204EB8303916C986BFFF765FEA36D1BB9002000F050FB2DE0012B03D1002000F056FB27E0022BDD
:4004C00020D1002000F05CFB21E000BF7881FF1F0000F03F0000244000408F40D34D62101F85EB51676666660000F0BF000008C0000010C0000014C0000018C000001CC051
:40050000000020C0032B02D1002000F045FB0022014B1A60F8BD00BF7881FF1F10B5054CD4E90401FFF704FED4E90A01FFF764FE10BD00BF7881FF1F38B562B600F06AFB2A
:4005400000F096FB00F0B6FD00F0B4FE00F038FF464800F051FB464800F07CFB454800F09BFD454800F098FE444800F01BFF00F0ADFB434800F09CFB00F0F4FE032000F072
:4005800039FD404800F0E0FE00F01CFC00F050FC00F0B4FC00F014FD00F056FD032000F001FE00F051FE00F09DFE00F0B9FD364800F0D0FDFFF7ACFD04460D4638E0FFF780
:4005C000A7FD22462B4601F05FF801F0ABFC18B900202E49FFF7C6FDFFF79AFD22462B4601F052F801F09EFC012803D100202849FFF7B8FDFFF78CFD22462B4601F044F893
:4006000001F090FC022803D100202249FFF7AAFDFFF77EFD22462B4601F036F801F082FC032803D100201C49FFF79CFDFFF776FFFFF76EFD22462B4601F026F80022174BF4
:4006400001F052FC0028BAD100F050FE144BD865042000F04BFE134B187000F0B7FE01F051F9FFF77FFDFFF759FFF6E78500000099000000AD000000C1000000D50000008D
:40068000E9000000F500000090200000000014C0000018C000001CC0000020C0000010407881FF1F2882FF1FFEE700BFF0B40022174611E050F82760F3B226F0FF0608E0E6
:4006C00001EB420511F812406D78A5550132013BDBB2002BF4D10137212FEBD9F0BC704710B41D4B1B78DBB203F007011B4A11701B09013213704122194B1A700122303314
:400700001A700C2203F22F731A70402203F5DA731A70202204331A7080210C33197004200733187002230F480370302408300470033001700C490A7090210C4A117004323D
:40074000137040F205120A4B1A804422A3F2CE231A7010BC704700BFCF0100496E5800400D510040885A0040945A0040D85A0040445B004008B50A46002101F032FC08BD96
:4007800038B501222F4B1A801C2202331A704FF49C7202331A8018232B4A137040F25721023211800232137045F6BF5227490A8002310B7002310A80254A13700222254B68
:4007C0001A7008224FF040231A70032103F500731970214B1B78DBB220490B70204B1A8041F25122023B1A80002419250CE01D4B1B7803F0010343EA440404F003044FF41C
:40080000F07000F0EDFD013D0DB1032CEFD115B90320FFF749FF144B4FF480721A8007221A70002211490A704820023108701A700222033B1A700E4A137843F01F03137049
:4008400038BD00BF80400040864000408C400040924000400043004008010049A146004022420040254200400440004006400040A243004008B501F0A9FB08BD38B572B6FE
:400880003C4A137843F00403137000240CE03A4D630019194A0011462A44084691882858FFF768FF0134E4B2052CF0D900240BE03149A3001819420088180622816A406A2A
:4008C000FFF7D8FF0134E4B2002CF1D02B494FF09040FFF7EBFE40F20332294B1A80294A137843F0020313701032137843F002031370254C237843F040032370A2F58632F7
:40090000513A137843F0100313700A221F492048FFF7B0FF0A221F491F48FFF7ABFF0A221E491F48FFF7A6FF0A221E491E48FFF7A1FF0A221D491E48FFF79CFF0A221D495D
:400940001D48FFF797FF1D4A137843F0080313701B4D61232B70FFF713FF81232B700122184B1A70FFF7BCFE0E2221461648FFF781FF38BDE84600409C20000088000048EB
:400980004E58004003500140A0430040E808004800510040F4080048C051004000090048F05100400C09004810510040180900482051004024090048305100402243004077
:4009C0000048004004000840B043004008B501F0D1FA03680C2B00D1FEE7FEE708B5104E104D16E029686B68AC68002204E051F8040B43F8040B0432A242F8D1E868002257
:400A000003E0002143F8041B04328242F9D11035013E002EE6D101F0B3FAFFF78DFDFEE7010000000821000008B5104A104B1A60104A136843F40073136000230AE0032BE5
:400A400003D80D4A52F8231000E00C490C4A42F8231001332F2BF2D90A4B1A780A4B1A70074A0A4B1A60FFF709FF08BD0004FA050CED00E014ED00E000000000CD0900003A
:400A80000080FF1FBC760040C080FF1F08ED00E0044A137803F0FB03800000F0040018431070704720510040044A137803F0FE0300F0010018431070704700BF20510040B2
:400AC000044A137803F0EF03000100F0100018431070704720510040044A137803F0BF03800100F0400018431070704720510040044A137803F07F03C001C0B21843107016
:400B0000704700BF20510040044A137803F0FD03400000F0020018431070704720510040044A137803F0F703C00000F0080018431070704720510040044A137803F0DF03DE
:400B4000400100F0200018431070704720510040044A137803F07F03C001C0B218431070704700BF10510040044A137803F0DF03400100F02000184310707047105100403C
:400B8000044A137803F0BF03800100F0400018431070704710510040044A137803F0EF03000100F010001843107070471051004008B5034B1B7A00FB03F000F011FC08BD81
:400BC000E080FF1F014B1B681864704708ED00E04001C0B2014B1870704700BF00E400E00122014B1A60704700E100E00122014B1A60704780E100E010B50446FFF7F6FFA3
:400C00002046FFF7DFFF0720FFF7E2FFFFF7E8FF10BD00BF0122014B1A60704780E200E0014B1B685864704708ED00E04001C0B2014B1870704700BF01E400E00222014BE8
:400C40001A60704700E100E00222014B1A60704780E100E010B50446FFF7F6FF2046FFF7DFFF0720FFF7E2FFFFF7E8FF10BD00BF0222014B1A60704780E200E0014B1B6853
:400C80009865704708ED00E04001C0B2014B1870704700BF06E400E04022014B1A60704700E100E04022014B1A60704780E100E010B50446FFF7F6FF2046FFF7DFFF0620CA
:400CC000FFF7E2FFFFF7E8FF10BD00BF4022014B1A60704780E200E0084A137843F0040313701032137843F00403137002F5A5521E32137843F0800313707047A94300408A
:400D0000044A137803F0FC0300F0030018431070704700BF0958004010B487B00446194B03AA1868596803C2197A11706A4653F80C0F596803C21B7A1370082C1ED812495A
:400D40000B7803F08003DBB20B70087806AB1C4414F80C3C14F8182C920002F00C02134303430B70094A137803F0F3031370117814F8183C0B4343F00C03137007B010BCCB
:400D8000704700BFCC2000000A5800400958004008B50C22084B1A70084A137843F0200313700022064B1A700420FFF7B5FF0120FFF7A6FF08BD00BF0858004009580040C4
:400DC0000A58004008B5054B1B7823B9FFF7E0FF0122024B1A70FFF77FFF08BDE881FF1F084A137843F060031370A2F5A652133A137843F0040313701032137843F0040325
:400E00001370704777580040054B1A7802F0FC021A701A7800F0030010431870704700BF5C58004008B50120FFF7EEFF08BD00BF08B5054B1B7823B90122034B1A70FFF791
:400E4000F1FFFFF7CDFF08BDE981FF1F054A137843F0080313701032137843F008031370704700BFA74300400F490B7803F0FC0200F0030313430B7001280AD10B4B1B782A
:400E8000DBB20B4A13700B4B1B78DBB2013213707047094B1B78DBB2054A1370074B1B78DBB201321370704743580040130100493646004017010049B3010049BB0100496E
:400EC00008B50120FFF7D0FF0B4B1A7842F020021A701A7802F0FB021A701A7842F008021A7003F527731A7802F0E7021A701A7842F010021A7008BD4358004008B5054B90
:400F00001B7823B9FFF7DCFF0122024B1A70FFF79DFF08BDEA81FF1F054A137843F0020313701032137843F002031370704700BFA8430040054B1A7802F0FD021A701A78EA
:400F400000F0020010431870704700BF24580040014B1870704700BF815B0040064B1B78C3F3810303F19243063393F83031DBB2024A1370704700BF2458004009460040E3
:400F800008B5064B1A7802F0F3021A701A7800F00C0010431870FFF7E1FF08BD2458004010B50024054B1C7001331C700420FFF7E7FF2046FFF7BEFF10BD00BF245800407A
:400FC00008B5074B1B7823B9FFF7EAFF0122044B1A70FFF7A1FFBB20FFF7BAFF08BD00BFEB81FF1F024A137803F07F03137070477B640040014B1870704700BF8C6400404B
:40100000014B188880B2704754680040024B1B78024B188880B270470A640040946800400922014B1A7070478D64004008B500F0DFF9044A137843F02003137000F0DCF95A
:4010400008BD00BF9D64004008B5054B1B7823B9FFF7E6FF0122024B1A70FFF7E7FF08BDEC81FF1F014B1B689864704708ED00E04001C0B2014B1870704700BF02E400E014
:401080000422014B1A60704700E100E00422014B1A60704780E100E010B50446FFF7F6FF2046FFF7DFFF0720FFF7E2FFFFF7E8FF10BD00BF0422014B1A60704780E200E068
:4010C0007222084B1A702022013B1A700622A3F25F131A70472210331A7000224F331A70704700BF8965004010B500F081F904460A4A137843F020031370013A137843F08C
:4011000010031370A2F58072137843F01003137000F032F8204600F06FF910BD9965004008B5054B1B7823B9FFF7CAFF0122024B1A70FFF7D9FF08BDED81FF1F034B1B7824
:4011400013F0040FFAD1024B18707047686400404864004038B5074B1B782BB938BDFFF7EDFF0134A4B201E005460024285D0028F5D138BDED81FF1F054A137843F002039C
:4011800013701032137843F002031370704700BFA2430040024A137843F08003137070477F640040014B1870704700BF8F640040014B1878704700BF6F640040014B1868F1
:4011C000704700BF2C640040014B1860704700BF2C640040014B1868704700BF4C640040014B1860704700BF0C640040024B1B78024B1868704700BF0C6400404C640040C0
:4012000008B501E0FFF7E6FFFFF7D2FF10F0080FF8D108BD08B54FF0FF30FFF7D5FF4FF0FF30FFF7DDFF00F0E3F8064A137843F01003137000F0E0F8FFF7E2FF0020FFF770
:40124000B1FF08BD9F64004008B5054B1B7823B9FFF7E0FF0122024B1A70FFF79BFF08BDEF81FF1F014B1B68D864704708ED00E04001C0B2014B1870704700BF03E400E02D
:401280000822014B1A60704700E100E00822014B1A60704780E100E010B50446FFF7F6FF2046FFF7DFFF0720FFF7E2FFFFF7E8FF10BD00BF0822014B1A60704780E200E05A
:4012C000044A137803F0F703C00000F008001843107070473051004008B500F0E7F800F0EFF808BD08B5FFF7F7FF08BD38B5044600F07EF8054600F00DF904F1804000F5FF
:4013000000400478E4B200F013F9284600F074F8204638BD014B1B685865704708ED00E04001C0B2014B1870704700BF05E400E02022014B1A60704700E100E02022014B4E
:401340001A60704780E100E010B50446FFF7F6FF2046FFF7DFFF0720FFF7E2FFFFF7E8FF10BD00BF2022014B1A60704780E200E0014B1B681865704708ED00E04001C0B2D4
:40138000014B1870704700BF04E400E01022014B1A60704700E100E01022014B1A60704780E100E010B50446FFF7F6FF2046FFF7DFFF0720FFF7E2FFFFF7E8FF10BD00BF20
:4013C0001022014B1A60704780E200E0024B1878C0F3C000704700BFF1510040000000000230800803D000BF01380046FCD17047EFF3108072B6704780F31088704700BF93
:4014000010B500F09DF800F0E5F810BB012000F0C3F8072818D102210F4800F0A3F802280AD102E00120FFF7C3FB0C4B1B7813F0020FF7D0002409E0084B1B7813F0020F59
:40144000E9D04FF0FF3401E04FF0FF3400F0E8F800E00424204610BD2C82FF1F2247004010B500F06DF800F0B5F8D0B900F0F4F80446072812D102E00120FFF799FB0A4B14
:401480001B7813F0020FF7D0074B1B7813F0020F04D0054B1B789B0800D1002400F0C0F800E00424204610BD2247004008B5FFF7D7FF034610B9FFF7A3FF0346184608BD4B
:4014C00008B5FFF795FF0F4A137843F0080313701032137843F008031370C8220A4B1A700A4A137843F0100313701032137843F010031370064B1B7813F0200FFAD0FFF795
:401500007BFF08BDA043004001470040AC43004000470040054A137843F001031370034B1B7813F0020FFAD0704700BF02470040024A137803F0FE0313707047024700402B
:4015400008B5FFF755FF064A137843F0080313701032137843F008031370FFF74DFF08BDA043004070B506460D4600240CE00120FFF71EFB064B1B7813F0010FF7D0054BFE
:401580001B7833550134E4B2AC42F3D3204670BD22470040204700400C4B1B7813F0020F0FD00B4BB6221A70E1221A700E221A7002331B7813F0020F05D1054B1870072021
:4015C0007047042070470920704700BF224700402047004010B5FFF70BFF0F4B1B78A3B901220D4B1A700D4B1B6813F0010F0ED00A4A136823F00103136000BF00BF00BFF5
:401600000122054B5A60002402E0042400E00024FFF7F2FE204610BDF081FF1F0400084008B5FFF7E5FE0A4B00221A705B68012B0AD1084A136843F00103136000BF00BF01
:4016400000BF0022024B5A60FFF7D6FE08BD00BFF081FF1F04000840074B1B7813F0020F08D0064BB6221A70E0221A700D221A700720704704207047224700402047004087
:4016800081F0004102E000BF83F0004330B54FEA41044FEA430594EA050F08BF90EA020F1FBF54EA000C55EA020C7FEA645C7FEA655C00F0E2804FEA5454D4EB5555B8BF7E
:4016C0006D420CDD2C4480EA020281EA030382EA000083EA010180EA020281EA0303362D88BF30BD11F0004F4FEA01314FF4801C4CEA113102D0404261EB410113F0004F6C
:401700004FEA03334CEA133302D0524263EB430394EA050F00F0A780A4F10104D5F1200E0DDB02FA0EFC22FA05F2801841F1000103FA0EF2801843FA05F359410EE0A5F1D9
:4017400020050EF1200E012A03FA0EFC28BF4CF0020C43FA05F3C01851EBE37101F0004507D54FF0000EDCF1000C7EEB00006EEB0101B1F5801F1BD3B1F5001F0CD34908F3
:401780005FEA30004FEA3C0C04F101044FEA445212F5800F80F09A80BCF1004F08BF5FEA500C50F1000041EB045141EA050130BD5FEA4C0C404141EB010111F4801FA4F175
:4017C0000104E9D191F0000F04BF01460020B1FA81F308BF2033A3F10B03B3F120020CDA0C3208DD02F1140CC2F10C0201FA0CF021FA02F10CE002F11402D8BFC2F1200C82
:4018000001FA02F120FA0CFCDCBF41EA0C019040E41AA2BF01EB0451294330BD6FEA04041F3C1CDA0C340EDC04F11404C4F1200220FA04F001FA02F340EA030021FA04F3FF
:4018400045EA030130BDC4F10C04C4F1200220FA02F001FA04F340EA0300294630BD21FA04F0294630BD94F0000F83F4801306BF81F480110134013D4EE77FEA645C18BFAA
:401880007FEA655C29D094EA050F08BF90EA020F05D054EA000C04BF1946104630BD91EA030F1EBF0021002030BD5FEA545C05D14000494128BF41F0004130BD14F5800499
:4018C0003CBF01F5801130BD01F0004545F0FE4141F470014FF0000030BD7FEA645C1ABF194610467FEA655C1CBF0B46024650EA013406BF52EA033591EA030F41F400211D
:4019000030BD00BF90F0000F04BF0021704730B54FF4806404F132044FF000054FF0000150E700BF90F0000F04BF0021704730B54FF4806404F1320410F0004548BF4042F1
:401940004FF000013EE700BF42004FEAE2014FEA31014FEA02701FBF12F07F4393F07F4F81F06051704792F0000F14BF93F07F4F704730B54FF4607401F0004521F0004113
:4019800020E700BF50EA010208BF704730B54FF000050AE050EA010208BF704730B511F0004502D5404261EB41014FF4806404F132045FEA915C3FF4DCAE4FF003025FEAF4
:4019C000DC0C18BF03325FEADC0C18BF033202EBDC02C2F1200300FA03FC20FA02F001FA03FE40EA0E0021FA02F11444C1E600BF70B54FF0FF0C4CF4E06C1CEA11541DBFCE
:401A00001CEA135594EA0C0F95EA0C0F00F0DEF82C4481EA030621EA4C5123EA4C5350EA013518BF52EA033541F4801143F4801338D0A0FB02CE4FF00005E1FB02E506F04C
:401A40000042E0FB03E54FF00006E1FB03569CF0000F18BF4EF0010EA4F1FF04B6F5007F64F5407404D25FEA4E0E6D4146EB060642EAC62141EA55514FEAC52040EA5E5019
:401A80004FEACE2EB4F1FD0C88BFBCF5E06F1ED8BEF1004F08BF5FEA500E50F1000041EB045170BD06F0004646EA010140EA020081EA0301B4EB5C04C2BFD4EB0C0541EA27
:401AC000045170BD41F480114FF0000E013C00F3AB8014F1360FDEBF002001F0004170BDC4F10004203C35DA0C341BDC04F11404C4F1200500FA05F320FA04F001FA05F25C
:401B000040EA020001F0004221F0004110EBD37021FA04F642EB06015EEA430E08BF20EAD37070BDC4F10C04C4F1200500FA04F320FA05F001FA04F240EA020001F00041A5
:401B400010EBD37041F100015EEA430E08BF20EAD37070BDC4F1200500FA05F24EEA020E20FA04F301FA05F243EA020321FA04F001F0004121FA04F220EA020000EBD37046
:401B80005EEA430E08BF20EAD37070BD94F0000F0FD101F00046400041EB010111F4801F08BF013CF7D041EA060195F0000F18BF704703F00046520043EB030313F4801F0B
:401BC00008BF013DF7D043EA0603704794EA0C0F0CEA135518BF95EA0C0F0CD050EA410618BF52EA4306D1D181EA030101F000414FF0000070BD50EA410606BF1046194661
:401C000052EA430619D094EA0C0F02D150EA013613D195EA0C0F05D152EA03361CBF104619460AD181EA030101F0004141F0FE4141F470014FF0000070BD41F0FE4141F45D
:401C4000780170BD70B54FF0FF0C4CF4E06C1CEA11541DBF1CEA135594EA0C0F95EA0C0F00F0A7F8A4EB050481EA030E52EA03354FEA013100F088804FEA03334FF08055DE
:401C800045EA131343EA12634FEA022245EA111545EA10654FEA00260EF000419D4208BF964244F1FD0404F5407402D25B084FEA3202B61A65EB03055B084FEA32024FF4F9
:401CC00080104FF4002CB6EB020E75EB030E22BFB61A754640EA0C005B084FEA3202B6EB020E75EB030E22BFB61A754640EA5C005B084FEA3202B6EB020E75EB030E22BF6A
:401D0000B61A754640EA9C005B084FEA3202B6EB020E75EB030E22BFB61A754640EADC0055EA060E18D04FEA051545EA16754FEA06164FEAC30343EA52734FEAC2025FEA1A
:401D40001C1CC0D111F4801F0BD141EA00014FF000004FF0004CB6E711F4801F04BF01430020B4F1FD0C88BFBCF5E06F3FF6AFAEB5EB030C04BFB6EB020C5FEA500C50F12E
:401D8000000041EB045170BD0EF0004E4EEA113114EB5C04C2BFD4EB0C0541EA045170BD41F480114FF0000E013C90E645EA060E8DE60CEA135594EA0C0F08BF95EA0C0F7E
:401DC0003FF43BAF94EA0C0F0AD150EA01347FF434AF95EA0C0F7FF425AF104619462CE795EA0C0F06D152EA03353FF4FDAE1046194622E750EA410618BF52EA43067FF413
:401E0000C5AE50EA41047FF40DAF52EA43057FF4EBAE12E74FF0FF3C06E000BF4FF0010C02E000BF4FF0010C4DF804CD4FEA410C7FEA6C5C4FEA430C18BF7FEA6C5C1BD058
:401E400001B050EA410C0CBF52EA430C91EA030F02BF90EA020F0020704710F1000F91EA030F58BF994208BF90422CBFD8176FEAE37040F0010070474FEA410C7FEA6C5CD7
:401E800002D150EA013C07D14FEA430C7FEA6C5CD6D152EA033CD3D05DF8040B704700BF8446104662468C461946634600E000BF01B5FFF7B7FF002848BF10F1000F01BD08
:401EC0004DF808EDFFF7F4FF0CBF012000205DF808FB00BF4DF808EDFFF7EAFF34BF012000205DF808FB00BF4DF808EDFFF7E0FF94BF012000205DF808FB00BF4DF808ED44
:401F0000FFF7CEFF94BF012000205DF808FB00BF4DF808EDFFF7C4FF34BF012000205DF808FB00BF4FEA410212F5001215D211D56FF47873B3EB625212D94FEAC12343F0B8
:401F4000004343EA505311F0004F23FA02F018BF404270474FF00000704750EA013005D111F0004008BF6FF0004070474FF00000704700BF014B1868704700BF5081FF1F64
:401F80000E4B70B51E460E4C0025E41AA410A54204D056F8253098470135F8E700F0A2F8084B094C1E46E41AA4100025A54204D056F8253098470135F8E770BDF0200000C0
:401FC000F0200000F0200000F820000010B5431E0A44914204D011F8014B03F8014FF8E710BD03460244934202D003F8011BFAE77047000000000000313131313131300007
:4020000030313130303030003131303131303100313131313030310030313130303131003130313130313100313031313131310031313130303030003131313131313100FB
:4020400031313131303131003030303030303000303030313130310030303130313031003030313030303000303031303131310031303031313130003130303131313100C6
:402080003030303131313100313131303131300053746172742055415254000040510040300000000140001000140140000800400140000A004C0140000200500140200093
:4020C00060520040E008004806000000011121314161536373000000080901010507070404430000F8B500BFF8BC08BC9E4670474D000000290A0000F8B500BFF8BC08BC35
:402100009E4670472900000018210000C880FF1F90000000D80000000000000001000000010000000100000001000000010000000000E02EC05D00001800000000366E01E7
:402140000000000000000000000000000000000000000000000000000000000000000000E1200000000000000000000000000000000000000000000000000000000000005E
:402180000000000000000000000000000000000000000000000000000000000000000000F080FF1F0000000000000000000000000000000000000000000000000000000091
:4021C00000000000000000000000000000000000000000000000000000000000000000000000000000000000000000000000000000000000000000000000000000000000DF
:40220000000000000000000000000000000000000000000000000000000000000000000000000000000000000000000000000000000000000000000000000000000000009E
:40224000000000000000000000000000000000000000000000000000000000000000000000000000000000000000000000000000000000000000000000000000000000005E
:40228000000000000000000000000000000000000000000000000000000000000000000000000000000000000000000000000000000000000000000000000000000000001E
:020000040003F7
:0200000480007A
:40000000055200400464004002650040030301400405014005070140590801403E090140590A0140480B0140540C01403D0D01404E0E01402B0F0140071501402C16014076
:40004000241701404A18014034190140451A0140411B014006400140114101400B4201400C4301400444014003450140024701401348014018490140044C0140094D01405C
:4000800006500140025101400904188219407804790C880F8C0F8D7F8F0D883889728C40E243E4408C049440E210E60480108A029448E420EC01040A060407010C030E0CF8
:4000C000110112081605170118031A041D022003210122042B0131013502360F3A803F114016410445EC470B481349FF4AFF4BFF4EF04F44500C5401580459045A045B04AE
:400100005C015D115F0166C06A406B02842C86038C318D098E0E8F10920C930395149C319D109E069F0CA110A208A51CA702AA13AD0CAF11B11FB20FB430B820BA08BE1012
:40014000C002C540C9FFCA07CBFFCC40CD20CEF0CF05D008D804D904DA04DC11DD01DF01E040E1A8E240E3200080010803030548082009800AC00B440C080E400F0410882F
:400180001701180419081B081DC01F802201278829092B022C082F80318832013508368037013B403F04400445804701488049014C084D014E804F04500855085C205D01AD
:4001C0005F88928096209D01A040A408A580A708AA20C0A5C279C41ACAABCCDBCE48D094D220D6F003030A010C010F0617011C011F052302280229062B01300331073802E1
:400200003B0240614104420349FF4AFF4BFF4F015018580459045A045C115F016040624064406540668068806A806C806E80841B871789018A1C8B028C0A8D078F08900374
:4002400092049304961B971899029A1B9B01A609A717A917AA13B31FB41FBA20BB08C035C101C206C5ECC602C807C9FFCAFFCBFFCD83CE03CF01D018D283D804D904DA04F2
:40028000DB04DF01E040E240E440E540E680E880EA80EC80EE8000800308051006200701080409800A200B200C040E481008171418401A801D102080210126082710290111
:4002C0002B082E202F1430083180351036083701385039023B103D083E5040104240438045444A044D014F94548057C06C046E106F05774082029010924093089408950151
:40030000962097049A029D109F51A144A204A480A620A801AA10C0E3C271C462CA65CCEACE79D05BD234020F0403060C08030A0C100F11041308150816101705180F1E10B4
:400340002005220A260F28052A0A2F023010320F330C350237013E01404249FF4AFF4BFF4F01501854035604580459045A045B045C405D045F0560406240644065406680E9
:4003800068806A806C806E809001960298029B01A602B202B501B601BE44C042C9FFCAFFCBFFCD83CE03CF01D018D602D720D804D904DA04DB04DD24DE08DF01E040E240E3
:4003C000E440E540E680E880EA80EC80EE80040A051009220A200B080C800D200E50110812101610171118111C401E202120250827062D8032103706408042084480464C8D
:400400005C405D015E205F04600166026DC06E40710279407D80830485088D80921096409A449F40A104A204A480A502A620A920B404C070C2FEC474CA10CCC4D0A5D6F094
:40044000D888DE18E440E8040601100111011B013401350139203E103F10405349FF4AFF4BFF4D834E034F015018580459045A045D045F01604062406440654066806880F7
:400480006A806C806E8082088507860189028A028C038D07960199019A049E019F07A104A204B004B208B307B403BE01C042C5ECC702C813C9FFCAFFCBFFCD83CE03CF0101
:4004C000D018D280D401D804D904DA04DB04DD44DF01E040E240E440E540E680E880EA80EC80EE80022004400510076009020C800E100F08164018081D101E94212025046C
:40050000260427202C803102322037603C403E544308464448024D044F015604570C5D045E805F0174027640C0F4C2E8C410CA80CC35CE70D0A2D208D6D08340A740AB200A
:40054000AD02B108B502EE200102020403010B041201250127022A0230023104320133033404580459045C445F0180208102821083018E019101920293029408960497048F
:40058000A004A208A308A810AA20B001B103B230B308B40CB602B704D804D904DC44DF01010202020740090A0F8012881404182819021A021D0A1F192040228825012760A3
:4005C00029022F10320133083B023D023F108340840493109468A202AF10C019C21CC44ACA41CC03CEA1E6040204057309730A0115421601171919101A041B641E02200268
:40060000260228022D212F1A310C3204337034023503360138203E443F01402641044203440145E046C0480A49FF4AFF4BFF4C624DA04EF04F41500C5418580459045A0427
:400640005B045C115D115F016640670269106A306B106D106E106F1284018501880189018C0191019401B001B301BE01D602D713D804D904DB04DC10DD10DF010058020460
:400680000502070409080E080F2214801508160419011D401E081F04220827682D803002372839143E144480460447444D024E08571059015E0265406708680269146A14D7
:4006C00070307202731482108A4892029620C057C2E4C470CA10CC61CE66D0F0D220D681D830E6040120020104070530080109100A060C060D080E010F011406150E16015A
:4007000017301B081C0823062402253827042806293E2C042D382F023007333E340835013A023B083E10580459045C115F018104823384338502860C883F89068C118D06FC
:400740008F01940C950798049C0F9E30A00CA233A422A507A833A901AB06AC08AF01B20FB507B630BA28D804D904DC11DF0100580240059506C009080A020F1610211204BD
:400780001310140115011602172818441B011C181D141E021F18210C2218270429192B012E802F18321033083508360838203A063B803C403E023F14800485018608898070
:4007C0008B40902092029314945095089A429B289D809F04A020A404A508A601A701B084C0FFC2E5C4F7CA7FCC46CEFFE004E8403101321037843810CCF0CE10020106203C
:4008000007010B8033803580800187808E11941096209D019F84C0E0C210CC30E2C083848C109001938094109A209B019D819F04A780E62081018B01900193809A209B0134
:400840009D819F44A304AB40E220EC8070027740DC01DE04A802B740E8080320C0082740500451025F8080048108862090019A209D809F44A304AF40C880D4A0D620E010F0
:40088000E6A0E8100A40198056405D086001630A66407B018240900199089D80A304AB04AF80B102C210C640D440D6C0D840DC80E020EAC053018320A320D40111017220D0
:4008C00082208901B701C408DC01E601E80200170C030E1510121A101C0200FF013F000020800000400000001E00001E00000000C0000000810040B1B100B10000000000F8
:400900000E00000E0E000E0000000000F40000FFFF00040000000000FF0000FFFF00000000000000180000FAEA00E2000100000000000000000000000000000000000000AD
:400940000000000000000000000000000000000000000000000000000000000000000000000000000000000000000000000000000000000000000000000000000000000077
:400980000000000000000000000000000000000000000000000000000000000000000000000000000000000000000000000000000000000000000000000000000000000037
:4009C00000000000000000000000000000000000000000000000000000000000000000000000000000000000000000000000000000000000000000000000000000000000F7
:400A000000000000000000000000000000000000000000000000000000000000000000000000000000000000000000000000000000000000000000000000000000000000B6
:0200000490006A
:0400000000004005B7
:0200000490105A
:04000000BC90ACAF55
:0200000490303A
:02000000561890
:0200000490402A
:4000000000000000000000000000000000000000000000000000000000000000000000000000000000000000000000000000000000000000000000000000000000000000C0
:400040000000000000000000000000000000000000000000000000000000000000000000000000000000000000000000000000000000000000000000000000000000000080
:400080000000000000000000000000000000000000000000000000000000000000000000000000000000000000000000000000000000000000000000000000000000000040
:4000C0000000000000000000000000000000000000000000000000000000000000000000000000000000000000000000000000000000000000000000000000000000000000
:0200000490501A
:0C00000000012E16106900012E256681FB
:00000001FF