:400000000080002011000000CD0F0000CD0F000008B5044B1A6803F53F5302331A6000F0DDFF00BFFA46004010B5054C237833B9044B13B10448AFF300800123237010BDE3
:400040004081FF1F00000000BC2C0000084B10B51BB108490848AFF300800848036803B910BD074B002BFBD0BDE81040184700BF000000004481FF1FBC2C0000C880FF1F42
:400080000000000000680B68C01A70470122014B1A6070476081FF1F10B501F07DFA01F08FFA044601F0A4FA201A024B586000229A6010BD6081FF1F08B5002001F0D2F8F6
:4000C000012001F0C3F808BD08B5002001F0BEF8012001F0C7F808BD10B501F087FB044601F09CFB201A01F0A3FF0022014B02F03FF910BD00408F4030B583B00546019114
:40010000002407E0291989B201AB185D01F0D8FB0134E4B2032CF5D903B030BD38B504460D46FFF7D9FF034BC3E90401C3E9064538BD00BF6081FF1F38B504460D46FFF769
:40014000CBFF094BD3E9042301F034FE22462B4602F056FA18B1002001F09CFB38BD012001F098FB38BD00BF6081FF1F0000000010B501F049FC184801F038FC012001F0F0
:40018000A7FA962001F02AF8002001F0A1FA01F06FFA124C0123A360FFF79EFFFFF79CFF0A2001F005F8606801F052FF08A3D3E9002302F0DDF80022094B01F0AFFF00227C
:4001C000084B01F0ABFFC4E9080110BDAFF30080000000000088C340990000006081FF1F000041400000E03F70B505460C462D4B042202F02CFC14F0010F23D104EBD474F0
:40020000641004F18043023B04F18042013A55F8221055F8230002F099FA55F8241002F095FA631C55F8231002F090FA023455F8241002F08BFA01F01DFF00221A4B02F0BE
:4002400097F82BE0661E06EBD676761006F18043023B06F18042013A55F8221055F8230002F074FA55F8261002F070FA013404EBD474641055F8241002F068FA631C55F803
:40028000231002F063FA023455F8241002F05EFA01F0F0FE0022054B02F06AF802F000FA70BD00BF85000000000014400000184070B59EB02822002114A802F086FB50228E
:4002C0000021684602F081FB00261CE01C4BD3E90601FFF731FFFFF74BFF1EAB03EB840502F0DEF945F8280C013400E00024092CECDD0A2114A8FFF777FF1EAB03EB8603CB
:4003000043F8780C0136132EF0DD14216846FFF76BFF01F0AFFE06A3D3E9002301F0FEFE05A3D3E9002301F045FD1EB070BD00BF000000403789E93F000000E07C3FE93F04
:400340006081FF1F014BC3E90A0170476081FF1F08B5012000F0FCFE012000F005FF012000F00EFF012000F017FF08BD38B50D461E4B03EBC000002305E0C25C303A1C4992
:4003800041F823200133062BF7DD194C2068B0FA80F0400900F07CFE6068B0FA80F0400900F082FEA068B0FA80F0400900F088FEE068B0FA80F0400900F08EFE2069B0FAF8
:4003C00080F0400900F094FE6069B0FA80F0400900F09AFEA069B0FA80F0400900F0A0FEB5FA85F0400900F0A7FE38BDC02C0000F881FF1FF8B5B54B1B68002B00F0968138
:4004000004460D46002305E0B04A02EB8302002111630133032BF7DD002200232046294602F00CF9002800F0AE80A84BD3E910232046294602F0DAF8002840F023810022F0
:40044000A34B2046294602F0EFF850B94CE00022A04B2046294601F061FE04460D46013600E0002600229C4B2046294602F0C8F80028ECD12046294602F0EAF8974F87FB19
:400480000037C317C3EBA717954A82FB071EF917C1EBAE0101EB8101A7EB41018B4FB964904981FB001EC3EB6E1E82FB0E1C4FEAEE71C1EBAC0101EB8101AEEB4101F964AF
:4004C00082FB00E1C3EBA10382FB0321DA17C2EBA10202EB8202A3EB42023A6503EB8303A0EB43037B653CE000227B4B2046294601F014FE02F0ACF8784E86FB0036C3179A
:40050000C3EBA616764A82FB0617F117C1EBA70101EB8101A6EB41016C4EB164714F87FB0017C3EB671782FB071EF917C1EBAE0101EB8101A7EB4101F16482FB0071C3EBC6
:40054000A10382FB0321DA17C2EBA10202EB8202A3EB4202326503EB8303A0EB430373650326002305E0594A02EB8302002111630133032BF7DD554B03EB8606012232631B
:40058000C3E910457EE0002200232046294602F02DF840B14D4B00229A64DA641A655A6501221A636EE000224F4B2046294602F01DF848B1454B0F229A641022DA641222A4
:4005C0001A6511225A655DE000224FF040432046294602F00BF848B13C4B0D229A640C22DA640B221A650E225A654BE000223F4B2046294601F0FAFF40B1344B0A229A64BB
:40060000DA641A655A6501225A633BE00022384B2046294601F0EAFF30B12C4B0A229A64DA641A655A652DE0284B0A229A64DA641A655A6500222F4B2046294601F0D6FF94
:4006400010B10822214B9A6400222B4B2046294601F0CCFF10B108221C4BDA640022274B2046294601F0C2FF10B10822174B1A650022234B2046294601F0B8FF10B108228D
:40068000124B5A65114CA36D013303F00303A365012000F05DFD012000F066FD012000F06FFD012000F078FDA36DC3F1030204EB820204EB8303116B986CFFF757FEA36D0E
:4006C00003BB002000F044FD2DE000BF6081FF1F0000F03F0000244000408F40D34D6210676666661F85EB510000F0BF000008C0000010C0000014C0000018C000001CC0A4
:40070000000020C0012B03D1002000F02DFD0AE0022B03D1002000F033FD04E0032B02D1002000F039FD0022014B1A60F8BD00BF6081FF1F10B5094CD4E90601FFF7FCFC22
:40074000D4E90A01FFF756FE054B1B78692B02D1FFF7BAFC10BDFFF7AFFC10BD6081FF1F1482FF1F00000000F8B5FFF7B5FC06460F467FE0FFF7B0FC32463B4601F01AFB8E
:4007800004460D460022404B01F044FF20B100203E49FFF7D7FD17E000223B4B2046294601F04CFF60B100224FF080432046294601F030FF20B100203549FFF7C3FD03E097
:4007C000FFF78AFC06460F4601F034F918B101F021F900284CD1FFF77FFC04460D4601E0FFF7A8FFFFF778FC22462B4601F0E2FA23A3D3E9002301F003FF0028F0D101F097
:4008000019F958BB01F006F940BB1DA1D1E90001FFF784FCFFF760FC04460D4616E0FFF789FFFFF759FC22462B4601F0C3FA0022154B01F0DBFE48B1164800F0A3FF05202A
:4008400000F0B6FC0122144BDA6511E001F0F2F870B901F0DFF80028E1D009E001F0EAF830B901F0D7F8012802D103220A4BDA65FFF760FF084BDB6D002B3FF47BAFF8BD38
:400880009A9999999999C93F0000F03F000008C0000010C0582D00006081FF1F0000000070B5012643E006B323A1D1E90001FFF735FCFFF7FDFC244BC3E90801FFF70CFC6F
:4008C00004460D46FFF744FD204B1B78692B0BD11D4E1BA3D3E90023D6E9080101F048FDC6E90801002600E00026174BD3E90801FFF728FDFFF71EFFFFF7EEFB22462B46BF
:4009000001F058FA00224FF0804301F08DFE70B101F090F840B9FFF71BFD07A1D1E90001FFF7FCFB012602E00022074BDA65064BDB6D032BB7D070BD9A9999999999C93F0D
:4009400052B81E85EB5104406081FF1F1482FF1F08B501E0FFF7EEFE01F064F80028F9D001F068F80028F5D001F054F80028F1D008BD00BF00000000F8B50026002755E0C2
:40098000FFF7D8FEFFF7A8FB32463B4601F012FA04460D4600222A4B01F03CFE30B1294B186E01F055FBFFF7CDFC16E00022244B2046294601F042FE58B10022224B204617
:4009C000294601F027FE20B100202049FFF7BAFC03E0FFF781FB06460F4601F023F848B9FFF7B6FF14A1D1E90001FFF797FB0222144BDA6501F01EF850B9FFF7A9FF0EA1A7
:400A0000D1E90001FFF78AFB0E4A136E0133136601F000F850B9FFF79BFF07A1D1E90001FFF77CFB074A136E013B1366054BDB6D012BA5D0F8BD00BF9A9999999999C93FD5
:400A40000000F03F6081FF1F0000F83F000010C008B53DE0FFF76EFE254B1B78632B03D100202449FFF76EFC214B1B78692B04D100204FF04041FFF765FC00F0D3FF48B951
:400A8000FFF766FF18A1D1E90001FFF747FB0022194BDA6500F0CEFF58B9FFF759FF12A1D1E90001FFF73AFBFFF706FB6322104B1A7000F0AFFF58B9FFF74AFF0AA1D1E901
:400AC0000001FFF72BFBFFF7FFFA6922084B1A70094BDB6D022BBDD00421054B187800F0EFFE08BDAFF300809A9999999999C93F1482FF1F0000F0BF6081FF1F38B562B65D
:400B000000F09EFB5E4800F08DFB00F07DFF032000F04AFD5B4800F069FF00F025FC00F059FC00F0BDFC00F01DFD00F0C3FD032000F050FE00F0A0FE00F0BEFE00F0FEFD0E
:400B4000514800F01FFE052000F032FB202000F003FE052000F02CFBFFF7BEFA04460D4638E0FFF7B9FA22462B4601F023F901F06FFD18B900204549FFF7E4FBFFF7ACFAE1
:400B800022462B4601F016F901F062FD012803D100203F49FFF7D6FBFFF79EFA22462B4601F008F901F054FD022803D100203949FFF7C8FBFFF790FA22462B4601F0FAF870
:400BC00001F046FD032803D100203349FFF7BAFBFFF7B0FDFFF780FA22462B4601F0EAF800222E4B01F016FD0028BAD100F0D0FE2B4B1866042000F0CBFE2A4B1870FFF7E8
:400C00006BFA274BDB6D63B9274800F0BBFD052000F0CEFA0421234B187800F051FEFFF7A3FD1F4BDB6D012B07D1204800F0AAFD052000F0BDFAFFF79FFE194BDB6D022BA0
:400C40000CD11B4800F09EFD052000F0B1FA144B196E0020FFF750FAFFF7FAFE104BDB6D032B07D1134800F08DFD052000F0A0FAFFF716FE052000F09BFAFFF75BFDC0E7DF
:400C80008D00000099000000682D0000000014C0000018C000001CC0000020C0000010406081FF1F1482FF1F742D00007C2D0000842D00008C2D0000FEE700BFF0B40022F0
:400CC000174611E050F82760F3B226F0FF0608E001EB420511F812406D78A5550132013BDBB2002BF4D10137202FEBD9F0BC704710B41D4B1B78DBB203F007011B4A1170FB
:400D00001B09013213704122194B1A70012230331A700C2203F22F731A70402203F5DA731A70202204331A7080210C33197004200733187002230F480370302408300470B7
:400D4000033001700C490A7090210C4A11700432137040F205120A4B1A804422A3F2CE231A7010BC704700BFCF0100496E5800400D510040885A0040945A0040D85A004050
:400D8000445B004008B50A46002101F01EFE08BD38B501222D4B1A801C2202331A704FF49C7202331A801823294A137040F25721023211800232137045F6BF5102321180AE
:400DC000023213700222234B1A7008224FF040231A70032103F5007319701F4B1B78DBB21E490B701E4B1A8041F25122023B1A80002419250CE01B4B1B7803F0010343EA5B
:400E0000440404F003044FF4F07000F01DFE013D0DB1032CEFD115B90320FFF74DFF124B4FF480721A8007221A7000220F490A704820023108701A700222033B1A700C4AF1
:400E4000137843F00F03137038BD00BF80400040864000400043004008010049A146004022420040254200400440004006400040A243004008B501F09DFD08BD38B572B6CD
:400E80003C4A137843F00403137000240CE03A4D630019194A0011462A44084691882858FFF770FF0134E4B2052CF0D900240BE03149A3001819420088180622816A406A1C
:400EC000FFF7D8FF0134E4B2002CF1D02B494FF09040FFF7F3FE40F20332294B1A80294A137843F0020313701032137843F002031370254C237843F040032370A2F58632E9
:400F0000513A137843F0100313700A221F492048FFF7B0FF0A221F491F48FFF7ABFF0A221E491F48FFF7A6FF0A221E491E48FFF7A1FF0A221D491E48FFF79CFF0A221D4957
:400F40001D48FFF797FF1D4A137843F0080313701B4D61232B70FFF71BFF81232B700122184B1A70FFF7C4FE0E2221461648FFF781FF38BDE8460040942D000084000048D4
:400F80004E58004003500140A0430040040800480051004010080048C05100401C080048F051004028080048105100403408004820510040400800483051004022430040CD
:400FC0000048004004000840B043004008B501F0C5FC03680C2B00D1FEE7FEE708B5104E104D16E029686B68AC68002204E051F8040B43F8040B0432A242F8D1E86800225B
:4010000003E0002143F8041B04328242F9D11035013E002EE6D101F0A7FCFFF76FFDFEE701000000002E000008B5104A104B1A60104A136843F40073136000230AE0032B02
:4010400003D80D4A52F8231000E00C490C4A42F8231001332F2BF2D90A4B1A780A4B1A70074A0A4B1A60FFF709FF08BD0004FA050CED00E014ED00E000000000CD0F00002E
:401080000080FF1FBC760040C080FF1F08ED00E0044A137803F0FB03800000F0040018431070704720510040044A137803F0FE0300F0010018431070704700BF20510040AC
:4010C000044A137803F0EF03000100F0100018431070704720510040044A137803F0BF03800100F0400018431070704720510040044A137803F07F03C001C0B21843107010
:40110000704700BF20510040044A137803F0FD03400000F0020018431070704720510040044A137803F0F703C00000F0080018431070704720510040044A137803F0DF03D8
:40114000400100F0200018431070704720510040044A137803F07F03C001C0B218431070704700BF10510040044A137803F0DF03400100F020001843107070471051004036
:40118000044A137803F0BF03800100F0400018431070704710510040044A137803F0EF03000100F010001843107070471051004010B5044605E0084B186800F045FCA4F53A
:4011C0000044B4F5004FF6D8034B586800FB04F000F03AFC10BD00BFCC80FF1F08B5034B1B7A00FB03F000F02FFC08BDCC80FF1F014B1B685864704708ED00E04001C0B22A
:40120000014B1870704700BF01E400E00222014B1A60704700E100E00222014B1A60704780E100E010B50446FFF7F6FF2046FFF7DFFF0620FFF7E2FFFFF7E8FF10BD00BFC1
:401240000222014B1A60704780E200E0044A137803F0DF03400100F0200018431070704730510040044A137803F0BF03800100F0400018431070704730510040084A1378CA
:4012800043F0040313701032137843F00403137002F5A5521E32137843F0800313707047A9430040044A137803F0FC0300F0030018431070704700BF0958004010B487B057
:4012C0000446194B03AA1868596803C2197A11706A4653F80C0F596803C21B7A1370082C1ED812490B7803F08003DBB20B70087806AB1C4414F80C3C14F8182C920002F086
:401300000C02134303430B70094A137803F0F3031370117814F8183C0B4343F00C03137007B010BC704700BFC42D00000A5800400958004008B50C22084B1A70084A137870
:4013400043F0200313700022064B1A700420FFF7B5FF0120FFF7A6FF08BD00BF08580040095800400A58004008B5054B1B7823B9FFF7E0FF0122024B1A70FFF77FFF08BD22
:40138000D081FF1F084A137843F060031370A2F5A652133A137843F0040313701032137843F004031370704777580040054B1A7802F0FC021A701A7800F003001043187098
:4013C000704700BF5C58004008B50120FFF7EEFF08BD00BF08B5054B1B7823B90122034B1A70FFF7F1FFFFF7CDFF08BDD181FF1F054A137843F0080313701032137843F04F
:4014000008031370704700BFA74300400F490B7803F0FC0200F0030313430B7001280AD10B4B1B78DBB20B4A13700B4B1B78DBB2013213707047094B1B78DBB2054A137070
:40144000074B1B78DBB201321370704743580040130100493646004017010049B3010049BB01004908B50120FFF7D0FF0B4B1A7842F020021A701A7802F0FB021A701A7830
:4014800042F008021A7003F527731A7802F0E7021A701A7842F010021A7008BD4358004008B5054B1B7823B9FFF7DCFF0122024B1A70FFF79DFF08BDD281FF1F054A1378F4
:4014C00043F0020313701032137843F002031370704700BFA8430040054B1A7802F0FD021A701A7800F0020010431870704700BF24580040014B1870704700BF815B0040B4
:40150000064B1B78C3F3810303F19243063393F83031DBB2024A1370704700BF245800400946004008B5064B1A7802F0F3021A701A7800F00C0010431870FFF7E1FF08BD6D
:401540002458004010B50024054B1C7001331C700420FFF7E7FF2046FFF7BEFF10BD00BF2458004008B5074B1B7823B9FFF7EAFF0122044B1A70FFF7A1FFBB20FFF7BAFF50
:4015800008BD00BFD381FF1F024A137843F080031370704775640040024A137803F07F031370704775640040014B1870704700BF85640040014B1878704700BF65640040E8
:4015C000014B188880B2704748680040014B1880704700BF48680040014B188880B2704788680040014B1880704700BF08680040024B1B78024B188880B27047046400406F
:401600008868004000F00300044B1A7802F0FC021A701A7810431870704700BF7564004008B501E0FFF7D8FFFFF7C4FF10F0080FF8D108BD08B54CF24F30FFF7C7FF4CF2F3
:401640004F30FFF7CFFF00F007FA084A137843F01003137000F004FA0020FFF7D3FFFFF7DFFF0720FFF7A0FF08BD00BF9564004008B5054B1B7823B9FFF7DCFF0122024BB0
:401680001A70FFF781FF08BDD481FF1F0922014B1A7070478364004008B500F0DDF9044A137843F02003137000F0DAF908BD00BF9364004008B5054B1B7823B9FFF7E6FF09
:4016C0000122024B1A70FFF7E7FF08BDD581FF1F014B1870704700BF726400407222084B1A702022A3F580731A700622603B1A70472210331A70002251331A70704700BF8A
:401700008865004010B500F0A7F904460A4A137843F020031370A2F58072137843F0100313700132137843F01003137000F03CF8204600F095F910BD9865004008B5054BA2
:401740001B7823B9FFF7CAFF0122024B1A70FFF7D9FF08BDD681FF1F024B1B780BB1024B18707047D681FF1F49640040034B1B7813F0040FFAD1024B187070476964004054
:401780004964004038B5074B1B782BB938BDFFF7EDFF0134A4B201E005460024285D0028F5D138BDD681FF1F054A137843F0020313701032137843F002031370704700BF64
:4017C000A2430040024A137843F080031370704774650040014B1870704700BF87650040014B1878704700BF67650040014B1868704700BF24650040014B1860704700BFCB
:4018000024650040014B1868704700BF44650040014B1860704700BF04650040024B1B78024B1868704700BF046500404465004008B501E0FFF7E6FFFFF7D2FF10F0080FC5
:40184000F8D108BD08B54FF0FF30FFF7D5FF4FF0FF30FFF7DDFF00F0FFF8064A137843F01003137000F0FCF8FFF7E2FF0020FFF7B1FF08BD9765004008B5054B1B7823B91C
:40188000FFF7E0FF0122024B1A70FFF79BFF08BDD881FF1F044A137803F0F703C00000F008001843107070473051004008B500F031F900F039F908BD08B5FFF7F7FF08BD90
:4018C00030B583B00C468DF8070000F06DF9B4F5006F52D22509A4EB0514A4B200F010FA00284CD101230DF107022146402000F087F9044607282FD1234B1B7813F0020F05
:40190000FAD0214B1B7813F0020F06D01E4B1B789B0805D04FF0FF3403E04FF0FF3400E00024E4B9194A537812782946402000F0A3F9072816D1144B1B7813F0020FFAD01F
:40194000114B1B7813F0020F0FD00F4B1B789B0810D04FF0FF340DE0012809D10AE04FF0FF3407E04FF0FF3404E04FF0FF3401E04FF0FF3400F0EAF902E0012400E0042473
:40198000204603B030BD00BF224700401882FF1F38B5044600F060F8054600F0EFF804F1804000F500400478E4B200F0F5F8284600F056F8204638BD014B1B68186470477E
:4019C00008ED00E04001C0B2014B1870704700BF00E400E00122014B1A60704700E100E00122014B1A60704780E100E010B50446FFF7F6FF2046FFF7DFFF0720FFF7E2FFDD
:401A0000FFF7E8FF10BD00BF0122014B1A60704780E200E0024B1878C0F38000704700BF11510040024B1878C0F3C000704700BFF1510040024B1878C0F34010704700BF95
:401A400001510040000000000230800803D000BF01380046FCD17047EFF3108072B6704780F31088704700BF10B500F09DF800F047F910BB012000F025F9072818D1022104
:401A80000F4800F0A3F802280AD102E00120FFF7A5FB0C4B1B7813F0020FF7D0002409E0084B1B7813F0020FE9D04FF0FF3401E04FF0FF3400F04AF900E00424204610BDEE
:401AC0001882FF1F2247004010B500F06DF800F017F9D0B900F056F90446072812D102E00120FFF77BFB0A4B1B7813F0020FF7D0074B1B7813F0020F04D0054B1B789B08C2
:401B000000D1002400F022F900E00424204610BD2247004008B5FFF7D7FF034610B9FFF7A3FF0346184608BD08B5FFF795FF0F4A137843F0080313701032137843F008032B
:401B40001370C8220A4B1A700A4A137843F0100313701032137843F010031370064B1B7813F0200FFAD0FFF77BFF08BDA043004001470040AC43004000470040054A13788B
:401B800043F001031370034B1B7813F0020FFAD0704700BF02470040024A137803F0FE03137070470247004008B5FFF755FF064A137843F0080313701032137843F0080371
:401BC0001370FFF74DFF08BDA043004070B506460D4600240CE00120FFF700FB064B1B7813F0010FF7D0054B1B7833550134E4B2AC42F3D3204670BD2247004020470040C7
:401C000030B43E2801D81F2B03D93F2827D90F2B27D8174C247814F0020F24D0154CB6252570D4252570012525700234247814F0020F1AD10F4C2070C1F300202070C9B2FD
:401C40002170591EC9B22170002104E0545C094804700131C9B29942F8D3072006E0012004E0012002E0042000E0092030BC7047224700402047004030B4104C247814F06E
:401C8000020F15D00E4CB6252570D8252570052525700234247814F0020F0BD1084C2070080A2070C9B2217022702370072002E0042000E0092030BC704700BF2247004058
:401CC000204700400C4B1B7813F0020F0FD00B4BB6221A70E1221A700E221A7002331B7813F0020F05D1054B187007207047042070470920704700BF22470040204700402F
:401D000010B5FFF7A9FE0F4B1B78A3B901220D4B1A700D4B1B6813F0010F0ED00A4A136823F00103136000BF00BF00BF0122054B5A60002402E0042400E00024FFF790FEAE
:401D4000204610BDDC81FF1F0400084008B5FFF783FE0A4B00221A705B68012B0AD1084A136843F00103136000BF00BF00BF0022024B5A60FFF774FE08BD00BFDC81FF1F26
:401D800004000840074B1B7813F0020F08D0064BB6221A70E0221A700D221A700720704704207047224700402047004081F0004102E000BF83F0004330B54FEA41044FEA60
:401DC000430594EA050F08BF90EA020F1FBF54EA000C55EA020C7FEA645C7FEA655C00F0E2804FEA5454D4EB5555B8BF6D420CDD2C4480EA020281EA030382EA000083EA1C
:401E0000010180EA020281EA0303362D88BF30BD11F0004F4FEA01314FF4801C4CEA113102D0404261EB410113F0004F4FEA03334CEA133302D0524263EB430394EA050F6D
:401E400000F0A780A4F10104D5F1200E0DDB02FA0EFC22FA05F2801841F1000103FA0EF2801843FA05F359410EE0A5F120050EF1200E012A03FA0EFC28BF4CF0020C43FA17
:401E800005F3C01851EBE37101F0004507D54FF0000EDCF1000C7EEB00006EEB0101B1F5801F1BD3B1F5001F0CD349085FEA30004FEA3C0C04F101044FEA445212F5800F45
:401EC00080F09A80BCF1004F08BF5FEA500C50F1000041EB045141EA050130BD5FEA4C0C404141EB010111F4801FA4F10104E9D191F0000F04BF01460020B1FA81F308BF28
:401F00002033A3F10B03B3F120020CDA0C3208DD02F1140CC2F10C0201FA0CF021FA02F10CE002F11402D8BFC2F1200C01FA02F120FA0CFCDCBF41EA0C019040E41AA2BF87
:401F400001EB0451294330BD6FEA04041F3C1CDA0C340EDC04F11404C4F1200220FA04F001FA02F340EA030021FA04F345EA030130BDC4F10C04C4F1200220FA02F001FA07
:401F800004F340EA0300294630BD21FA04F0294630BD94F0000F83F4801306BF81F480110134013D4EE77FEA645C18BF7FEA655C29D094EA050F08BF90EA020F05D054EA0C
:401FC000000C04BF1946104630BD91EA030F1EBF0021002030BD5FEA545C05D14000494128BF41F0004130BD14F580043CBF01F5801130BD01F0004545F0FE4141F47001AD
:402000004FF0000030BD7FEA645C1ABF194610467FEA655C1CBF0B46024650EA013406BF52EA033591EA030F41F4002130BD00BF90F0000F04BF0021704730B54FF48064B2
:4020400004F132044FF000054FF0000150E700BF90F0000F04BF0021704730B54FF4806404F1320410F0004548BF40424FF000013EE700BF42004FEAE2014FEA31014FEA66
:4020800002701FBF12F07F4393F07F4F81F06051704792F0000F14BF93F07F4F704730B54FF4607401F0004521F0004120E700BF50EA010208BF704730B54FF000050AE05E
:4020C00050EA010208BF704730B511F0004502D5404261EB41014FF4806404F132045FEA915C3FF4DCAE4FF003025FEADC0C18BF03325FEADC0C18BF033202EBDC02C2F192
:40210000200300FA03FC20FA02F001FA03FE40EA0E0021FA02F11444C1E600BF70B54FF0FF0C4CF4E06C1CEA11541DBF1CEA135594EA0C0F95EA0C0F00F0DEF82C4481EAF3
:40214000030621EA4C5123EA4C5350EA013518BF52EA033541F4801143F4801338D0A0FB02CE4FF00005E1FB02E506F00042E0FB03E54FF00006E1FB03569CF0000F18BF56
:402180004EF0010EA4F1FF04B6F5007F64F5407404D25FEA4E0E6D4146EB060642EAC62141EA55514FEAC52040EA5E504FEACE2EB4F1FD0C88BFBCF5E06F1ED8BEF1004FA5
:4021C00008BF5FEA500E50F1000041EB045170BD06F0004646EA010140EA020081EA0301B4EB5C04C2BFD4EB0C0541EA045170BD41F480114FF0000E013C00F3AB8014F109
:40220000360FDEBF002001F0004170BDC4F10004203C35DA0C341BDC04F11404C4F1200500FA05F320FA04F001FA05F240EA020001F0004221F0004110EBD37021FA04F605
:4022400042EB06015EEA430E08BF20EAD37070BDC4F10C04C4F1200500FA04F320FA05F001FA04F240EA020001F0004110EBD37041F100015EEA430E08BF20EAD37070BD17
:40228000C4F1200500FA05F24EEA020E20FA04F301FA05F243EA020321FA04F001F0004121FA04F220EA020000EBD3705EEA430E08BF20EAD37070BD94F0000F0FD101F00C
:4022C0000046400041EB010111F4801F08BF013CF7D041EA060195F0000F18BF704703F00046520043EB030313F4801F08BF013DF7D043EA0603704794EA0C0F0CEA135552
:4023000018BF95EA0C0F0CD050EA410618BF52EA4306D1D181EA030101F000414FF0000070BD50EA410606BF1046194652EA430619D094EA0C0F02D150EA013613D195EA1B
:402340000C0F05D152EA03361CBF104619460AD181EA030101F0004141F0FE4141F470014FF0000070BD41F0FE4141F4780170BD70B54FF0FF0C4CF4E06C1CEA11541DBFDC
:402380001CEA135594EA0C0F95EA0C0F00F0A7F8A4EB050481EA030E52EA03354FEA013100F088804FEA03334FF0805545EA131343EA12634FEA022245EA111545EA106532
:4023C0004FEA00260EF000419D4208BF964244F1FD0404F5407402D25B084FEA3202B61A65EB03055B084FEA32024FF480104FF4002CB6EB020E75EB030E22BFB61A754672
:4024000040EA0C005B084FEA3202B6EB020E75EB030E22BFB61A754640EA5C005B084FEA3202B6EB020E75EB030E22BFB61A754640EA9C005B084FEA3202B6EB020E75EB7D
:40244000030E22BFB61A754640EADC0055EA060E18D04FEA051545EA16754FEA06164FEAC30343EA52734FEAC2025FEA1C1CC0D111F4801F0BD141EA00014FF000004FF012
:40248000004CB6E711F4801F04BF01430020B4F1FD0C88BFBCF5E06F3FF6AFAEB5EB030C04BFB6EB020C5FEA500C50F1000041EB045170BD0EF0004E4EEA113114EB5C0407
:4024C000C2BFD4EB0C0541EA045170BD41F480114FF0000E013C90E645EA060E8DE60CEA135594EA0C0F08BF95EA0C0F3FF43BAF94EA0C0F0AD150EA01347FF434AF95EA35
:402500000C0F7FF425AF104619462CE795EA0C0F06D152EA03353FF4FDAE1046194622E750EA410618BF52EA43067FF4C5AE50EA41047FF40DAF52EA43057FF4EBAE12E7F6
:402540004FF0FF3C06E000BF4FF0010C02E000BF4FF0010C4DF804CD4FEA410C7FEA6C5C4FEA430C18BF7FEA6C5C1BD001B050EA410C0CBF52EA430C91EA030F02BF90EA65
:40258000020F0020704710F1000F91EA030F58BF994208BF90422CBFD8176FEAE37040F0010070474FEA410C7FEA6C5C02D150EA013C07D14FEA430C7FEA6C5CD6D152EA28
:4025C000033CD3D05DF8040B704700BF8446104662468C461946634600E000BF01B5FFF7B7FF002848BF10F1000F01BD4DF808EDFFF7F4FF0CBF012000205DF808FB00BF39
:402600004DF808EDFFF7EAFF34BF012000205DF808FB00BF4DF808EDFFF7E0FF94BF012000205DF808FB00BF4DF808EDFFF7CEFF94BF012000205DF808FB00BF4DF808ED9A
:40264000FFF7C4FF34BF012000205DF808FB00BF4FEA410212F5001215D211D56FF47873B3EB625212D94FEAC12343F0004343EA505311F0004F23FA02F018BF4042704797
:402680004FF00000704750EA013005D111F0004008BF6FF0004070474FF00000704700BF4FEA4102B2F1E04324BFB3F5001CDCF1FE5C0DD901F0004C4FEAC0024CEA5070AC
:4026C000B2F1004F40EB830008BF20F00100704711F0804F21D113F13872BCBF01F00040704741F480114FEA5252C2F11802C2F1200C10FA0CF320FA02F018BF40F001006C
:402700004FEAC1234FEAD32303FA0CFC40EA0C0023FA02F34FEA4303CCE77FEA625307D150EA01331EBF4FF0FE4040F44000704701F0004040F0FE4040F40000704700BF9C
:4027400080F0004002E000BF81F0004142001FBF5FEA410392EA030F7FEA226C7FEA236C6AD04FEA1262D2EB1363C1BFD218414048404140B8BF5B42192B88BF704710F0C8
:40278000004F40F4000020F07F4018BF404211F0004F41F4000121F07F4118BF494292EA030F3FD0A2F1010241FA03FC10EB0C00C3F1200301FA03F100F0004302D54942E6
:4027C00060EB4000B0F5000F13D3B0F1807F06D340084FEA310102F10102FE2A51D2B1F1004F40EBC25008BF20F0010040EA03007047490040EB000010F4000FA2F1010240
:40280000EDD1B0FA80FCACF1080CB2EB0C0200FA0CF0AABF00EBC25052421843BCBFD0401843704792F0000F81F4000106BF80F400000132013BB5E74FEA41037FEA226CB1
:4028400018BF7FEA236C21D092EA030F04D092F0000F08BF0846704790EA010F1CBF0020704712F07F4F04D1400028BF40F00040704712F100723CBF00F50000704700F09E
:40288000004343F0FE4040F4000070477FEA226216BF08467FEA23630146420206BF5FEA412390EA010F40F4800070474FF0000304E000BF10F0004348BF40425FEA000C82
:4028C00008BF704743F0964301464FF000001CE050EA010208BF70474FF000030AE000BF50EA010208BF704711F0004302D5404261EB41015FEA010C02BF844601460020F8
:4029000043F0B64308BFA3F18053A3F50003BCFA8CF2083AA3EBC25310DB01FA02FC634400FA02FCC2F12002BCF1004F20FA02F243EB020008BF20F00100704702F1200253
:4029400001FA02FCC2F1200250EA4C0021FA02F243EB020008BF20EADC707047014B1868704700BF3C81FF1F0E4B70B51E460E4C0025E41AA410A54204D056F82530984783
:402980000135F8E700F02AFA084B094C1E46E41AA4100025A54204D056F8253098470135F8E770BDE82D0000E82D0000E82D0000F02D000010B5431E0A44914204D011F80C
:4029C000014B03F8014FF8E710BD03460244934202D003F8011BFAE77047012B30B50ADC920803680C68013A002A40F8044B41F8043BF6DC30BD03460D781C7803F8015B63
:402A000001F8014BD41A0444002CF5DC30BDF8B50F46144606461D4698470028214638460BDAA847002801DA3846F8BD21463046A847002809DB3046F8BDA8470028F3DC47
:402A400021463046A8470028F5DB2046F8BD2DE9F04F06468B46144685B00093B20707D1A30705D1B4F1040818BF4FF0010801E04FF002083319BBF1060F019326D81F46D4
:402A800004FB0B65AF4280F01681B9464E4501D32744F7E7C4EB090A49465046009B98470028F5DDB8F1000F08D1D9F80030DAF80020C9F80020CAF8003005E04346224678
:402AC00051464846FFF789FFD146DFE74FEA5B050BF1FF33BBF1070F04FB0565019326D0BBF1280F04FB036919D94FEADB076743F119CA19009B3046FFF789FFEA192946E7
:402B0000009B8246E81BFFF782FF0546A9EB47004A46009BC119FFF77AFF814600E0B2462946009B4A465046FFF771FF0546B8F1000F04D133682A6832602B6005E0434659
:402B4000224629463046FFF748FF019B371904FB0365A9463B19029301970023029AC4EB020A554555D303933146009B504698470028039B24DC15D1B8F1000F08D1019BD6
:402B8000DAF800201B6801990A60CAF8003005E04346224651460198FFF71FFF019B234401930123029A22440292D7E703933146009B284698470028039B18DB03D02D1BB8
:402BC0005545F3D225E0B8F1000F06D12B68D9F800202A60C9F8003005E04346224649462846FFF7FAFEC4EB09090123E7E7B8F1000F06D1DAF800302A68CAF800202B60DF
:402C000005E04346224629465046FFF7E6FE2D1BC7E704FB0BFB63B3019B06EB0B079A1BC3EB0A0B5A45A8BF5A462AB14346C2EB0A013046FFF7D1FEC9EB0702C5EB09053F
:402C4000121BAA4228BF2A4622B14346B91A5046FFF7C3FE5C4506D2009B2246BBFBF4F13046FFF7F4FEAC4225D27E1BB5FBF4FBF4E6B3445F451ED23D46AE4201D32744BF
:402C8000F8E7C4EB050929464846009B98470028F5DDB8F1000F06D12B68D9F800202A60C9F8003005E04346224649462846FFF794FE4D46E1E705B0BDE8F08F00000000EA
:402CC0003131313131313000303131303030300031313031313031003131313130303100303131303031310031303131303131003130313131313100313131303030300030
:402D000031313131313131003131313130313100303030303030300030303031313031003030313031303100303031303030300030303130313131003130303131313000F7
:402D4000313030313131310030303031313131003131313031313000456E746572204D6F646520310A0000005374617274205541525400004D6F646520300A004D6F646589
:402D800020310A004D6F646520320A004D6F646520330A0040510040300000000140001000140140000800400140000A004C0140000200500140200060520040FC0700483E
:402DC00006000000011121314161536373000000080901010507070404430000F8B500BFF8BC08BC9E4670474D00000029100000F8B500BFF8BC08BC9E4670472900000080
:402E0000102E0000C880FF1F78000000E0000000000000000000E02EC05D00001800000000366E0100000000000000000000000000000000000000000000000000000000AE
:402E400000000000D92D000000000000000000000000000000000000000000000000000000000000000000000000000000000000000000000000000000000000000000004C
:402E800000000000DC80FF1F000000000000000000000000000000000000000000000000000000000000000000000000000000000000000000000000000000000000000098
:402EC00000000000000000000000000000000000000000000000000000000000000000000000000000000000000000000000000000000000000000000000000000000000D2
:402F00000000000000000000000000000000000000000000000000000000000000000000000000000000000000000000000000000000000000000000000000000000000091
:402F40000000000000000000000000000000000000000000000000000000000000000000000000000000000000000000000000000000000000000000000000000000000051
:402F80000000000000000000000000000000000000000000000000000000000000000000000000000000000000000000000000000000000000000000000000000000000011
:020000040003F7
:0200000480007A
:4000000004520040046400400265004035020140310301404B04014036050140070701405508014035090140020B0140311401401D1501404116014029170140401801407D
:4000400041190140591A01404A1B0140034001400C410140094201400643014002440140014501400246014003470140104801400B490140044C01400F4D0140075001404D
:40008000015101400804190278087909837F850F8838890F870D887201170220061C07170A090C0A100312041304150117021A1B1B181C1B1F17250227012A132D072E1B18
:4000C0002F083220331F341F3A203B08580459045B045F0185018A048E029107950296029A029F07A201A907AC06AD04B406B507B601D602D720D804D904DB04DD20DE08E3
:40010000DF01008001A0040407450A100B040C020E010F04100212801402171019301A011C041D041E181F2020082304271029902C022F20300231043340368037153B043F
:400140003E013F0461406C026DC0724079407C027E808604C0F3C2D6C4C9CA5CCCFBCEC2D808DE0806011C01220134013E1040644105420249FF4AFF4BFF4F01501858044E
:400180005A045F016040624064406540668068806A806C806E80820F860F88038A0C8C058E0A900F9610970198039A0C9C0FA210A805AA0AB010B20FB301BE01C034C1056A
:4001C000C206C5ECC602C807C9FFCAFFCBFFCD83CE03CF01D018D283D403D604D804D904DA04DB04DC30DF05E040E240E440E540E680E880EA80EC80EE8000080210065042
:4002000007050A010C020E1912C01680171018041B101C401E202720360840044280469048064C024D044F21544056805C405D045E205F0165026F0577407D808502925502
:4002400093409B109D409F45A006A140A204A440A680AF40C0F4C2F1C458CC40D0C5D23CD6F0D880DE10924493409B089D40A688AB20AF08030205060D01110415061D088F
:400280002401250129012E012F083306340135083701382039083E103F144002460449FF4A074BFF4C404D204EF04F0550085418580459045A045B045C105D115F01604038
:4002C00061A8624063208702880389018A0C8C0A8E049205940395029604A208A302A803A902AA04AF02B301B40FB702BA20BF44C021C106C50BC6E0C70CC819C9FFCAFFA1
:40030000CBFFCEF0CF44D00CD401D804D904DA04DB04DC01DD11DF01E6C0EA40EB020120020209090A10110112081401170819201A041F202244240225502720280429228D
:400340002B012C212D1032083582360A38283D403E06420647204A084B045014511854015501564257015A985B015C0167098720A510C003C20CC4AACA7DCCD2CED6D02CC2
:40038000D204D68FD830E4088110E001050309010B020D020F0121033103404149FF4AFF4BFF4F015018528059045A045B045C105D335F0160406240644065406680688051
:4003C0006A806C806E80C041C9FFCAFFCBFFCD83CE03CF01D018DA04DD03DF01E040E240E440E540E680E880EA80EC80EE8020C02A023844391041804240458046807001B9
:4004000072C0844089108A088E80900494029A029E80A180A688AF10B404B508CA01CE0ED099E002E240E48002010F011A0426023001320234043501405449FF4AFF4BFF13
:400440004D834E034F015018580459045A045C335D035F016040624064406540668068806A806C806E8083018F019001B601B701BE40BF40C041C5ECC602C807C9FFCAFF35
:40048000CBFFCD83CE03CF01D018D401D804D904DA04DB04DD33DF01E040E240E440E540E680E880EA80EC80EE8005020A400E04170819401D081F122240240838023A404E
:4004C0003F4041804280464049054C015180524059055A80850287028A028C04924493409B089D40A688AA40C010C248C420CE19D089D210D60BE210E804EC2001100223F0
:40050000041C05080623080309180F23101F113F12201401153C1702183319041A0C1B401C3F1F042008240425272718280C2C022D1C2F21302C31403210331F340F373887
:400540003AA23B083E0456025711580459045B045C115D105F0180028E018F02940197039F06A106A301A801AB05AF01B003B307B802BB08D804D904DC11DF0100020202C8
:400580000422071008040C400D200E621208140117291A801C101D201E421F20220826842750280429022B012E402F203248361537403A403D803E2A5C106C206D58762A35
:4005C00077297D017E40891090029304940195519709980499029A40A001A140A301A420A60AA980AB08AD10AF01B001C079C2F4C4F2CA5DCCFACEF8D620E280EC200510CC
:4006000006030C1C0E020F081009110C1210130314101501160C170E1F0C20102414280C29012A112B062F03310F3310341F3B023F04580459045C115F0181228311850745
:4006400086018B808E028F60914493119561970E9A029B609F80A001A160A560A801A907AE01AF60B118B202B307B580B601B760B880BE04BF11C025C104C206C401C50ED3
:40068000C6C0C809C9FFCAFFCBFFCC62CDA0CEF0CF41D00CD804D904DA04DC11DD01DF01E640E702E910EA30EB10ED10EE10EF12000402020540071008040A800F0812487D
:4006C000130414401540172018041D401F0420202202242125102604274028042B012C402D502E48324A34013684371038043A403D883E2244404520460847604C014E0437
:400700004F0856208401868488108A128D108F019002911092C093049421970998449A409B109C01A164A288A301A612B504C0A5C24CC4DECAFCCCFBCEFAD0B0D230E2C0BB
:40074000EC10EE4033803580CC300302054007800B205B0487809D80A780C0E0C210D640E040878099409D809F04A302A780AF10E610EC4099409D80AB04AF02E810EA8098
:400780007980DC0195808140958003208508C0082508534058105C10854087408C1099409D80A508B108C880D4A0D620E210E4100B8019805A208B408E109D80AC10C2109E
:4007C000C640D480EE4054209908A320D402104075087B0288408B028F209908A320B420C408DC01DE04E203E401EC08000F08050A090C02100A1A0A1C02000F10900000AC
:40080000400000003E00003E20002000C0000000800040B0B000B000000000000D00000D0D000D0000000000F40000FFFF00040000000000FF0000FFFF0000000000000005
:40084000D80000FAEA0002000100000000000000000000000000000000000000000000000000000000000000000000000000000000000000000000000000000000000000B9
:400880000000000000000000000000000000000000000000000000000000000000000000000000000000000000000000000000000000000000000000000000000000000038
:4008C00000000000000000000000000000000000000000000000000000000000000000000000000000000000000000000000000000000000000000000000000000000000F8
:4009000000000000000000000000000000000000000000000000000000000000000000000000000000000000000000000000000000000000000000000000000000000000B7
:400940000000000000000000000000000000000000000000000000000000000000000000000000000000000000000000000000000000000000000000000000000000000077
:0200000490006A
:0400000000004005B7
:0200000490105A
:04000000BC90ACAF55
:0200000490303A
:02000000988FD7
:0200000490402A
:4000000000000000000000000000000000000000000000000000000000000000000000000000000000000000000000000000000000000000000000000000000000000000C0
:400040000000000000000000000000000000000000000000000000000000000000000000000000000000000000000000000000000000000000000000000000000000000080
:400080000000000000000000000000000000000000000000000000000000000000000000000000000000000000000000000000000000000000000000000000000000000040
:4000C0000000000000000000000000000000000000000000000000000000000000000000000000000000000000000000000000000000000000000000000000000000000000
:0200000490501A
:0C00000000012E16106900012E2AA8F83D
:00000001FF