:400000000080002011000000011100000111000008B5044B1A6803F53F5302331A6001F077F800BFFA46004010B5054C237833B9044B13B10448AFF300800123237010BDE3
:400040004081FF1F00000000E4310000084B10B51BB108490848AFF300800848036803B910BD074B002BFBD0BDE81040184700BF000000004481FF1FE4310000C880FF1FE8
:400080000000000000680B68C01A70470122014B1A6070476081FF1F10B501F017FB01F029FB044601F03EFB201A024B586000229A6010BD6081FF1F08B5002001F06CF98A
:4000C000012001F05DF908BD08B5002001F058F9012001F061F908BD10B501F021FC044601F036FC201A02F04BF803A3D3E9002302F0E6F910BD00BF00000000006AF84050
:4001000030B583B005460191002407E0291989B201AB185D01F06EFC0134E4B2032CF5D903B030BD30B583B0054600220023CDE90023002407E0281980B201F0C3FC0DF8AA
:4001400004000134E4B2072CF5D9DDE9000103B030BD00BF2DE9F04180460F461646002409E0E0003D18404480B2FFF7DBFFC5E900010134A4B2B442F3D3BDE8F08100BF38
:4001800038B504460D46FFF7A7FF034BC3E90401C3E9064538BD00BF6081FF1F38B504460D46FFF799FF094BD3E9042301F0AAFE22462B4602F0CCFA18B1002001F004FC1D
:4001C00038BD012001F000FC38BD00BF6081FF1F70B505460C462D4B042202F0CCFE14F0010F23D104EBD474641004F18043023B04F18042013A55F8221055F8230002F0B2
:400200004DFB55F8241002F049FB631C55F8231002F044FB023455F8241002F03FFB01F0D1FF00221A4B02F04BF92BE0661E06EBD676761006F18043023B06F18042013AF1
:4002400055F8221055F8230002F028FB55F8261002F024FB013404EBD474641055F8241002F01CFB631C55F8231002F017FB023455F8241002F012FB01F0A4FF0022054BBD
:4002800002F01EF902F0B4FA70BD00BF850000000000144000001840014BC3E9080170476081FF1F38B50D461E4B03EBC000002305E0C25C303A1C4941F823200133062B94
:4002C000F7DD194C2068B0FA80F0400900F07AFF6068B0FA80F0400900F080FFA068B0FA80F0400900F086FFE068B0FA80F0400900F08CFF2069B0FA80F0400900F092FF64
:400300006069B0FA80F0400900F098FFA069B0FA80F0400900F09EFFB5FA85F0400900F0A5FF38BDE8310000F881FF1F974B1B68002B00F0A18170B504460D46002305E0FF
:40034000924A02EB8302002191620133032BF7DD002200232046294602F018FA002800F0C4808A4BD3E90E232046294602F0E6F938B149E1854A02EB830200219162013367
:4003800000E00023032BF5DD0122804BDA6200227F4B2046294601F069FF02F001FA01F0FFFE02F025FA7B4902F034FC0446794902F01AFD10B3754D0A232B646B64204699
:4003C00002F03AFD744E86FB0032C317C3EBA20303EB8303A0EB4303AB646E49204602F065FB02F029FD86FB0036C317C3EBA60303EB8303A0EB4303EB6405E167492046DF
:4004000002F0F2FC88B3614D0A232B646149204602F000FC02F010FD5F4E86FB0032C317C3EBA20303EB8303A0EB43036B64204602F002FD86FB0032C317C3EBA20303EB74
:400440008303A0EB4303AB645249204602F02EFB02F0F2FC86FB0036C317C3EBA60303EB8303A0EB4303EB64CEE04C49204602F0D1FB02F0E1FC484E86FB0032C317C3EB97
:40048000A20303EB8303A0EB4303404D2B644149204602F0BFFB02F0CFFC86FB0032C317C3EBA20303EB8303A0EB43036B64204602F0C2FC86FB0032C317C3EBA20303EB05
:4004C0008303A0EB4303AB643249204602F0EEFA02F0B2FC86FB0036C317C3EBA60303EB8303A0EB4303EB648EE0002200232046294602F023F940B1244B00221A645A646B
:400500009A64DA6401229A627EE00022244B2046294602F013F948B11C4B0F221A6410225A6412229A641122DA646DE000224FF040432046294602F001F948B1134B0D2284
:400540001A640C225A640B229A640E22DA645BE00022144B2046294602F0F0F840B10B4B0A221A645A649A64DA640122DA624BE000220D4B2046294602F0E0F8B0B1034BD0
:400580000A221A645A649A64DA643DE06081FF1F0000244000002041676666660000C8420000F0BF000008C0000010C0334B0A221A645A649A64DA640022314B2046294637
:4005C00002F0BCF810B108222C4B1A6400222D4B2046294602F0B2F810B10822274B5A640022294B2046294602F0A8F810B10822224B9A640022254B2046294602F09EF80D
:4006000010B108221D4BDA641C4C236D013303F003032365012000F035FE012000F03EFE012000F047FE012000F050FE236DC3F1030204EB820204EB8303916A186CFFF790
:4006400031FE236D1BB9002000F01CFE10E0012B03D1002000F022FE0AE0022B03D1002000F028FE04E0032B02D1002000F02EFE0022024B1A6070BD704700BF6081FF1FD0
:40068000000014C0000018C000001CC0000020C010B5094CD4E90601FFF780FDD4E90801FFF744FE054B1B78692B02D1FFF70CFD10BDFFF701FD10BD6081FF1F1482FF1FF9
:4006C000F8B5FFF709FD06460F467FE0FFF704FD32463B4601F016FC04460D460022404B02F040F820B100203E49FFF7D5FD17E000223B4B2046294602F048F860B10022D1
:400700004FF080432046294602F02CF820B100203549FFF7C1FD03E0FFF7DEFC06460F4601F01AFA18B101F027FA00284CD1FFF7D3FC04460D4601E0FFF7AAFFFFF7CCFC90
:4007400022462B4601F0DEFB23A3D3E9002301F0FFFF0028F0D101F0FFF958BB01F00CFA40BB1DA1D1E90001FFF70AFDFFF7B4FC04460D4616E0FFF78BFFFFF7ADFC224635
:400780002B4601F0BFFB0022154B01F0F5FF48B1164801F091F8052000F0A4FD0122144B5A6511E001F0D8F970B901F0E5F90028E1D009E001F0D0F9012805D101F0DCF902
:4007C00010B903220A4B5A65FFF762FF084B5B6D002B3FF47BAFF8BD9A9999999999C93F0000F03F000008C0000010C0803200006081FF1F08B501E0FFF74AFF01F0B4F9B6
:400800000028F9D001F0C0F90028F5D001F09CF90028F1D008BD00BFF8B50026002755E0FFF736FFFFF758FC32463B4601F06AFB04460D4600222A4B01F094FF30B1294B3D
:40084000986D01F0ADFCFFF727FD16E00022244B2046294601F09AFF58B10022224B2046294601F07FFF20B100202049FFF714FD03E0FFF731FC06460F4601F085F948B985
:40088000FFF7B8FF14A1D1E90001FFF779FC0222144B5A6501F068F950B9FFF7ABFF0EA1D1E90001FFF76CFC0E4A936D0133936501F04AF950B9FFF79DFF07A1D1E90001F5
:4008C000FFF75EFC074A936D013B9365054B5B6D012BA5D0F8BD00BF9A9999999999C93F0000F03F6081FF1F0000F83F000010C008B53DE0FFF7CCFE254B1B78632B03D123
:4009000000202449FFF7C8FC214B1B78692B04D100204FF04041FFF7BFFC01F035F948B9FFF768FF18A1D1E90001FFF729FC0022194B5A6501F018F958B9FFF75BFF12A110
:40094000D1E90001FFF71CFCFFF7B6FB6322104B1A7001F0F9F858B9FFF74CFF0AA1D1E90001FFF70DFCFFF7AFFB6922084B1A70094B5B6D022BBDD00421054B187801F030
:4009800039F808BDAFF300809A9999999999C93F1482FF1F0000F0BF6081FF1F0000000038B501F0CBF8224801F0BAF8012000F029FF962000F0ACFC002000F023FF00F0C7
:4009C000F1FE01221B4B9A60FFF786FB04460D46FFF782FB01E0FFF75BFEFFF77DFB22462B4601F08FFA0022134B01F03FFC0022124B01F0B7FE0028EDD10E4C606801F043
:400A0000CFFB09A3D3E9002301F05AFD00220C4B01F02CFC00220B4B01F028FCC4E9180138BD00BFAFF30080000000000088C340990000006081FF1F00408F4000002440C8
:400A4000000041400000E03F2DE9F04FADF50D7D2822002182A802F04CFA502200216EA802F047FA00261CE0384BD3E90601FFF795FB002409E0FFF793FF8CAB03EB84057B
:400A800001F0B6FE45F8280C0134092CF3DD0A2182A8FFF79DFB8CAB03EB860343F8780C0136132EE0DD14216EA8FFF791FB01F089FB06460F46372269460520FFF74AFB16
:400AC0004FF0000801E008F101080DEBC803D3E9004522462B463046394601F057FE0028F1D108F1FF38404601F05AFB0022184B01F0BCFB0022174B01F006FA82468B46D3
:400B00000DEBC80898E8000342464B463046394601F0F8F906460F4642464B462046294601F0F0F902460B463046394601F0C8FC0022074B01F09AFB02460B465046594606
:400B400001F0E2F90DF50D7DBDE8F08F6081FF1F0000E03F00000840D0B501243DE00CB321A1D1E90001FFF70BFBFFF76DFF224BC3E91801FFF7B0FA06460F461F4B1B78C2
:400B8000692B09D11C4C1AA3D3E90023D4E9180101F096FCC4E91801174BD3E91801FFF77BFB0024FFF774FDFFF796FA32463B4601F0A8F900224FF0804301F0DDFD60B165
:400BC00000F0DAFF30B908A1D1E90001FFF7D8FA012402E00022084B5A65074B5B6D032BBDD0D0BDAFF300809A9999999999C93F52B81E85EB5104406081FF1F1482FF1FD9
:400C000038B562B600F0B6FB674800F0A5FB00F095FF032000F062FD644800F081FF00F03DFC00F071FC00F0D5FC00F035FD00F0DBFD032000F068FE00F0B8FE00F0D6FEA9
:400C400000F016FE5A4800F037FE052000F04AFB202000F01BFE052000F044FB002000F031FF544B9865042000F02CFF524B1870FFF732FA04460D4663E0FFF72DFA2246EB
:400C80002B4601F03FF901F08BFD18B900204B49FFF702FBFFF720FA22462B4601F032F901F07EFD012803D100204549FFF7F4FAFFF712FA22462B4601F024F901F070FD62
:400CC000022803D100203F49FFF7E6FAFFF704FA22462B4601F016F901F062FD032803D100203949FFF7D8FAFFF7F6F922462B4601F008F901F054FD042805D12D4B986D81
:400D000001F04EFAFFF7C8FAFFF7E6F922462B4601F0F8F801F044FD052810D1264B1B78632B03D100202949FFF7B6FA224B1B78692B04D100204FF04041FFF7ADFAFFF779
:400D4000A7FCFFF7C9F922462B4601F0DBF800221F4B01F007FD00288FD1FFF7BDF9154B5B6D33B90421144B187800F043FEFFF7A7FC104B5B6D012B01D1FFF74DFD0D4B1B
:400D80005B6D022B06D10B4B996D0020FFF7B8F9FFF7AEFD074B5B6D032B01D1FFF7DCFEFFF776FCDBE700BF8D00000099000000903200006081FF1F1482FF1F000014C061
:400DC000000018C000001CC0000020C00000F0BF00001840FEE700BFF0B40022174611E050F82760F3B226F0FF0608E001EB420511F812406D78A5550132013BDBB2002B95
:400E0000F4D101371F2FEBD9F0BC704710B41D4B1B78DBB203F007011B4A11701B09013213704122194B1A70012230331A700C2203F22F731A70402203F5DA731A70202216
:400E400004331A7080210C33197004200733187002230F480370302408300470033001700C490A7090210C4A11700432137040F205120A4B1A804422A3F2CE231A7010BC45
:400E8000704700BFCF0100496E5800400D510040885A0040945A0040D85A0040445B004008B50A46002102F024F808BD38B501222F4B1A801C2202331A70EF2202331A805C
:400EC00018232C4A13704FF49C71023211800232137040F25721023211800232137045F6BF5102321180023213700222224B1A7008224FF040231A70032103F5007319707C
:400F00001E4B1B78DBB21E490B701E4B1A8041F25122023B1A80002419250CE01A4B1B7803F0010343EA440404F003044FF4F07000F032FE013D0DB1032CEFD115B903207A
:400F4000FFF748FF114B4FF480721A8007221A7000220F490A704820023108701A700222033B1A700B4A137843F01F03137038BD8040004086400040004300400801004951
:400F8000A146004022420040254200400440004006400040A243004008B501F09FFF08BD38B572B63F4A137843F00403137000240CE03D4D630019194A0011462A4408460D
:400FC00091882858FFF76CFF0134E4B2052CF0D900240BE03449A3001819420088180622816A406AFFF7D8FF0134E4B2002CF1D02E494FF09040FFF7EFFE40F203322C4B67
:401000001A802C4A03F532438A331A602A4A137843F0020313701032137843F002031370264C237843F040032370A2F58632513A137843F0100313700A2221492148FFF781
:40104000ABFF0A2220492148FFF7A6FF0A2220492048FFF7A1FF0A221F492048FFF79CFF0A221F491F48FFF797FF0A221E491F48FFF792FF1E4A137843F0080313701D4DE7
:4010800061232B70FFF712FF81232B7001221A4B1A70FFF7BBFE0E2221461848FFF77CFF38BD00BFE84600409C320000800000484E580040040404C403500140A04300407D
:4010C00030080048005100403C080048C051004048080048F0510040540800481051004060080048205100406C08004830510040224300400048004004000840B04300401A
:4011000008B501F0BFFE03680C2B00D1FEE7FEE708B5104E104D16E029686B68AC68002204E051F8040B43F8040B0432A242F8D1E868002203E0002143F8041B04328242CC
:40114000F9D11035013E002EE6D101F0A1FEFFF757FDFEE7010000000833000008B5104A104B1A60104A136843F40073136000230AE0032B03D80D4A52F8231000E00C4944
:401180000C4A42F8231001332F2BF2D90A4B1A780A4B1A70074A0A4B1A60FFF701FF08BD0004FA050CED00E014ED00E000000000011100000080FF1FBC760040C080FF1F35
:4011C00008ED00E0044A137803F0FB03800000F0040018431070704720510040044A137803F0FE0300F0010018431070704700BF20510040044A137803F0EF03000100F02A
:40120000100018431070704720510040044A137803F0BF03800100F0400018431070704720510040044A137803F07F03C001C0B218431070704700BF20510040044A13787D
:4012400003F0FD03400000F0020018431070704720510040044A137803F0F703C00000F0080018431070704720510040044A137803F0DF03400100F02000184310707047B4
:4012800020510040044A137803F07F03C001C0B218431070704700BF10510040044A137803F0DF03400100F0200018431070704710510040044A137803F0BF03800100F0D9
:4012C000400018431070704710510040044A137803F0EF03000100F010001843107070471051004010B5044605E0084B186800F053FCA4F50044B4F5004FF6D8034B5868D2
:4013000000FB04F000F048FC10BD00BFCC80FF1F08B5034B1B7A00FB03F000F03DFC08BDCC80FF1F014B1B685864704708ED00E04001C0B2014B1870704700BF01E400E0D5
:401340000222014B1A60704700E100E00222014B1A60704780E100E010B50446FFF7F6FF2046FFF7DFFF0620FFF7E2FFFFF7E8FF10BD00BF0222014B1A60704780E200E0AC
:40138000044A137803F0DF03400100F0200018431070704730510040044A137803F0BF03800100F0400018431070704730510040084A137843F0040313701032137843F0AF
:4013C0000403137002F5A5521E32137843F0800313707047A9430040044A137803F0FC0300F0030018431070704700BF0958004010B487B00446194B03AA1868596803C272
:40140000197A11706A4653F80C0F596803C21B7A1370082C1ED812490B7803F08003DBB20B70087806AB1C4414F80C3C14F8182C920002F00C02134303430B70094A1378A2
:4014400003F0F3031370117814F8183C0B4343F00C03137007B010BC704700BFCC3200000A5800400958004008B50C22084B1A70084A137843F0200313700022064B1A704F
:401480000420FFF7B5FF0120FFF7A6FF08BD00BF08580040095800400A58004008B5054B1B7823B9FFF7E0FF0122024B1A70FFF77FFF08BDD081FF1F084A137843F06003D5
:4014C0001370A2F5A652133A137843F0040313701032137843F004031370704777580040054B1A7802F0FC021A701A7800F0030010431870704700BF5C58004008B50120F1
:40150000FFF7EEFF08BD00BF08B5054B1B7823B90122034B1A70FFF7F1FFFFF7CDFF08BDD181FF1F054A137843F0080313701032137843F008031370704700BFA743004027
:401540000F490B7803F0FC0200F0030313430B7001280AD10B4B1B78DBB20B4A13700B4B1B78DBB2013213707047094B1B78DBB2054A1370074B1B78DBB20132137070477E
:4015800043580040130100493646004017010049B3010049BB01004908B50120FFF7D0FF0B4B1A7842F020021A701A7802F0FB021A701A7842F008021A7003F527731A78E4
:4015C00002F0E7021A701A7842F010021A7008BD4358004008B5054B1B7823B9FFF7DCFF0122024B1A70FFF79DFF08BDD281FF1F054A137843F0020313701032137843F0E2
:4016000002031370704700BFA8430040054B1A7802F0FD021A701A7800F0020010431870704700BF24580040014B1870704700BF815B0040064B1B78C3F3810303F1924346
:40164000063393F83031DBB2024A1370704700BF245800400946004008B5064B1A7802F0F3021A701A7800F00C0010431870FFF7E1FF08BD2458004010B50024054B1C7092
:4016800001331C700420FFF7E7FF2046FFF7BEFF10BD00BF2458004008B5074B1B7823B9FFF7EAFF0122044B1A70FFF7A1FFBB20FFF7BAFF08BD00BFD381FF1F024A1378C3
:4016C00043F080031370704779640040024A137803F07F031370704779640040014B1870704700BF8A640040014B1878704700BF6A640040014B188880B270475068004095
:40170000014B1880704700BF50680040014B188880B2704790680040014B1880704700BF10680040024B1B78024B188880B27047086400409068004000F00300044B1A78CA
:4017400002F0FC021A701A7810431870704700BF7964004008B501E0FFF7D8FFFFF7C4FF10F0080FF8D108BD08B54CF24F30FFF7C7FF4CF24F30FFF7CFFF00F015FA084A1E
:40178000137843F01003137000F012FA0020FFF7D3FFFFF7DFFF0720FFF7A0FF08BD00BF9A64004008B5054B1B7823B9FFF7DCFF0122024B1A70FFF781FF08BDD481FF1FAA
:4017C0000922014B1A7070478B64004008B500F0EBF9044A137843F02003137000F0E8F908BD00BF9B64004008B5054B1B7823B9FFF7E6FF0122024B1A70FFF7E7FF08BD39
:40180000D581FF1F014B1870704700BF7A6400407222084B1A70202202331A700622A3F5B0731A70472210331A7000224D331A70704700BF8965004010B500F0B5F904463A
:401840000A4A137843F0200313700232137843F010031370A2F20312137843F01003137000F03CF8204600F0A3F910BD9965004008B5054B1B7823B9FFF7CAFF0122024B5F
:401880001A70FFF7D9FF08BDD681FF1F024B1B780BB1024B18707047D681FF1F48650040034B1B7813F0040FFAD1024B18707047686400404865004038B5074B1B782BB90F
:4018C00038BDFFF7EDFF0134A4B201E005460024285D0028F5D138BDD681FF1F054A137843F0040313701032137843F004031370704700BFA2430040024A137843F0800310
:401900001370704774650040014B1870704700BF87650040014B1878704700BF67650040014B1868704700BF24650040014B1860704700BF24650040014B1868704700BF30
:4019400044650040014B1860704700BF04650040024B1B78024B1868704700BF046500404465004008B501E0FFF7E6FFFFF7D2FF10F0080FF8D108BD08B54FF0FF30FFF7E0
:40198000D5FF4FF0FF30FFF7DDFF00F00DF9064A137843F01003137000F00AF9FFF7E2FF0020FFF7B1FF08BD9765004008B5054B1B7823B9FFF7E0FF0122024B1A70FFF7A7
:4019C0009BFF08BDD881FF1F044A137803F0F703C00000F008001843107070473051004008B500F03FF900F047F908BD08B5FFF7F7FF08BD30B583B00C468DF8070000F012
:401A00007BF9B4F5006F52D22509A4EB0514A4B200F01EFA00284CD101230DF107022146402000F095F9044607282FD1234B1B7813F0020FFAD0214B1B7813F0020F06D0CC
:401A40001E4B1B789B0805D04FF0FF3403E04FF0FF3400E00024E4B9194A537812782946402000F0B1F9072816D1144B1B7813F0020FFAD0114B1B7813F0020F0FD00F4B47
:401A80001B789B0810D04FF0FF340DE0012809D10AE04FF0FF3407E04FF0FF3404E04FF0FF3401E04FF0FF3400F0F8F902E0012400E00424204603B030BD00BF22470040F2
:401AC0001882FF1F38B5044600F06EF8054600F0FDF804F1804000F500400478E4B200F003F9284600F064F8204638BD014B1B681864704708ED00E04001C0B2014B187016
:401B0000704700BF00E400E00122014B1A60704700E100E00122014B1A60704780E100E010B50446FFF7F6FF2046FFF7DFFF0720FFF7E2FFFFF7E8FF10BD00BF0122014B1F
:401B40001A60704780E200E0024B1878C0F38000704700BFC1510040024B1878C0F3C000704700BFF1510040024B187800F00100704700BFF1510040024B1878C0F38000FC
:401B8000704700BF11510040024B1878C0F34000704700BFF15100400230800803D000BF01380046FCD17047EFF3108072B6704780F31088704700BF10B500F09DF800F0EA
:401BC00047F910BB012000F025F9072818D102210F4800F0A3F802280AD102E00120FFF797FB0C4B1B7813F0020FF7D0002409E0084B1B7813F0020FE9D04FF0FF3401E026
:401C00004FF0FF3400F04AF900E00424204610BD1882FF1F2247004010B500F06DF800F017F9D0B900F056F90446072812D102E00120FFF76DFB0A4B1B7813F0020FF7D001
:401C4000074B1B7813F0020F04D0054B1B789B0800D1002400F022F900E00424204610BD2247004008B5FFF7D7FF034610B9FFF7A3FF0346184608BD08B5FFF795FF0F4AEE
:401C8000137843F0080313701032137843F008031370C8220A4B1A700A4A137843F0100313701032137843F010031370064B1B7813F0200FFAD0FFF77BFF08BDA04300400B
:401CC00001470040AC43004000470040054A137843F001031370034B1B7813F0020FFAD0704700BF02470040024A137803F0FE03137070470247004008B5FFF755FF064A6F
:401D0000137843F0080313701032137843F008031370FFF74DFF08BDA043004070B506460D4600240CE00120FFF7F2FA064B1B7813F0010FF7D0054B1B7833550134E4B2D4
:401D4000AC42F3D3204670BD224700402047004030B43E2801D81F2B03D93F2827D90F2B27D8174C247814F0020F24D0154CB6252570D4252570012525700234247814F0EB
:401D8000020F1AD10F4C2070C1F300202070C9B22170591EC9B22170002104E0545C094804700131C9B29942F8D3072006E0012004E0012002E0042000E0092030BC704797
:401DC000224700402047004030B4104C247814F0020F15D00E4CB6252570D8252570052525700234247814F0020F0BD1084C2070080A2070C9B2217022702370072002E01F
:401E0000042000E0092030BC704700BF22470040204700400C4B1B7813F0020F0FD00B4BB6221A70E1221A700E221A7002331B7813F0020F05D1054B18700720704704205B
:401E400070470920704700BF224700402047004010B5FFF7A9FE0F4B1B78A3B901220D4B1A700D4B1B6813F0010F0ED00A4A136823F00103136000BF00BF00BF0122054B37
:401E80005A60002402E0042400E00024FFF790FE204610BDDC81FF1F0400084008B5FFF783FE0A4B00221A705B68012B0AD1084A136843F00103136000BF00BF00BF0022E3
:401EC000024B5A60FFF774FE08BD00BFDC81FF1F04000840074B1B7813F0020F08D0064BB6221A70E0221A700D221A700720704704207047224700402047004081F00041A4
:401F000002E000BF83F0004330B54FEA41044FEA430594EA050F08BF90EA020F1FBF54EA000C55EA020C7FEA645C7FEA655C00F0E2804FEA5454D4EB5555B8BF6D420CDD0F
:401F40002C4480EA020281EA030382EA000083EA010180EA020281EA0303362D88BF30BD11F0004F4FEA01314FF4801C4CEA113102D0404261EB410113F0004F4FEA03330C
:401F80004CEA133302D0524263EB430394EA050F00F0A780A4F10104D5F1200E0DDB02FA0EFC22FA05F2801841F1000103FA0EF2801843FA05F359410EE0A5F120050EF19C
:401FC000200E012A03FA0EFC28BF4CF0020C43FA05F3C01851EBE37101F0004507D54FF0000EDCF1000C7EEB00006EEB0101B1F5801F1BD3B1F5001F0CD349085FEA300016
:402000004FEA3C0C04F101044FEA445212F5800F80F09A80BCF1004F08BF5FEA500C50F1000041EB045141EA050130BD5FEA4C0C404141EB010111F4801FA4F10104E9D1A6
:4020400091F0000F04BF01460020B1FA81F308BF2033A3F10B03B3F120020CDA0C3208DD02F1140CC2F10C0201FA0CF021FA02F10CE002F11402D8BFC2F1200C01FA02F1CA
:4020800020FA0CFCDCBF41EA0C019040E41AA2BF01EB0451294330BD6FEA04041F3C1CDA0C340EDC04F11404C4F1200220FA04F001FA02F340EA030021FA04F345EA030132
:4020C00030BDC4F10C04C4F1200220FA02F001FA04F340EA0300294630BD21FA04F0294630BD94F0000F83F4801306BF81F480110134013D4EE77FEA645C18BF7FEA655C2B
:4021000029D094EA050F08BF90EA020F05D054EA000C04BF1946104630BD91EA030F1EBF0021002030BD5FEA545C05D14000494128BF41F0004130BD14F580043CBF01F549
:40214000801130BD01F0004545F0FE4141F470014FF0000030BD7FEA645C1ABF194610467FEA655C1CBF0B46024650EA013406BF52EA033591EA030F41F4002130BD00BFD9
:4021800090F0000F04BF0021704730B54FF4806404F132044FF000054FF0000150E700BF90F0000F04BF0021704730B54FF4806404F1320410F0004548BF40424FF00001D5
:4021C0003EE700BF42004FEAE2014FEA31014FEA02701FBF12F07F4393F07F4F81F06051704792F0000F14BF93F07F4F704730B54FF4607401F0004521F0004120E700BF05
:4022000050EA010208BF704730B54FF000050AE050EA010208BF704730B511F0004502D5404261EB41014FF4806404F132045FEA915C3FF4DCAE4FF003025FEADC0C18BF72
:4022400003325FEADC0C18BF033202EBDC02C2F1200300FA03FC20FA02F001FA03FE40EA0E0021FA02F11444C1E600BF70B54FF0FF0C4CF4E06C1CEA11541DBF1CEA135596
:4022800094EA0C0F95EA0C0F00F0DEF82C4481EA030621EA4C5123EA4C5350EA013518BF52EA033541F4801143F4801338D0A0FB02CE4FF00005E1FB02E506F00042E0FB15
:4022C00003E54FF00006E1FB03569CF0000F18BF4EF0010EA4F1FF04B6F5007F64F5407404D25FEA4E0E6D4146EB060642EAC62141EA55514FEAC52040EA5E504FEACE2E79
:40230000B4F1FD0C88BFBCF5E06F1ED8BEF1004F08BF5FEA500E50F1000041EB045170BD06F0004646EA010140EA020081EA0301B4EB5C04C2BFD4EB0C0541EA045170BD51
:4023400041F480114FF0000E013C00F3AB8014F1360FDEBF002001F0004170BDC4F10004203C35DA0C341BDC04F11404C4F1200500FA05F320FA04F001FA05F240EA020029
:4023800001F0004221F0004110EBD37021FA04F642EB06015EEA430E08BF20EAD37070BDC4F10C04C4F1200500FA04F320FA05F001FA04F240EA020001F0004110EBD3700B
:4023C00041F100015EEA430E08BF20EAD37070BDC4F1200500FA05F24EEA020E20FA04F301FA05F243EA020321FA04F001F0004121FA04F220EA020000EBD3705EEA430E63
:4024000008BF20EAD37070BD94F0000F0FD101F00046400041EB010111F4801F08BF013CF7D041EA060195F0000F18BF704703F00046520043EB030313F4801F08BF013D16
:40244000F7D043EA0603704794EA0C0F0CEA135518BF95EA0C0F0CD050EA410618BF52EA4306D1D181EA030101F000414FF0000070BD50EA410606BF1046194652EA430658
:4024800019D094EA0C0F02D150EA013613D195EA0C0F05D152EA03361CBF104619460AD181EA030101F0004141F0FE4141F470014FF0000070BD41F0FE4141F4780170BDB4
:4024C00070B54FF0FF0C4CF4E06C1CEA11541DBF1CEA135594EA0C0F95EA0C0F00F0A7F8A4EB050481EA030E52EA03354FEA013100F088804FEA03334FF0805545EA1313A7
:4025000043EA12634FEA022245EA111545EA10654FEA00260EF000419D4208BF964244F1FD0404F5407402D25B084FEA3202B61A65EB03055B084FEA32024FF480104FF4F2
:40254000002CB6EB020E75EB030E22BFB61A754640EA0C005B084FEA3202B6EB020E75EB030E22BFB61A754640EA5C005B084FEA3202B6EB020E75EB030E22BFB61A754629
:4025800040EA9C005B084FEA3202B6EB020E75EB030E22BFB61A754640EADC0055EA060E18D04FEA051545EA16754FEA06164FEAC30343EA52734FEAC2025FEA1C1CC0D154
:4025C00011F4801F0BD141EA00014FF000004FF0004CB6E711F4801F04BF01430020B4F1FD0C88BFBCF5E06F3FF6AFAEB5EB030C04BFB6EB020C5FEA500C50F1000041EB43
:40260000045170BD0EF0004E4EEA113114EB5C04C2BFD4EB0C0541EA045170BD41F480114FF0000E013C90E645EA060E8DE60CEA135594EA0C0F08BF95EA0C0F3FF43BAF04
:4026400094EA0C0F0AD150EA01347FF434AF95EA0C0F7FF425AF104619462CE795EA0C0F06D152EA03353FF4FDAE1046194622E750EA410618BF52EA43067FF4C5AE50EAFA
:4026800041047FF40DAF52EA43057FF4EBAE12E74FF0FF3C06E000BF4FF0010C02E000BF4FF0010C4DF804CD4FEA410C7FEA6C5C4FEA430C18BF7FEA6C5C1BD001B050EA92
:4026C000410C0CBF52EA430C91EA030F02BF90EA020F0020704710F1000F91EA030F58BF994208BF90422CBFD8176FEAE37040F0010070474FEA410C7FEA6C5C02D150EA2D
:40270000013C07D14FEA430C7FEA6C5CD6D152EA033CD3D05DF8040B704700BF8446104662468C461946634600E000BF01B5FFF7B7FF002848BF10F1000F01BD4DF808ED52
:40274000FFF7F4FF0CBF012000205DF808FB00BF4DF808EDFFF7EAFF34BF012000205DF808FB00BF4DF808EDFFF7E0FF94BF012000205DF808FB00BF4DF808EDFFF7CEFF32
:4027800094BF012000205DF808FB00BF4DF808EDFFF7C4FF34BF012000205DF808FB00BF4FEA410212F5001215D211D56FF47873B3EB625212D94FEAC12343F0004343EA83
:4027C000505311F0004F23FA02F018BF404270474FF00000704750EA013005D111F0004008BF6FF0004070474FF00000704700BF4FEA4102B2F1E04324BFB3F5001CDCF1C7
:40280000FE5C0DD901F0004C4FEAC0024CEA5070B2F1004F40EB830008BF20F00100704711F0804F21D113F13872BCBF01F00040704741F480114FEA5252C2F11802C2F105
:40284000200C10FA0CF320FA02F018BF40F001004FEAC1234FEAD32303FA0CFC40EA0C0023FA02F34FEA4303CCE77FEA625307D150EA01331EBF4FF0FE4040F4400070475B
:4028800001F0004040F0FE4040F40000704700BF80F0004002E000BF81F0004142001FBF5FEA410392EA030F7FEA226C7FEA236C6AD04FEA1262D2EB1363C1BFD21841409D
:4028C00048404140B8BF5B42192B88BF704710F0004F40F4000020F07F4018BF404211F0004F41F4000121F07F4118BF494292EA030F3FD0A2F1010241FA03FC10EB0C00A1
:40290000C3F1200301FA03F100F0004302D5494260EB4000B0F5000F13D3B0F1807F06D340084FEA310102F10102FE2A51D2B1F1004F40EBC25008BF20F0010040EA030077
:402940007047490040EB000010F4000FA2F10102EDD1B0FA80FCACF1080CB2EB0C0200FA0CF0AABF00EBC25052421843BCBFD0401843704792F0000F81F4000106BF80F41B
:4029800000000132013BB5E74FEA41037FEA226C18BF7FEA236C21D092EA030F04D092F0000F08BF0846704790EA010F1CBF0020704712F07F4F04D1400028BF40F00040A1
:4029C000704712F100723CBF00F50000704700F0004343F0FE4040F4000070477FEA226216BF08467FEA23630146420206BF5FEA412390EA010F40F4800070474FF0000342
:402A000004E000BF10F0004348BF40425FEA000C08BF704743F0964301464FF000001CE050EA010208BF70474FF000030AE000BF50EA010208BF704711F0004302D54042C8
:402A400061EB41015FEA010C02BF84460146002043F0B64308BFA3F18053A3F50003BCFA8CF2083AA3EBC25310DB01FA02FC634400FA02FCC2F12002BCF1004F20FA02F210
:402A800043EB020008BF20F00100704702F1200201FA02FCC2F1200250EA4C0021FA02F243EB020008BF20EADC7070474FF0FF0C1CEAD0521EBF1CEAD15392EA0C0F93EA4E
:402AC0000C0F6FD01A4480EA010C400218BF5FEA41211ED04FF0006343EA501043EA5111A0FB01310CF00040B1F5000F3EBF490041EAD3715B0040EA010062F17F02FD2A43
:402B00001DD8B3F1004F40EBC25008BF20F00100704790F0000F0CF0004C08BF49024CEA502040EA51207F3AC2BFD2F1FF0340EAC250704740F400004FF00003013A5DDCDB
:402B400012F1190FDCBF00F000407047C2F10002410021FA02F1C2F1200200FA02FC5FEA310040F1000053EA4C0308BF20EADC70704792F0000F00F0004C02BF400010F4FA
:402B8000000F013AF9D040EA0C0093F0000F01F0004C02BF490011F4000F013BF9D041EA0C018FE70CEAD15392EA0C0F18BF93EA0C0F0AD030F0004C18BF31F0004CD8D1D9
:402BC00080EA010000F00040704790F0000F17BF90F0004F084691F0000F91F0004F14D092EA0C0F01D142020FD193EA0C0F03D14B0218BF084608D180EA010000F00040DE
:402C000040F0FE4040F40000704740F0FE4040F4400070474FF0FF0C1CEAD0521EBF1CEAD15392EA0C0F93EA0C0F69D0A2EB030280EA010C49024FEA402037D04FF08053BB
:402C400043EA111143EA10130CF000408B4238BF5B0042F17D024FF4000C8B4224BF5B1A40EA0C00B3EB510F24BFA3EB510340EA5C00B3EB910F24BFA3EB910340EA9C00AC
:402C8000B3EBD10F24BFA3EBD10340EADC001B0118BF5FEA1C1CE0D1FD2A3FF650AF8B4240EBC25008BF20F0010070470CF0004C4CEA50207F32C2BFD2F1FF0340EAC25011
:402CC000704740F400004FF00003013A37E792F0000F00F0004C02BF400010F4000F013AF9D040EA0C0093F0000F01F0004C02BF490011F4000F013BF9D041EA0C0195E78D
:402D00000CEAD15392EA0C0F08D142027FF47DAF93EA0C0F7FF470AF084676E793EA0C0F04D14B023FF44CAF08466EE730F0004C18BF31F0004CCAD130F000427FF45CAF9B
:402D400031F000437FF43CAF5FE700BF4FF0FF3C06E000BF4FF0010C02E000BF4FF0010C4DF804CD4FEA40024FEA41037FEA226C18BF7FEA236C11D001B052EA530C18BF5C
:402D800090EA010F58BFB2EB030088BFC81738BF6FEAE17018BF40F0010070477FEA226C02D15FEA402C05D17FEA236CE4D15FEA412CE1D05DF8040B704700BF84460846F1
:402DC0006146FFE70FB5FFF7C9FF002848BF10F1000F0FBD4DF808EDFFF7F4FF0CBF012000205DF808FB00BF4DF808EDFFF7EAFF34BF012000205DF808FB00BF4DF808EDD5
:402E0000FFF7E0FF94BF012000205DF808FB00BF4DF808EDFFF7D2FF94BF012000205DF808FB00BF4DF808EDFFF7C8FF34BF012000205DF808FB00BF4FEA4002B2F1FE4FB9
:402E40000FD34FF09E03B3EB12620DD94FEA002343F0004310F0004F23FA02F018BF404270474FF00000704712F1610F01D1420205D110F0004008BF6FF0004070474FF067
:402E800000007047014B1868704700BF3C81FF1F0E4B70B51E460E4C0025E41AA410A54204D056F8253098470135F8E700F01AFA084B094C1E46E41AA4100025A54204D037
:402EC00056F8253098470135F8E770BDF0320000F0320000F0320000F832000010B5431E0A44914204D011F8014B03F8014FF8E710BD03460244934202D003F8011BFAE7E9
:402F00007047012B30B50ADC920803680C68013A002A40F8044B41F8043BF6DC30BD03460D781C7803F8015B01F8014BD41A0444002CF5DC30BDF8B50F46144606461D461E
:402F400098470028214638460BDAA847002801DA3846F8BD21463046A847002809DB3046F8BDA8470028F3DC21463046A8470028F5DB2046F8BD2DE9F04F06468B461446C7
:402F800085B00093B20707D1A30705D1B4F1040818BF4FF0010801E04FF002083319BBF1060F019326D81F4604FB0B65AF4280F01681B9464E4501D32744F7E7C4EB090A62
:402FC00049465046009B98470028F5DDB8F1000F08D1D9F80030DAF80020C9F80020CAF8003005E04346224651464846FFF789FFD146DFE74FEA5B050BF1FF33BBF1070F02
:4030000004FB0565019326D0BBF1280F04FB036919D94FEADB076743F119CA19009B3046FFF789FFEA192946009B8246E81BFFF782FF0546A9EB47004A46009BC119FFF7AC
:403040007AFF814600E0B2462946009B4A465046FFF771FF0546B8F1000F04D133682A6832602B6005E04346224629463046FFF748FF019B371904FB0365A9463B1902935D
:4030800001970023029AC4EB020A554555D303933146009B504698470028039B24DC15D1B8F1000F08D1019BDAF800201B6801990A60CAF8003005E04346224651460198D5
:4030C000FFF71FFF019B234401930123029A22440292D7E703933146009B284698470028039B18DB03D02D1B5545F3D225E0B8F1000F06D12B68D9F800202A60C9F80030F2
:4031000005E04346224649462846FFF7FAFEC4EB09090123E7E7B8F1000F06D1DAF800302A68CAF800202B6005E04346224629465046FFF7E6FE2D1BC7E704FB0BFB63B3C5
:40314000019B06EB0B079A1BC3EB0A0B5A45A8BF5A462AB14346C2EB0A013046FFF7D1FEC9EB0702C5EB0905121BAA4228BF2A4622B14346B91A5046FFF7C3FE5C4506D25B
:40318000009B2246BBFBF4F13046FFF7F4FEAC4225D27E1BB5FBF4FBF4E6B3445F451ED23D46AE4201D32744F8E7C4EB050929464846009B98470028F5DDB8F1000F06D143
:4031C0002B68D9F800202A60C9F8003005E04346224649462846FFF794FE4D46E1E705B0BDE8F08F0000000031313131313130003031313030303000313130313130310044
:4032000031313131303031003031313030313100313031313031310031303131313131003131313030303000313131313131310031313131303131003030303030303000EA
:4032400030303031313031003030313031303100303031303030300030303130313131003130303131313000313030313131310030303031313131003131313031313000B1
:40328000456E746572204D6F646520310A00000053746172742055415254000040510040300000000140001000140140000800400140000A004C014000020050014020002C
:4032C000605200402808004806000000011121314161536373000000080901010507070404430000F8B500BFF8BC08BC9E4670474D0000005D110000F8B500BFF8BC08BCA0
:403300009E4670472900000018330000C880FF1F78000000E0000000000000000000E02EC05D00001800000000366E010000000000000000000000000000000000000000D8
:40334000000000000000000000000000E13200000000000000000000000000000000000000000000000000000000000000000000000000000000000000000000000000003A
:40338000000000000000000000000000DC80FF1F00000000000000000000000000000000000000000000000000000000000000000000000000000000000000000000000093
:4033C00000000000000000000000000000000000000000000000000000000000000000000000000000000000000000000000000000000000000000000000000000000000CD
:40340000000000000000000000000000000000000000000000000000000000000000000000000000000000000000000000000000000000000000000000000000000000008C
:40344000000000000000000000000000000000000000000000000000000000000000000000000000000000000000000000000000000000000000000000000000000000004C
:40348000000000000000000000000000000000000000000000000000000000000000000000000000000000000000000000000000000000000000000000000000000000000C
:020000040003F7
:0200000480007A
:4000000004520040036400400365004006050140060701405608014046090140480A01403B0B0140030D01405D1401404515014054160140361701404418014039190140F1
:40004000531A0140471B014003400140084101400A42014007430140044401400245014001460140034701400B48014013490140044C01400A4D0140055001400151014062
:400080000904190278087901880F8A0F8B7F870D89728B38811084109350AF50E408E6068E10935098109910E410EA0200070302050808020C070F01110612071B021C0151
:4000C0001F0420042F0233013508360737063F1040154104420649FF4AFF4BFF4F0150185401580459045A045B045D205F016040624064406540668068806A806C806E8014
:4001000087138A018B098D0A91039304971C9E01A31BAB1BAC01AD1BB31FB401BB08BE10C015C104C202C5ECC720C823C9FFCAFFCBFFCD83CE03CF01D018D283D804D904BE
:40014000DA04DB04DF01E040E240E440E540E680E880EA80EC80EE8001200422070209800D800F4010011180150218041B101D8020102108242226802718280129202A02D1
:400180002F02310833013680371239583D043E023F48400441804210430945804602470249054A024E024F205101520253025C825E105F08680C69507340910894309542F5
:4001C0009B039C209D259E02A140A40CAB08AE02C0D2C291C411CA1DCCB3CEDED09DD238D6F0EC01032E0403060C0730080309040A0C0B020C050E0A0F08100F110E1310FC
:400200001502160F17041A101D2E220F240F270128052A0A2B2E2C102D013210333E340F350138083B083E043F1054035604580459045B045F058A0292029B01AC01B002BA
:40024000B401B701BE11C003C704C9FFCA07CBFFCC40CD20CEF0CF05D008D602D728D804D904DA04DB04DD32DE08DF01E040E1A8E240E32000180140042008040A800B08D8
:400280000D01110112281380178019101B081E401F102124220825C0280429282A403008318033013520381039493A0244204F08560859155A406202672069806A806B03E1
:4002C0007640778079807E4083048508860887048D808E20A520C047C21EC48FCA0ECC2BCE0FD040D60FD841DE88A520AD20E808001402080406060809090A0A0B10100684
:4003000012081401170319101D1C1F022110230C251426102C062D0C2E182F11331F3401361E3A803E10404649FF4AFF4BFF4F0150185280580459045A045B045C225D1101
:400340005F016040624064406540668068806A806C806E808205870C8A018B038C068D018E018F0E92039A069B089D0C9F03A101A306A602B007B70FBA02BB80C046C9FF29
:40038000CAFFCBFFCD83CE03CF01D018D804D904DA04DC22DD01DF01E040E240E440E540E680E880EA80EC80EE8000180280041205100702080209080C200D100E800F080A
:4003C000102012011410180219201BC01C801E801F02210826802702280229082A012B422F803010310832803410368039203C903F084240468048084C0872C0812087108C
:400400009120940296409720981099189E809F02A00CA640A910AC04AFA0B320B410B701C0DEC25CC425CA8BCC3ECE74D081D224E401EE0200060A020B010F021006160872
:400440001A012004270430013301340635043608370238203E10404649FF4AFF4BFF4D834E034F015018580459045A045C445D015F016040624064406540668068806A802B
:400480006C806E808002830186028A028D019101920199029E02AA01AC02B202B503B601B920BE44C046C5ECC702C813C9FFCAFFCBFFCD83CE03CF01D018D401D804D904E6
:4004C000DA04DB04DC20DD11DF01E040E240E440E540E680E880EA80EC80EE800008012204020532064008800A400C020D200E90100A148015011702181019801FA12110F0
:40050000251027212F103002311039013A403F5042404680480849054C085008598589088A408B018C018D209210935098109910A120AD20C05EC279C413CA40CC05CE3942
:40054000D081D224D60BE621100114011C01280134013A023E1040214105450E47BC483149FF4AFF4BFF4EF04F44500C58045A045C025D025F0166C06A406B028106830184
:400580008508860C882C89088AC08C0C8D08920C940C9501970699069B019D049E0CA08AA107A221A4E3A502A8E3A906AC45AE32AF01B003B108B2E0B307B410B60CBB08EA
:4005C000D602D712D804D904DB04DC22DD20DF010050031009800B500C040D800E400F11104211141730181019101A811C401D011E44236029812A283084331039543B01B0
:40060000440847404E014F08570958405A84695470887228730481208A018B018C088F409CA09D20A70CB002B104C007C2BDC44FCA0FCC0ECE0FD030D210D602E070E28022
:40064000E6010007014104060504060109730A080B0C0D080E01121013331401150C16061B401C071D4C1F232004217F2402254F2710280629032D022E10330F340736185D
:40068000377C3B883E404065410442024401450E470C481149FF4AFF4BFF4C624DA04EF04F41500C580459045A045C225D025F016640670269106A306B106D106E106F12C7
:4006C00086019001940197019B029E01A302A701B302B601B701B880BF44D418D804D904DB04DC02DD20DF01001001A802800302050C072008810A800B100D800E400F10EE
:40070000108A1240130418011B201F8021802280231025082701288129242FA030083190330236183A413B14408142404320450846A0470149804A104B5052085E0166A04F
:4007400088028E01901092C19344971099109B209D80A088A402A580AF08B020B480C02FC2BDC40FCACFCC6FCE0FD00DD20CD680D830E401E8D030203540CC30020406202B
:4007800007020B809D40A420C0E0C210878093809A049D40A420AE20AF02E410E810EC408E0493809A049D40A780AC20EA4072207C80DC01DE049C80AE209C800340A880A7
:4007C000C00851085202572082408A029D40A780AF40D4E0E680E8100B401B801D405A807780874092809B809D40A780A908AFA0C210C6C0D480DE20E440EAC0EE105301E4
:4008000083409B40D40110807880808088808C80B701C408DC01E603E802000D0C0D10161A161C04000F000014800000400000001E00001E00000000C0000000840040B482
:40084000B400B400000000000B00000B0B000B0000000000F40000FFFF00040000000000FF0000FFFF00000000000000D80000FAEA00020001000000000000000000000032
:400880000000000000000000000000000000000000000000000000000000000000000000000000000000000000000000000000000000000000000000000000000000000038
:4008C00000000000000000000000000000000000000000000000000000000000000000000000000000000000000000000000000000000000000000000000000000000000F8
:4009000000000000000000000000000000000000000000000000000000000000000000000000000000000000000000000000000000000000000000000000000000000000B7
:400940000000000000000000000000000000000000000000000000000000000000000000000000000000000000000000000000000000000000000000000000000000000077
:0200000490006A
:0400000000004005B7
:0200000490105A
:04000000BC90ACAF55
:0200000490303A
:02000000B878CE
:0200000490402A
:4000000000000000000000000000000000000000000000000000000000000000000000000000000000000000000000000000000000000000000000000000000000000000C0
:400040000000000000000000000000000000000000000000000000000000000000000000000000000000000000000000000000000000000000000000000000000000000080
:400080000000000000000000000000000000000000000000000000000000000000000000000000000000000000000000000000000000000000000000000000000000000040
:4000C0000000000000000000000000000000000000000000000000000000000000000000000000000000000000000000000000000000000000000000000000000000000000
:0200000490501A
:0C00000000012E16106900012E2CC8E132
:00000001FF