:400000000080002011000000710900007109000008B5044B1A6803F53F5302331A6000F0AFFC00BFFA46004010B5054C237833B9044B13B10448AFF300800123237010BDD8
:400040004081FF1F00000000041F0000084B10B51BB108490848AFF300800848036803B910BD074B002BFBD0BDE81040184700BF000000004481FF1F041F0000C880FF1FCC
:40008000000000000122014B1A6070476081FF1F10B500F081FF00F093FF044600F0A8FF201A014B586010BD6081FF1F10B501F0A1F8044601F0B6F8201A01F0ABFB0022D4
:4000C000014B01F047FD10BD00408F4038B504460D46FFF7EBFF034BC3E90201C3E9044538BD00BF6081FF1F10B500F055FF00F067FF044600F07CFF201A074B586004A197
:40010000D1E90001FFF7E2FF10BD00BFAFF300809A9999999999B93F6081FF1F38B504460D46FFF7C3FF094BD3E9022301F034FA22462B4601F056FE18B1002001F0AEF8BD
:4001400038BD012001F0AAF838BD00BF6081FF1F08B5012000F0BCFF00F08AFF002000F0B7FF08BD08B5FFF7F3FF08BD014BC3E90A0170476081FF1F38B50D461E4B03EBDC
:40018000C000002305E0C25C303A1C4941F823200133062BF7DD194C2068B0FA80F0400900F048FC6068B0FA80F0400900F04EFCA068B0FA80F0400900F054FCE068B0FA4F
:4001C00080F0400900F05AFC2069B0FA80F0400900F060FC6069B0FA80F0400900F066FCA069B0FA80F0400900F06CFCB5FA85F0400900F073FC38BD081F0000F081FF1F0F
:40020000F8B5B14B1B68002B00F05D8104460D460022002301F004FE002800F0AE80AA4BD3E90C232046294601F0D2FD002840F013810022A54B2046294601F0E7FD50B958
:400240004CE00022A24B2046294601F059FB04460D46013600E0002600229E4B2046294601F0C0FD0028ECD12046294601F0E2FD994981FB0031C217C2EBA111DFF860E257
:400280008EFB0137CB17C3EBA70303EB8303A1EB43038D4FBB63914B83FB0013C2EB63138EFB031CD917C1EBAC0101EB8101A3EB4101F9638EFB0013C2EBA3038EFB032E3F
:4002C000DA17C2EBAE0202EB8202A3EB42023A6403EB8303A0EB43037B643CE000227D4B2046294601F00CFB01F0A4FD7A4E86FB0036C317C3EBA616794A82FB0617F1171E
:40030000C1EBA70101EB8101A6EB41016E4EB163724F87FB0017C3EB671782FB071EF917C1EBAE0101EB8101A7EB4101F16382FB0071C3EBA10382FB0321DA17C2EBA1020D
:4003400002EB8202A3EB4202326403EB8303A0EB430373640326002305E05B4A02EB8302002191640133032BF7DD574B03EB86060122B264C3E90C456EE00022594B204628
:40038000294601F025FD48B14F4B0F229A631022DA6312221A6411225A645DE000224FF040432046294601F013FD48B1464B0D229A630C22DA630B221A640E225A644BE00C
:4003C0000022494B2046294601F002FD40B13E4B0A229A63DA631A645A640122DA643BE00022424B2046294601F0F2FC30B1364B0A229A63DA631A645A642DE0324B0A22CD
:400400009A63DA631A645A640022394B2046294601F0DEFC10B108222B4B9A630022354B2046294601F0D4FC10B10822264BDA630022314B2046294601F0CAFC10B10822BC
:40044000214B1A6400222D4B2046294601F0C0FC10B108221C4B5A641B4CA36D013303F00303A365012000F045FB012000F04EFB012000F057FB012000F060FBA36DC3F17C
:40048000030204EB820204EB8303916C986BFFF773FEA36D1BB9002000F02CFB10E0012B03D1002000F032FB0AE0022B03D1002000F038FB04E0032B02D1002000F03EFB44
:4004C0000022014B1A60F8BD6081FF1F0000F03F0000244000408F40D34D62101F85EB51676666660000F0BF000008C0000010C0000014C0000018C000001CC0000020C004
:4005000010B5054CD4E90401FFF708FED4E90A01FFF776FE10BD00BF6081FF1F38B562B600F0A6FB00F048FB00F074FB00F0FEFD404800F08FFB404800F030FB3F4800F0FB
:400540005BFB032000F030FD3D4800F0E1FD00F00BFC00F03FFC00F0A3FC00F003FD00F0A9FD032000F03AFE00F08AFE00F0A8FE00F010FEFFF79AFD04460D4638E0FFF7CC
:4005800095FD22462B4601F007F801F053FC18B900202C49FFF7EAFDFFF788FD22462B4600F0FAFF01F046FC012803D100202649FFF7DCFDFFF77AFD22462B4600F0ECFF71
:4005C00001F038FC022803D100202049FFF7CEFDFFF76CFD22462B4600F0DEFF01F02AFC032803D100201A49FFF7C0FDFFF788FFFFF75CFD22462B4600F0CEFF0022154B59
:4006000001F0FAFB0028BAD100F05EFE042000F05BFE0446632C03D100200F49FFF7A6FD692C04D100204FF04041FFF79FFDFFF767FFEFE78500000065010000E9000000C8
:4006400091000000000014C0000018C000001CC0000020C0000010400000F0BFFEE700BFF0B40022174611E050F82760F3B226F0FF0608E001EB420511F812406D78A555E6
:400680000132013BDBB2002BF4D101371E2FEBD9F0BC704710B41D4B1B78DBB203F007011B4A11701B09013213704122194B1A70012230331A700C2203F22F731A70402289
:4006C00003F5DA731A70202204331A7080210C33197004200733187002230F480370302408300470033001700C490A7090210C4A11700432137040F205120A4B1A80442298
:40070000A3F2CE231A7010BC704700BFCF0100496E5800400D510040885A0040945A0040D85A0040445B004008B50A46002101F0E0FB08BD38B501222F4B1A801C220233B3
:400740001A704FF49C7202331A8018232B4A137040F25721023211800232137045F6BF5227490A8002310B7002310A80254A13700222254B1A7008224FF040231A7003213B
:4007800003F500731970214B1B78DBB220490B70204B1A8041F25122023B1A80002419250CE01D4B1B7803F0010343EA440404F003044FF4F07000F09BFD013D0DB1032C4D
:4007C000EFD115B90320FFF749FF144B4FF480721A8007221A70002211490A704820023108701A700222033B1A700E4A137843F01F03137038BD00BF804000408640004035
:400800008C400040924000400043004008010049A146004022420040254200400440004006400040A243004008B501F057FB08BD38B572B63A4A137843F00403137000245A
:400840000CE0384D630019194A0011462A44084691882858FFF768FF0134E4B2072CF0D900240BE02F48A20011194B0003441A8F596B186BFFF7D8FF0134E4B2012CF1D9F5
:4008800029494FF09040FFF7EBFE40F20332274B1A80274A137843F0020313701032137843F002031370234C237843F040032370A2F58632513A137843F0100313700A22B9
:4008C0001D491E48FFF7B0FF0A221D491D48FFF7ABFF0A221C491D48FFF7A6FF0A221C491C48FFF7A1FF0A221B491C48FFF79CFF1B4A137843F0080313701A4D61232B7018
:40090000FFF718FF81232B700122174B1A70FFF7C1FE0E2221461548FFF786FF38BD00BFE8460040A01F00007C0000484E58004003500140A0430040C00700480051004056
:40094000CC070048C0510040D807004810510040E407004820510040F007004830510040224300400048004004000840B043004008B501F087FA03680C2B00D1FEE7FEE747
:4009800008B5104E104D16E029686B68AC68002204E051F8040B43F8040B0432A242F8D1E868002203E0002143F8041B04328242F9D11035013E002EE6D101F069FAFFF77F
:4009C000ADFDFEE7010000002020000008B5104A104B1A60104A136843F40073136000230AE0032B03D80D4A52F8231000E00C490C4A42F8231001332F2BF2D90A4B1A7827
:400A00000A4B1A70074A0A4B1A60FFF711FF08BD0004FA050CED00E014ED00E000000000710900000080FF1FBC760040C080FF1F08ED00E0044A137803F0FB03800000F038
:400A4000040018431070704720510040044A137803F0FE0300F0010018431070704700BF20510040044A137803F0EF03000100F0100018431070704720510040044A137894
:400A800003F0BF03800100F0400018431070704720510040044A137803F07F03C001C0B218431070704700BF20510040044A137803F0FD03400000F002001843107070477A
:400AC00020510040044A137803F0F703C00000F0080018431070704720510040044A137803F0DF03400100F0200018431070704720510040044A137803F07F03C001C0B2C1
:400B000018431070704700BF10510040044A137803F0DF03400100F0200018431070704710510040044A137803F0BF03800100F0400018431070704710510040044A137846
:400B400003F0EF03000100F010001843107070471051004008B5034B1B7A00FB03F000F0C7FB08BDCC80FF1F014B1B681864704708ED00E04001C0B2014B1870704700BF19
:400B800000E400E00122014B1A60704700E100E00122014B1A60704780E100E010B50446FFF7F6FF2046FFF7DFFF0720FFF7E2FFFFF7E8FF10BD00BF0122014B1A607047F4
:400BC00080E200E0014B1B685864704708ED00E04001C0B2014B1870704700BF01E400E00222014B1A60704700E100E00222014B1A60704780E100E010B50446FFF7F6FF9C
:400C00002046FFF7DFFF0720FFF7E2FFFFF7E8FF10BD00BF0222014B1A60704780E200E0014B1B68D864704708ED00E04001C0B2014B1870704700BF03E400E00822014B5F
:400C40001A60704700E100E00822014B1A60704780E100E010B50446FFF7F6FF2046FFF7DFFF0620FFF7E2FFFFF7E8FF10BD00BF0822014B1A60704780E200E0084A13783A
:400C800043F0040313701032137843F00403137002F5A5521E32137843F0800313707047A9430040044A137803F0FC0300F0030018431070704700BF0958004010B487B05D
:400CC0000446194B03AA1868596803C2197A11706A4653F80C0F596803C21B7A1370082C1ED812490B7803F08003DBB20B70087806AB1C4414F80C3C14F8182C920002F08C
:400D00000C02134303430B70094A137803F0F3031370117814F8183C0B4343F00C03137007B010BC704700BFE41F00000A5800400958004008B50C22084B1A70084A137864
:400D400043F0200313700022064B1A700420FFF7B5FF0120FFF7A6FF08BD00BF08580040095800400A58004008B5054B1B7823B9FFF7E0FF0122024B1A70FFF77FFF08BD28
:400D8000C881FF1F084A137843F060031370A2F5A652133A137843F0040313701032137843F004031370704777580040054B1A7802F0FC021A701A7800F0030010431870A6
:400DC000704700BF5C58004008B50120FFF7EEFF08BD00BF08B5054B1B7823B90122034B1A70FFF7F1FFFFF7CDFF08BDC981FF1F054A137843F0080313701032137843F05D
:400E000008031370704700BFA74300400F490B7803F0FC0200F0030313430B7001280AD10B4B1B78DBB20B4A13700B4B1B78DBB2013213707047094B1B78DBB2054A137076
:400E4000074B1B78DBB201321370704743580040130100493646004017010049B3010049BB01004908B50120FFF7D0FF0B4B1A7842F020021A701A7802F0FB021A701A7836
:400E800042F008021A7003F527731A7802F0E7021A701A7842F010021A7008BD4358004008B5054B1B7823B9FFF7DCFF0122024B1A70FFF79DFF08BDCA81FF1F054A137802
:400EC00043F0020313701032137843F002031370704700BFA8430040054B1A7802F0FD021A701A7800F0020010431870704700BF24580040014B1870704700BF815B0040BA
:400F0000064B1B78C3F3810303F19243063393F83031DBB2024A1370704700BF245800400946004008B5064B1A7802F0F3021A701A7800F00C0010431870FFF7E1FF08BD73
:400F40002458004010B50024054B1C7001331C700420FFF7E7FF2046FFF7BEFF10BD00BF2458004008B5074B1B7823B9FFF7EAFF0122044B1A70FFF7A1FFBB20FFF7BAFF56
:400F800008BD00BFCB81FF1F024A137843F080031370704774650040024A137803F07F031370704774650040014B1870704700BF85650040014B1878704700BF65650040F4
:400FC000014B188880B27047486A0040014B1880704700BF486A0040014B188880B27047886A0040014B1880704700BF086A0040024B1B78024B188880B27047046500406C
:40100000886A004000F00300044B1A7802F0FC021A701A7810431870704700BF7465004008B501E0FFF7D8FFFFF7C4FF10F0080FF8D108BD08B54CF24F30FFF7C7FF4CF2F7
:401040004F30FFF7CFFF00F05BF9084A137843F01003137000F058F90020FFF7D3FFFFF7DFFF0720FFF7A0FF08BD00BF9565004008B5054B1B7823B9FFF7DCFF0122024B0F
:401080001A70FFF781FF08BDCC81FF1F0922014B1A7070478765004008B500F031F9044A137843F02003137000F02EF908BD00BF9765004008B5054B1B7823B9FFF7E6FF65
:4010C0000122024B1A70FFF7E7FF08BDCD81FF1F014B1870704700BF76650040014B1B689864704708ED00E04001C0B2014B1870704700BF02E400E00422014B1A607047C7
:4011000000E100E00422014B1A60704780E100E010B50446FFF7F6FF2046FFF7DFFF0720FFF7E2FFFFF7E8FF10BD00BF0422014B1A60704780E200E07222074B1A702022D8
:4011400001331A7006225F3B1A70472210331A700022B33B1A7070478965004010B500F0CFF804460A4A137843F0200313700132137843F010031370A2F58172137843F063
:401180001003137000F014F8204600F0BDF810BD9965004008B5054B1B7823B9FFF7CCFF0122024B1A70FFF7D9FF08BDCE81FF1F054A137843F0020313701032137843F0BB
:4011C00002031370704700BFA2430040024A137843F08003137070477A640040014B1870704700BF8B640040014B1878704700BF6B640040014B1868704700BF28640040FF
:40120000014B1860704700BF28640040014B1868704700BF48640040014B1860704700BF08640040024B1B78024B1868704700BF086400404864004008B501E0FFF7E6FF60
:40124000FFF7D2FF10F0080FF8D108BD08B54FF0FF30FFF7D5FF4FF0FF30FFF7DDFF00F04FF8064A137843F01003137000F04CF8FFF7E2FF0020FFF7B1FF08BD9B6400401D
:4012800008B5054B1B7823B9FFF7E0FF0122024B1A70FFF79BFF08BDD081FF1F044A137803F0F703C00000F008001843107070473051004008B500F081F800F089F808BDF2
:4012C00008B5FFF7F7FF08BD38B5044600F018F8054600F0A7F804F1804000F500400478E4B200F0ADF8284600F00EF8204638BD0230800803D000BF01380046FCD17047D0
:40130000EFF3108072B6704780F31088704700BF10B500F09DF800F0E5F810BB012000F0C3F8072818D102210F4800F0A3F802280AD102E00120FFF70DFC0C4B1B7813F01C
:40134000020FF7D0002409E0084B1B7813F0020FE9D04FF0FF3401E04FF0FF3400F0E8F800E00424204610BD0C82FF1F2247004010B500F06DF800F0B5F8D0B900F0F4F894
:401380000446072812D102E00120FFF7E3FB0A4B1B7813F0020FF7D0074B1B7813F0020F04D0054B1B789B0800D1002400F0C0F800E00424204610BD2247004008B5FFF7B0
:4013C000D7FF034610B9FFF7A3FF0346184608BD08B5FFF795FF0F4A137843F0080313701032137843F008031370C8220A4B1A700A4A137843F0100313701032137843F016
:4014000010031370064B1B7813F0200FFAD0FFF77BFF08BDA043004001470040AC43004000470040054A137843F001031370034B1B7813F0020FFAD0704700BF024700404E
:40144000024A137803F0FE03137070470247004008B5FFF755FF064A137843F0080313701032137843F008031370FFF74DFF08BDA043004070B506460D4600240CE001208E
:40148000FFF768FB064B1B7813F0010FF7D0054B1B7833550134E4B2AC42F3D3204670BD22470040204700400C4B1B7813F0020F0FD00B4BB6221A70E1221A700E221A706C
:4014C00002331B7813F0020F05D1054B187007207047042070470920704700BF224700402047004010B5FFF70BFF0F4B1B78A3B901220D4B1A700D4B1B6813F0010F0ED0DB
:401500000A4A136823F00103136000BF00BF00BF0122054B5A60002402E0042400E00024FFF7F2FE204610BDD481FF1F0400084008B5FFF7E5FE0A4B00221A705B68012B58
:401540000AD1084A136843F00103136000BF00BF00BF0022024B5A60FFF7D6FE08BD00BFD481FF1F04000840074B1B7813F0020F08D0064BB6221A70E0221A700D221A70DD
:401580000720704704207047224700402047004081F0004102E000BF83F0004330B54FEA41044FEA430594EA050F08BF90EA020F1FBF54EA000C55EA020C7FEA645C7FEA4A
:4015C000655C00F0E2804FEA5454D4EB5555B8BF6D420CDD2C4480EA020281EA030382EA000083EA010180EA020281EA0303362D88BF30BD11F0004F4FEA01314FF4801C45
:401600004CEA113102D0404261EB410113F0004F4FEA03334CEA133302D0524263EB430394EA050F00F0A780A4F10104D5F1200E0DDB02FA0EFC22FA05F2801841F1000116
:4016400003FA0EF2801843FA05F359410EE0A5F120050EF1200E012A03FA0EFC28BF4CF0020C43FA05F3C01851EBE37101F0004507D54FF0000EDCF1000C7EEB00006EEB36
:401680000101B1F5801F1BD3B1F5001F0CD349085FEA30004FEA3C0C04F101044FEA445212F5800F80F09A80BCF1004F08BF5FEA500C50F1000041EB045141EA050130BDD5
:4016C0005FEA4C0C404141EB010111F4801FA4F10104E9D191F0000F04BF01460020B1FA81F308BF2033A3F10B03B3F120020CDA0C3208DD02F1140CC2F10C0201FA0CF073
:4017000021FA02F10CE002F11402D8BFC2F1200C01FA02F120FA0CFCDCBF41EA0C019040E41AA2BF01EB0451294330BD6FEA04041F3C1CDA0C340EDC04F11404C4F12002C4
:4017400020FA04F001FA02F340EA030021FA04F345EA030130BDC4F10C04C4F1200220FA02F001FA04F340EA0300294630BD21FA04F0294630BD94F0000F83F4801306BF1C
:4017800081F480110134013D4EE77FEA645C18BF7FEA655C29D094EA050F08BF90EA020F05D054EA000C04BF1946104630BD91EA030F1EBF0021002030BD5FEA545C05D189
:4017C0004000494128BF41F0004130BD14F580043CBF01F5801130BD01F0004545F0FE4141F470014FF0000030BD7FEA645C1ABF194610467FEA655C1CBF0B46024650EAD2
:40180000013406BF52EA033591EA030F41F4002130BD00BF90F0000F04BF0021704730B54FF4806404F132044FF000054FF0000150E700BF90F0000F04BF0021704730B5C1
:401840004FF4806404F1320410F0004548BF40424FF000013EE700BF42004FEAE2014FEA31014FEA02701FBF12F07F4393F07F4F81F06051704792F0000F14BF93F07F4F2F
:40188000704730B54FF4607401F0004521F0004120E700BF50EA010208BF704730B54FF000050AE050EA010208BF704730B511F0004502D5404261EB41014FF4806404F170
:4018C00032045FEA915C3FF4DCAE4FF003025FEADC0C18BF03325FEADC0C18BF033202EBDC02C2F1200300FA03FC20FA02F001FA03FE40EA0E0021FA02F11444C1E600BF5B
:4019000070B54FF0FF0C4CF4E06C1CEA11541DBF1CEA135594EA0C0F95EA0C0F00F0DEF82C4481EA030621EA4C5123EA4C5350EA013518BF52EA033541F4801143F480137B
:4019400038D0A0FB02CE4FF00005E1FB02E506F00042E0FB03E54FF00006E1FB03569CF0000F18BF4EF0010EA4F1FF04B6F5007F64F5407404D25FEA4E0E6D4146EB060684
:4019800042EAC62141EA55514FEAC52040EA5E504FEACE2EB4F1FD0C88BFBCF5E06F1ED8BEF1004F08BF5FEA500E50F1000041EB045170BD06F0004646EA010140EA020038
:4019C00081EA0301B4EB5C04C2BFD4EB0C0541EA045170BD41F480114FF0000E013C00F3AB8014F1360FDEBF002001F0004170BDC4F10004203C35DA0C341BDC04F114043F
:401A0000C4F1200500FA05F320FA04F001FA05F240EA020001F0004221F0004110EBD37021FA04F642EB06015EEA430E08BF20EAD37070BDC4F10C04C4F1200500FA04F338
:401A400020FA05F001FA04F240EA020001F0004110EBD37041F100015EEA430E08BF20EAD37070BDC4F1200500FA05F24EEA020E20FA04F301FA05F243EA020321FA04F066
:401A800001F0004121FA04F220EA020000EBD3705EEA430E08BF20EAD37070BD94F0000F0FD101F00046400041EB010111F4801F08BF013CF7D041EA060195F0000F18BFAB
:401AC000704703F00046520043EB030313F4801F08BF013DF7D043EA0603704794EA0C0F0CEA135518BF95EA0C0F0CD050EA410618BF52EA4306D1D181EA030101F00041AD
:401B00004FF0000070BD50EA410606BF1046194652EA430619D094EA0C0F02D150EA013613D195EA0C0F05D152EA03361CBF104619460AD181EA030101F0004141F0FE41AE
:401B400041F470014FF0000070BD41F0FE4141F4780170BD70B54FF0FF0C4CF4E06C1CEA11541DBF1CEA135594EA0C0F95EA0C0F00F0A7F8A4EB050481EA030E52EA03350E
:401B80004FEA013100F088804FEA03334FF0805545EA131343EA12634FEA022245EA111545EA10654FEA00260EF000419D4208BF964244F1FD0404F5407402D25B084FEA83
:401BC0003202B61A65EB03055B084FEA32024FF480104FF4002CB6EB020E75EB030E22BFB61A754640EA0C005B084FEA3202B6EB020E75EB030E22BFB61A754640EA5C00CF
:401C00005B084FEA3202B6EB020E75EB030E22BFB61A754640EA9C005B084FEA3202B6EB020E75EB030E22BFB61A754640EADC0055EA060E18D04FEA051545EA16754FEA9B
:401C400006164FEAC30343EA52734FEAC2025FEA1C1CC0D111F4801F0BD141EA00014FF000004FF0004CB6E711F4801F04BF01430020B4F1FD0C88BFBCF5E06F3FF6AFAEE3
:401C8000B5EB030C04BFB6EB020C5FEA500C50F1000041EB045170BD0EF0004E4EEA113114EB5C04C2BFD4EB0C0541EA045170BD41F480114FF0000E013C90E645EA060E43
:401CC0008DE60CEA135594EA0C0F08BF95EA0C0F3FF43BAF94EA0C0F0AD150EA01347FF434AF95EA0C0F7FF425AF104619462CE795EA0C0F06D152EA03353FF4FDAE104601
:401D0000194622E750EA410618BF52EA43067FF4C5AE50EA41047FF40DAF52EA43057FF4EBAE12E74FF0FF3C06E000BF4FF0010C02E000BF4FF0010C4DF804CD4FEA410C4D
:401D40007FEA6C5C4FEA430C18BF7FEA6C5C1BD001B050EA410C0CBF52EA430C91EA030F02BF90EA020F0020704710F1000F91EA030F58BF994208BF90422CBFD8176FEA1E
:401D8000E37040F0010070474FEA410C7FEA6C5C02D150EA013C07D14FEA430C7FEA6C5CD6D152EA033CD3D05DF8040B704700BF8446104662468C461946634600E000BF76
:401DC00001B5FFF7B7FF002848BF10F1000F01BD4DF808EDFFF7F4FF0CBF012000205DF808FB00BF4DF808EDFFF7EAFF34BF012000205DF808FB00BF4DF808EDFFF7E0FFCB
:401E000094BF012000205DF808FB00BF4DF808EDFFF7CEFF94BF012000205DF808FB00BF4DF808EDFFF7C4FF34BF012000205DF808FB00BF4FEA410212F5001215D211D5AF
:401E40006FF47873B3EB625212D94FEAC12343F0004343EA505311F0004F23FA02F018BF404270474FF00000704750EA013005D111F0004008BF6FF0004070474FF0000031
:401E8000704700BF014B1868704700BF3C81FF1F0E4B70B51E460E4C0025E41AA410A54204D056F8253098470135F8E700F0A6F8084B094C1E46E41AA4100025A54204D0FE
:401EC00056F8253098470135F8E770BD0820000008200000082000001020000010B5431E0A44914204D011F8014B03F8014FF8E710BD03460244934202D003F8011BFAE7E1
:401F00007047000000000000313131313131300030313130303030003131303131303100313131313030310030313130303131003130313130313100313031313131310099
:401F400031313130303030003131313131313100313131313031310030303030303030003030303131303100303031303130310030303130303030003030313031313100C6
:401F80003130303131313000313030313131310030303031313131003131313031313000405100403000F05100401000000001400010001401400006801A014080010040F5
:401FC0000140000A004C0140000200500140200060520040380700480600001A0140400700488000011121314161536373000000080901010507070404430000F8B500BF61
:40200000F8BC08BC9E4670474D000000CD090000F8B500BFF8BC08BC9E4670472900000030200000C880FF1F78000000D0000000000000000000E02EC05D00001800000081
:4020400000366E010000000000000000000000000000000000000000000000000000000000000000F91F0000000000000000000000000000000000000000000000000000A3
:40208000000000000000000000000000000000000000000000000000000000000000000000000000DC80FF1F000000000000000000000000000000000000000000000000A6
:4020C00000000000000000000000000000000000000000000000000000000000000000000000000000000000000000000000000000000000000000000000000000000000E0
:40210000000000000000000000000000000000000000000000000000000000000000000000000000000000000000000000000000000000000000000000000000000000009F
:40214000000000000000000000000000000000000000000000000000000000000000000000000000000000000000000000000000000000000000000000000000000000005F
:40218000000000000000000000000000000000000000000000000000000000000000000000000000000000000000000000000000000000000000000000000000000000001F
:020000040003F7
:0200000480007A
:4000000002520040026400400465004003050140010701406108014044090140580A01402A0B0140491401403E150140371601403217014045180140471901401C1A0140FA
:40004000441B014004400140054101400742014004430140044401400245014002460140054701400948014015490140024C0140074D0140055001400151014018A21982C8
:40008000880F8B0D850F877F89728A389B40AB40E0019B40011C03220603072009100A020D140E06110913101530170C192C1A011B111C061E011F0326052B202C08311FDE
:4000C0003207340837203A083E103F40405349FF4AFF4BFF4F0150185401580459045A045B045C115D145F016040624064406540668068806A806C806E808101830285034A
:40010000880289048C02900191049402950399029B019C02A401A801AB04AF04B002B304B401B503B908BE01C053C9FFCAFFCBFFCD83CE03CF01D018D804D904DA04DC1120
:40014000DD04DF01E040E240E440E540E680E880EA80EC80EE8000800120030205040604070109080A820B200E010F041008110414021602170419111A041D041E28202011
:40018000222024402640274029202B022D102F083008322136113745380239043B203DA03E013F0440204420451446044B404F405C025D105E88920193C097049B049E046F
:4001C0009F02A104A611A708B001B401C0E3C2CDC4A6CA2CCCF7CEF7D042D218D6F001010F0120012A013601370138803E403F40405349FF4AFF4BFF4D834E034F01501848
:400200005280580459045A045B045D445F016040624064406540668068806A806C806E80810A830487058A109201930894029503961C970C99039A019B049C189E06A21887
:40024000A402A60CA903AA06AB04B001B50FB61EBA80BB20BE01C053C5ECC702C813C9FFCAFFCBFFCD83CE03CF01D018D401D804D904DA04DB04DC11DD44DF01E040E240E7
:40028000E440E540E680E880EA80EC80EE8006040E210F48110113221608170518021C401E011F40200227042F0836113705388039013E093F04410845044B404D044F415D
:4002C000550C57045C405D045F01734080408320C040C2F0C47ACA20CCE0CEC9D042D218D6D0020F080F09010C0F0F031005120A160F17011C031E0C2405260A28032A0C40
:400300003302340F35013F1040634104420249FF4AFF4BFF4F0150185283580459045A045B045F016040624064406540668068806A806C806E809601B601C063C105C2023E
:40034000C5ECC620C80BC9FFCAFFCBFFCD83CE03CF01D018D403D604D804DA04DB04DC04DF05E040E240E440E540E680E880EA80EC80EE80001001400240080409800A8082
:400380000F10101819201F80201021303004320838503A4041104260452046204A084D404E084F0556205D205F85648068086A8070027D40848087808B1890409140924081
:4003C0009410968098109B809E20A180A208A308A40AAA01B340C00BC22DC406CC02CE0CD067D234D6F0D880DE10E220E480EA040B012E012F01310132013F01580459046E
:400400005B045C045F0181E3820283048520865C871B885C891B8C1F8E208F1C91E09210965D97099A019B1B9D0A9E01A008A140A204A580A660A804AA08AB13AE80AFE009
:40044000B003B3E0B47CB680B71FBA20BB80D602D72CD804D904DB04DD20DE08DF0100100142032009180A810C100E04101B1280174019931A051B401F0821CC22882780C0
:40048000280129102B502D803008310132403320381239883D203E203F2062016C016D406E407340794090409B40A320A840AB20C00FC20FC48FCA1FCC0FCE2FD801DE0833
:4004C000EE040C01140218041E0224023001360638803E0140314102460B47EC483449FF4AFF4BFF4EF04F44500C58045A045C015D015F0166C06A406B02810484028518AB
:40050000880F8B048C018D20900C910792039318951F960398039B039C039D109E0CA008A404A508A80CA91CAB01AC0FAD1CAF02B11FB520B60FBA80BB0ABF10D602D7131A
:40054000D804D904DB04DC11DD10DF0101600220070208810A2A0B400E210F0410801202131817041A021E021F02208821082340280129202A08308031183211361037205B
:40058000384A392047A45540560257085901680869146A8070847208731884048B848D088E02904092059380940295049682970499119B049D209E069F02A010A230A4482E
:4005C000A548A601A708C087C2EFC42FCA0ECC0FCE0FD070D601E402EE0487028B0195069906A104A701B106B501B902BF11C001C704C9FFCA07CBFFCC40CD20CEF0CF0540
:40060000D008D904DA04DD01DF01E040E1A8E240E3200040032009080A050B401082131819A01A011B2120012110220524042780288029202A082C202F4032263610370401
:40064000380239143B403C203F0440C14108420C478049804F04502256045A02600463028C018D409114920493D0940295609608970498809B0C9D209E04A090A108A232E6
:40068000AB02B302C005C20FC40FCAC7CC67CE6FD01FD208D601D80CE820320133203644CCF00A809602A644A720C21083209602A644A720AA40E080EC8096029F20A6449E
:4006C000A72078407C40DC01DE0494409C4094409C400320B040B440C008E803272096029A029F20A644A720AA02C880EE200B80191056025A025F0266028110820486012A
:4007000087208A408B4296029A02A644A720C210C640D6E0D880E6508601AB2012807E018E809202C408DE04E20200120C1210171A151C0200FF00009080000040000000F0
:4007400000220091060709000007000009000660076008000F61000E004409110000100004600000020000600600006000001000106000070E80071800002000000001401E
:40078000420305000100E0C028FFFFFF62A0F0410C0000001800000004040404111100010000000000004002001030100010101200000000000000000000000000000000DB
:4007C0001E00001E00000000C0000000800040B0B000B00000000000F00000FBFB00000000000000FF0000FFFF00000000000000180000FAEA00E20001000000000000006B
:4008000000000000000000000000000000000000000000000000000000000000000000000000000000000000000000000000000000000000000000000000000000000000B8
:400840000000000000000000000000000000000000000000000000000000000000000000000000000000000000000000000000000000000000000000000000000000000078
:400880000000000000000000000000000000000000000000000000000000000000000000000000000000000000000000000000000000000000000000000000000000000038
:4008C00000000000000000000000000000000000000000000000000000000000000000000000000000000000000000000000000000000000000000000000000000000000F8
:0200000490006A
:0400000000004005B7
:0200000490105A
:04000000BC90ACAF55
:0200000490303A
:020000009CF969
:0200000490402A
:4000000000000000000000000000000000000000000000000000000000000000000000000000000000000000000000000000000000000000000000000000000000000000C0
:400040000000000000000000000000000000000000000000000000000000000000000000000000000000000000000000000000000000000000000000000000000000000080
:400080000000000000000000000000000000000000000000000000000000000000000000000000000000000000000000000000000000000000000000000000000000000040
:4000C0000000000000000000000000000000000000000000000000000000000000000000000000000000000000000000000000000000000000000000000000000000000000
:0200000490501A
:0C00000000012E16106900012E24AD62D4
:00000001FF