:400000000080002011000000A10B0000A10B000008B5044B1A6803F53F5302331A6000F0C7FD00BFFA46004010B5054C237833B9044B13B10448AFF300800123237010BD5B
:400040004081FF1F00000000F0260000084B10B51BB108490848AFF300800848036803B910BD074B002BFBD0BDE81040184700BF000000004481FF1FF0260000C880FF1FE6
:400080000000000000680B68C01A70470122014B1A6070476081FF1F70B505460C462D4B042202F0EEF914F0010F23D104EBD474641004F18043023B04F18042013A55F815
:4000C000221055F8230002F05BF855F8241002F057F8631C55F8231002F052F8023455F8241002F04DF801F0DFFC00221A4B01F059FE2BE0661E06EBD676761006F1804387
:40010000023B06F18042013A55F8221055F8230002F036F855F8261002F032F8013404EBD474641055F8241002F02AF8631C55F8231002F025F8023455F8241002F020F89C
:4001400001F0B2FC0022054B01F02CFE01F0C2FF70BD00BF85000000000014400000184010B501F037F9044601F04CF9201A01F079FC0022014B01F015FE10BD00408F4030
:4001800038B50346002506E0154A82FB0312DB17C3EBA2030135002BF6D16A1E0EE0104B83FB0031C317C3EBA1031C4603EB83035900431A0B498B542046013A002AEEDAA2
:4001C000002409E0074B185D3030C0B201F0B8F8052000F0D7FD0134A542F3DC38BD00BF67666666F081FF1F10B500F0CBFF00F0DDFF044600F0F2FF201A034B5860002230
:400200009A60FFF7BDFF10BD6081FF1F38B504460D46FFF7A5FF094BD3E9042301F0E4FA22462B4601F006FF18B1002001F026F938BD012001F022F938BD00BF6081FF1F7F
:4002400008B5012001F03AF8962000F0B1FD002001F034F801F002F80122014B9A6008BD6081FF1F0000000010B501F059F9124801F048F9FFF7E4FF104B9B68012BFBD012
:400280000E4C606801F0FEFB09A3D3E9002301F089FDC4E908010022094B01F059FC0022084B01F055FCC4E90A0110BDAFF30080000000000088C340E90100006081FF1FEC
:4002C000000041400000E03F70B59EB02822002114A802F094F850220021684602F08FF8002617E0FFF7C0FF1EAB03EB840501F0F1FE45F8280C013400E00024092CF1DDED
:400300000A2114A8FFF7C8FE1EAB03EB860343F8780C0136132EF0DD14216846FFF7BCFE01F0C2FB1EB070BD014BC3E90C0170476081FF1F38B50D461E4B03EBC000002365
:4003400005E0C25C303A1C4941F823200133062BF7DD194C2068B0FA80F0400900F082FC6068B0FA80F0400900F088FCA068B0FA80F0400900F08EFCE068B0FA80F0400909
:4003800000F094FC2069B0FA80F0400900F09AFC6069B0FA80F0400900F0A0FCA069B0FA80F0400900F0A6FCB5FA85F0400900F0ADFC38BDF42600000082FF1FF8B5B54B33
:4003C0001B68002B00F0968104460D46002305E0B04A02EB8302002191630133032BF7DD002200232046294601F042FE002800F0AE80A84BD3E912232046294601F010FEA3
:40040000002840F023810022A34B2046294601F025FE50B94CE00022A04B2046294601F097FB04460D46013600E0002600229C4B2046294601F0FEFD0028ECD120462946CF
:4004400001F020FE974F87FB0037C317C3EBA717954A82FB071EF917C1EBAE0101EB8101A7EB41018B4F3965904981FB001EC3EB6E1E82FB0E1C4FEAEE71C1EBAC0101EBB1
:400480008101AEEB4101796582FB00E1C3EBA10382FB0321DA17C2EBA10202EB8202A3EB4202BA6503EB8303A0EB4303FB653CE000227B4B2046294601F04AFB01F0E2FD89
:4004C000784E86FB0036C317C3EBA616764A82FB0617F117C1EBA70101EB8101A6EB41016C4E3165714F87FB0017C3EB671782FB071EF917C1EBAE0101EB8101A7EB410120
:40050000716582FB0071C3EBA10382FB0321DA17C2EBA10202EB8202A3EB4202B26503EB8303A0EB4303F3650326002305E0594A02EB8302002191630133032BF7DD554B9B
:4005400003EB86060122B263C3E912457EE0002200232046294601F063FD40B14D4B00221A655A659A65DA6501229A636EE000224F4B2046294601F053FD48B1454B0F22DC
:400580001A6510225A6512229A651122DA655DE000224FF040432046294601F041FD48B13C4B0D221A650C225A650B229A650E22DA654BE000223F4B2046294601F030FD81
:4005C00040B1344B0A221A655A659A65DA650122DA633BE00022384B2046294601F020FD30B12C4B0A221A655A659A65DA652DE0284B0A221A655A659A65DA6500222F4B1C
:400600002046294601F00CFD10B10822214B1A6500222B4B2046294601F002FD10B108221C4B5A650022274B2046294601F0F8FC10B10822174B9A650022234B20462946A8
:4006400001F0EEFC10B10822124BDA65114C236E013303F003032366012000F063FB012000F06CFB012000F075FB012000F07EFB236EC3F1030204EB820204EB8303916B54
:40068000186DFFF757FE236E03BB002000F04AFB2DE000BF6081FF1F0000F03F0000244000408F40D34D6210676666661F85EB510000F0BF000008C0000010C0000014C033
:4006C000000018C000001CC0000020C0012B03D1002000F033FB0AE0022B03D1002000F039FB04E0032B02D1002000F03FFB0022014B1A60F8BD00BF6081FF1F10B5184C46
:40070000D4E90601FFF782FDD4E90C01FFF756FE002000F085FB002000F09AFB002000F08BFB636E13B9012000F07AFB0C4B5B6E012B02D1012000F08BFB094B5B6E022B7E
:4007400002D1012000F078FB054B5B6E032B05D1012000F07DFB012000F06EFB10BD00BF6081FF1F38B562B600F054FB414800F043FB00F0D5FE032000F00CFD3E4800F027
:40078000C1FE00F0E7FB00F01BFC00F07FFC00F0DFFC00F085FD032000F010FE00F060FE00F07EFE00F0BEFD344800F0DFFD202000F0C6FDFFF7D4FC04460D4638E0FFF7C7
:4007C000CFFC22462B4601F00FF801F05BFC18B900202B49FFF7A8FDFFF7C2FC22462B4601F002F801F04EFC012803D100202549FFF79AFDFFF7B4FC22462B4600F0F4FFE8
:4008000001F040FC022803D100201F49FFF78CFDFFF7A6FC22462B4600F0E6FF01F032FC032803D100201949FFF77EFDFFF766FFFFF796FC22462B4600F0D6FF0022144B2D
:4008400001F002FC0028BAD100F02EFE114B9866042000F029FE104B1870FFF781FC00F065FE18B9FFF730FDFFF75EFDFFF746FFF5E700BF8D000000E90100008C27000037
:40088000000014C0000018C000001CC0000020C0000010406081FF1F1C82FF1FFEE700BFF0B40022174611E050F82760F3B226F0FF0608E001EB420511F812406D78A55529
:4008C0000132013BDBB2002BF4D10137202FEBD9F0BC70471A4B1B78DBB203F00701194A11701B09013213704122174B1A70012230331A700C2203F22F731A70402203F518
:40090000CA731A701023114A13700C32137004210732117080217C3211700132137020220B490A7040310B700A4B1A7040F2051268331A804422A3F2CE231A70704700BF74
:40094000CF0100496E5800400D510040045A0040985A0040DC5A004008B50A46002101F04EFD08BD38B501222D4B1A801C2202331A704FF49C7202331A801823294A1370D5
:4009800040F25721023211800232137045F6BF5102321180023213700222234B1A7008224FF040231A70032103F5007319701F4B1B78DBB21E490B701E4B1A8041F25122AB
:4009C000023B1A80002419250CE01B4B1B7803F0010343EA440404F003044FF4F07000F0AFFD013D0DB1032CEFD115B90320FFF755FF124B4FF480721A8007221A7000220C
:400A00000F490A704820023108701A700222033B1A700C4A137843F00F03137038BD00BF80400040864000400043004008010049A14600402242004025420040044000402D
:400A400006400040A243004008B501F0CDFC08BD38B572B63C4A137843F00403137000240CE03A4D630019194A0011462A44084691882858FFF770FF0134E4B2062CF0D95F
:400A800000240BE03148A20011194B0003449A8E196BD86AFFF7D8FF0134E4B2012CF1D92B494FF09040FFF7FBFE40F20332294B1A80294A137843F0020313701032137866
:400AC00043F002031370254C237843F040032370A2F58632513A137843F0100313700A221F492048FFF7B0FF0A221F491F48FFF7ABFF0A221E491F48FFF7A6FF0A221E4994
:400B00001E48FFF7A1FF0A221D491E48FFF79CFF0A221D491D48FFF797FF1D4A137843F0080313701B4D61232B70FFF71BFF81232B700122184B1A70FFF7CCFE0E222146BD
:400B40001648FFF781FF38BDE846004098270000840000484E58004003500140A0430040C007004800510040CC070048C0510040D8070048F0510040E4070048105100408E
:400B8000F007004820510040FC07004830510040224300400048004004000840B043004008B501F0F5FB03680C2B00D1FEE7FEE708B5104E104D16E029686B68AC680022AA
:400BC00004E051F8040B43F8040B0432A242F8D1E868002203E0002143F8041B04328242F9D11035013E002EE6D101F0D7FBFFF7B9FDFEE7010000001428000008B5104AE7
:400C0000104B1A60104A136843F40073136000230AE0032B03D80D4A52F8231000E00C490C4A42F8231001332F2BF2D90A4B1A780A4B1A70074A0A4B1A60FFF709FF08BD09
:400C40000004FA050CED00E014ED00E000000000A10B00000080FF1FBC760040C080FF1F08ED00E0044A137803F0FB03800000F0040018431070704720510040044A13786E
:400C800003F0FE0300F0010018431070704700BF20510040044A137803F0EF03000100F0100018431070704720510040044A137803F0BF03800100F040001843107070477A
:400CC00020510040044A137803F07F03C001C0B218431070704700BF20510040044A137803F0FD03400000F0020018431070704720510040044A137803F0F703C00000F009
:400D0000080018431070704720510040044A137803F0DF03400100F0200018431070704720510040044A137803F07F03C001C0B218431070704700BF10510040044A1378DA
:400D400003F0DF03400100F0200018431070704710510040044A137803F0BF03800100F0400018431070704710510040044A137803F0EF03000100F0100018431070704757
:400D80001051004010B5044605E0084B186800F0D7FBA4F50044B4F5004FF6D8034B586800FB04F000F0CCFB10BD00BFCC80FF1F08B5034B1B7A00FB03F000F0C1FB08BDBD
:400DC000CC80FF1F014B1B685864704708ED00E04001C0B2014B1870704700BF01E400E00222014B1A60704700E100E00222014B1A60704780E100E010B50446FFF7F6FF72
:400E00002046FFF7DFFF0620FFF7E2FFFFF7E8FF10BD00BF0222014B1A60704780E200E0044A137803F07F03C001C0B218431070704700BF30510040044A137803F0FD03D0
:400E4000400000F00200184310707047C0510040044A137803F0BF03800100F0400018431070704730510040084A137843F0010313701032137843F00103137002F5A552BF
:400E80001E32137843F0800313707047A9430040044A137803F0FC0300F0030018431070704700BF0158004010B487B00446194B03AA1868596803C2197A11706A4653F828
:400EC0000C0F596803C21B7A1370082C1ED812490B7803F08003DBB20B70087806AB1C4414F80C3C14F8182C920002F00C02134303430B70094A137803F0F3031370117802
:400F000014F8183C0B4343F00C03137007B010BC704700BFD8270000025800400158004008B50C22084B1A70084A137843F0200313700022064B1A700420FFF7B5FF0120A9
:400F4000FFF7A6FF08BD00BF00580040015800400258004008B5054B1B7823B9FFF7E0FF0122024B1A70FFF77FFF08BDD881FF1F084A137843F060031370A2F5A652133ABA
:400F8000137843F0040313701032137843F004031370704777580040054B1A7802F0FC021A701A7800F0030010431870704700BF5C58004008B50120FFF7EEFF08BD00BF2E
:400FC00008B5054B1B7823B90122034B1A70FFF7F1FFFFF7CDFF08BDD981FF1F054A137843F0080313701032137843F008031370704700BFA74300400F490B7803F0FC0200
:4010000000F0030313430B7001280AD10B4B1B78DBB20B4A13700B4B1B78DBB2013213707047094B1B78DBB2054A1370074B1B78DBB2013213707047435800401301004957
:401040003646004017010049B3010049BB01004908B50120FFF7D0FF0B4B1A7842F020021A701A7802F0FB021A701A7842F008021A7003F527731A7802F0E7021A701A786A
:4010800042F010021A7008BD4358004008B5054B1B7823B9FFF7DCFF0122024B1A70FFF79DFF08BDDA81FF1F054A137843F0080313701032137843F008031370704700BF0C
:4010C000A8430040054B1A7802F0FD021A701A7800F0020010431870704700BF2C580040014B1870704700BF835B0040064B1B78C3F3810303F19243063393F83831DBB2C6
:40110000024A1370704700BF2C5800400B46004008B5064B1A7802F0F3021A701A7800F00C0010431870FFF7E1FF08BD2C58004010B50024054B1C7001331C700420FFF79D
:40114000E7FF2046FFF7BEFF10BD00BF2C58004008B5074B1B7823B9FFF7EAFF0122044B1A70FFF7A1FFBB20FFF7BAFF08BD00BFDB81FF1F024A137843F0800313707047E2
:4011800075640040024A137803F07F031370704775640040014B1870704700BF85640040014B1878704700BF65640040014B188880B2704748680040014B1880704700BF8A
:4011C00048680040014B188880B2704788680040014B1880704700BF08680040024B1B78024B188880B27047046400408868004000F00300044B1A7802F0FC021A701A7882
:4012000010431870704700BF7564004008B501E0FFF7D8FFFFF7C4FF10F0080FF8D108BD08B54CF24F30FFF7C7FF4CF24F30FFF7CFFF00F08DF9084A137843F010031370A8
:4012400000F08AF90020FFF7D3FFFFF7DFFF0720FFF7A0FF08BD00BF9564004008B5054B1B7823B9FFF7DCFF0122024B1A70FFF781FF08BDDC81FF1F0922014B1A70704711
:401280008364004008B500F063F9044A137843F02003137000F060F908BD00BF9364004008B5054B1B7823B9FFF7E6FF0122024B1A70FFF7E7FF08BDDD81FF1F014B187006
:4012C000704700BF726400407222074B1A702022033B1A7006225F3B1A70472210331A700022B03B1A7070478B65004010B500F02FF904460A4A137843F020031370033ACC
:40130000137843F010031370FF3A137843F01003137000F03DF8204600F01EF910BD00BF9B65004008B5054B1B7823B9FFF7CCFF0122024B1A70FFF7D9FF08BDDE81FF1F27
:40134000024B1B780BB1024B18707047DE81FF1F49640040034B1B7813F0040FFAD1024B18707047696400404964004038B5074B1B782BB938BDFFF7EDFF0134A4B201E09A
:4013800005460024285D0028F5D138BDDE81FF1F054A137843F0020313701032137843F002031370704700BFA2430040024A137843F080031370704774650040014B18706D
:4013C000704700BF86650040014B1878704700BF66650040014B1868704700BF24650040014B1860704700BF24650040014B1868704700BF44650040014B1860704700BF7C
:4014000004650040024B1B78024B1868704700BF046500404465004008B501E0FFF7E6FFFFF7D2FF10F0080FF8D108BD08B54FF0FF30FFF7D5FF4FF0FF30FFF7DDFF00F044
:4014400087F8064A137843F01003137000F084F8FFF7E2FF0020FFF7B1FF08BD9665004008B5054B1B7823B9FFF7E0FF0122024B1A70FFF79BFF08BDE081FF1F044A137848
:4014800003F0F703C00000F008001843107070473051004008B500F0B9F800F0C1F808BD08B5FFF7F7FF08BD38B5044600F050F8054600F0DFF804F1804000F50040047813
:4014C000E4B200F0E5F8284600F046F8204638BD014B1B681864704708ED00E04001C0B2014B1870704700BF00E400E00122014B1A60704700E100E00122014B1A607047F9
:4015000080E100E010B50446FFF7F6FF2046FFF7DFFF0720FFF7E2FFFFF7E8FF10BD00BF0122014B1A60704780E200E0024B1878C0F38000704700BFC15100400000000015
:401540000230800803D000BF01380046FCD17047EFF3108072B6704780F31088704700BF10B500F09DF800F0E5F810BB012000F0C3F8072818D102210F4800F0A3F8022855
:401580000AD102E00120FFF713FC0C4B1B7813F0020FF7D0002409E0084B1B7813F0020FE9D04FF0FF3401E04FF0FF3400F0E8F800E00424204610BD2082FF1F224700408A
:4015C00010B500F06DF800F0B5F8D0B900F0F4F80446072812D102E00120FFF7E9FB0A4B1B7813F0020FF7D0074B1B7813F0020F04D0054B1B789B0800D1002400F0C0F8E3
:4016000000E00424204610BD2247004008B5FFF7D7FF034610B9FFF7A3FF0346184608BD08B5FFF795FF0F4A137843F0080313701032137843F008031370C8220A4B1A70E4
:401640000A4A137843F0100313701032137843F010031370064B1B7813F0200FFAD0FFF77BFF08BDA043004001470040AC43004000470040054A137843F001031370034BD4
:401680001B7813F0020FFAD0704700BF02470040024A137803F0FE03137070470247004008B5FFF755FF064A137843F0080313701032137843F008031370FFF74DFF08BDF4
:4016C000A043004070B506460D4600240CE00120FFF76EFB064B1B7813F0010FF7D0054B1B7833550134E4B2AC42F3D3204670BD22470040204700400C4B1B7813F0020FEA
:401700000FD00B4BB6221A70E1221A700E221A7002331B7813F0020F05D1054B187007207047042070470920704700BF224700402047004010B5FFF70BFF0F4B1B78A3B98B
:4017400001220D4B1A700D4B1B6813F0010F0ED00A4A136823F00103136000BF00BF00BF0122054B5A60002402E0042400E00024FFF7F2FE204610BDE481FF1F04000840BB
:4017800008B5FFF7E5FE0A4B00221A705B68012B0AD1084A136843F00103136000BF00BF00BF0022024B5A60FFF7D6FE08BD00BFE481FF1F04000840074B1B7813F0020FD5
:4017C00008D0064BB6221A70E0221A700D221A700720704704207047224700402047004081F0004102E000BF83F0004330B54FEA41044FEA430594EA050F08BF90EA020F3F
:401800001FBF54EA000C55EA020C7FEA645C7FEA655C00F0E2804FEA5454D4EB5555B8BF6D420CDD2C4480EA020281EA030382EA000083EA010180EA020281EA0303362DC9
:4018400088BF30BD11F0004F4FEA01314FF4801C4CEA113102D0404261EB410113F0004F4FEA03334CEA133302D0524263EB430394EA050F00F0A780A4F10104D5F1200ED2
:401880000DDB02FA0EFC22FA05F2801841F1000103FA0EF2801843FA05F359410EE0A5F120050EF1200E012A03FA0EFC28BF4CF0020C43FA05F3C01851EBE37101F00045EC
:4018C00007D54FF0000EDCF1000C7EEB00006EEB0101B1F5801F1BD3B1F5001F0CD349085FEA30004FEA3C0C04F101044FEA445212F5800F80F09A80BCF1004F08BF5FEA0B
:40190000500C50F1000041EB045141EA050130BD5FEA4C0C404141EB010111F4801FA4F10104E9D191F0000F04BF01460020B1FA81F308BF2033A3F10B03B3F120020CDAE2
:401940000C3208DD02F1140CC2F10C0201FA0CF021FA02F10CE002F11402D8BFC2F1200C01FA02F120FA0CFCDCBF41EA0C019040E41AA2BF01EB0451294330BD6FEA0404F3
:401980001F3C1CDA0C340EDC04F11404C4F1200220FA04F001FA02F340EA030021FA04F345EA030130BDC4F10C04C4F1200220FA02F001FA04F340EA0300294630BD21FA2D
:4019C00004F0294630BD94F0000F83F4801306BF81F480110134013D4EE77FEA645C18BF7FEA655C29D094EA050F08BF90EA020F05D054EA000C04BF1946104630BD91EA81
:401A0000030F1EBF0021002030BD5FEA545C05D14000494128BF41F0004130BD14F580043CBF01F5801130BD01F0004545F0FE4141F470014FF0000030BD7FEA645C1ABF30
:401A4000194610467FEA655C1CBF0B46024650EA013406BF52EA033591EA030F41F4002130BD00BF90F0000F04BF0021704730B54FF4806404F132044FF000054FF00001F7
:401A800050E700BF90F0000F04BF0021704730B54FF4806404F1320410F0004548BF40424FF000013EE700BF42004FEAE2014FEA31014FEA02701FBF12F07F4393F07F4F76
:401AC00081F06051704792F0000F14BF93F07F4F704730B54FF4607401F0004521F0004120E700BF50EA010208BF704730B54FF000050AE050EA010208BF704730B511F0E8
:401B0000004502D5404261EB41014FF4806404F132045FEA915C3FF4DCAE4FF003025FEADC0C18BF03325FEADC0C18BF033202EBDC02C2F1200300FA03FC20FA02F001FAD5
:401B400003FE40EA0E0021FA02F11444C1E600BF70B54FF0FF0C4CF4E06C1CEA11541DBF1CEA135594EA0C0F95EA0C0F00F0DEF82C4481EA030621EA4C5123EA4C5350EA45
:401B8000013518BF52EA033541F4801143F4801338D0A0FB02CE4FF00005E1FB02E506F00042E0FB03E54FF00006E1FB03569CF0000F18BF4EF0010EA4F1FF04B6F5007FA4
:401BC00064F5407404D25FEA4E0E6D4146EB060642EAC62141EA55514FEAC52040EA5E504FEACE2EB4F1FD0C88BFBCF5E06F1ED8BEF1004F08BF5FEA500E50F1000041EB9F
:401C0000045170BD06F0004646EA010140EA020081EA0301B4EB5C04C2BFD4EB0C0541EA045170BD41F480114FF0000E013C00F3AB8014F1360FDEBF002001F0004170BD48
:401C4000C4F10004203C35DA0C341BDC04F11404C4F1200500FA05F320FA04F001FA05F240EA020001F0004221F0004110EBD37021FA04F642EB06015EEA430E08BF20EA8E
:401C8000D37070BDC4F10C04C4F1200500FA04F320FA05F001FA04F240EA020001F0004110EBD37041F100015EEA430E08BF20EAD37070BDC4F1200500FA05F24EEA020E68
:401CC00020FA04F301FA05F243EA020321FA04F001F0004121FA04F220EA020000EBD3705EEA430E08BF20EAD37070BD94F0000F0FD101F00046400041EB010111F4801F8D
:401D000008BF013CF7D041EA060195F0000F18BF704703F00046520043EB030313F4801F08BF013DF7D043EA0603704794EA0C0F0CEA135518BF95EA0C0F0CD050EA4106A1
:401D400018BF52EA4306D1D181EA030101F000414FF0000070BD50EA410606BF1046194652EA430619D094EA0C0F02D150EA013613D195EA0C0F05D152EA03361CBF104618
:401D800019460AD181EA030101F0004141F0FE4141F470014FF0000070BD41F0FE4141F4780170BD70B54FF0FF0C4CF4E06C1CEA11541DBF1CEA135594EA0C0F95EA0C0F98
:401DC00000F0A7F8A4EB050481EA030E52EA03354FEA013100F088804FEA03334FF0805545EA131343EA12634FEA022245EA111545EA10654FEA00260EF000419D4208BF55
:401E0000964244F1FD0404F5407402D25B084FEA3202B61A65EB03055B084FEA32024FF480104FF4002CB6EB020E75EB030E22BFB61A754640EA0C005B084FEA3202B6EBD4
:401E4000020E75EB030E22BFB61A754640EA5C005B084FEA3202B6EB020E75EB030E22BFB61A754640EA9C005B084FEA3202B6EB020E75EB030E22BFB61A754640EADC0067
:401E800055EA060E18D04FEA051545EA16754FEA06164FEAC30343EA52734FEAC2025FEA1C1CC0D111F4801F0BD141EA00014FF000004FF0004CB6E711F4801F04BF0143C7
:401EC0000020B4F1FD0C88BFBCF5E06F3FF6AFAEB5EB030C04BFB6EB020C5FEA500C50F1000041EB045170BD0EF0004E4EEA113114EB5C04C2BFD4EB0C0541EA045170BD63
:401F000041F480114FF0000E013C90E645EA060E8DE60CEA135594EA0C0F08BF95EA0C0F3FF43BAF94EA0C0F0AD150EA01347FF434AF95EA0C0F7FF425AF104619462CE7CE
:401F400095EA0C0F06D152EA03353FF4FDAE1046194622E750EA410618BF52EA43067FF4C5AE50EA41047FF40DAF52EA43057FF4EBAE12E74FF0FF3C06E000BF4FF0010C7B
:401F800002E000BF4FF0010C4DF804CD4FEA410C7FEA6C5C4FEA430C18BF7FEA6C5C1BD001B050EA410C0CBF52EA430C91EA030F02BF90EA020F0020704710F1000F91EA23
:401FC000030F58BF994208BF90422CBFD8176FEAE37040F0010070474FEA410C7FEA6C5C02D150EA013C07D14FEA430C7FEA6C5CD6D152EA033CD3D05DF8040B704700BFA5
:402000008446104662468C461946634600E000BF01B5FFF7B7FF002848BF10F1000F01BD4DF808EDFFF7F4FF0CBF012000205DF808FB00BF4DF808EDFFF7EAFF34BF01208D
:4020400000205DF808FB00BF4DF808EDFFF7E0FF94BF012000205DF808FB00BF4DF808EDFFF7CEFF94BF012000205DF808FB00BF4DF808EDFFF7C4FF34BF012000205DF84B
:4020800008FB00BF4FEA410212F5001215D211D56FF47873B3EB625212D94FEAC12343F0004343EA505311F0004F23FA02F018BF404270474FF00000704750EA013005D168
:4020C00011F0004008BF6FF0004070474FF00000704700BF4FEA4102B2F1E04324BFB3F5001CDCF1FE5C0DD901F0004C4FEAC0024CEA5070B2F1004F40EB830008BF20F032
:402100000100704711F0804F21D113F13872BCBF01F00040704741F480114FEA5252C2F11802C2F1200C10FA0CF320FA02F018BF40F001004FEAC1234FEAD32303FA0CFC57
:4021400040EA0C0023FA02F34FEA4303CCE77FEA625307D150EA01331EBF4FF0FE4040F44000704701F0004040F0FE4040F40000704700BF80F0004002E000BF81F00041B0
:4021800042001FBF5FEA410392EA030F7FEA226C7FEA236C6AD04FEA1262D2EB1363C1BFD218414048404140B8BF5B42192B88BF704710F0004F40F4000020F07F4018BF68
:4021C000404211F0004F41F4000121F07F4118BF494292EA030F3FD0A2F1010241FA03FC10EB0C00C3F1200301FA03F100F0004302D5494260EB4000B0F5000F13D3B0F10F
:40220000807F06D340084FEA310102F10102FE2A51D2B1F1004F40EBC25008BF20F0010040EA03007047490040EB000010F4000FA2F10102EDD1B0FA80FCACF1080CB2EB99
:402240000C0200FA0CF0AABF00EBC25052421843BCBFD0401843704792F0000F81F4000106BF80F400000132013BB5E74FEA41037FEA226C18BF7FEA236C21D092EA030F5B
:4022800004D092F0000F08BF0846704790EA010F1CBF0020704712F07F4F04D1400028BF40F00040704712F100723CBF00F50000704700F0004343F0FE4040F40000704713
:4022C0007FEA226216BF08467FEA23630146420206BF5FEA412390EA010F40F4800070474FF0000304E000BF10F0004348BF40425FEA000C08BF704743F0964301464FF0D7
:4023000000001CE050EA010208BF70474FF000030AE000BF50EA010208BF704711F0004302D5404261EB41015FEA010C02BF84460146002043F0B64308BFA3F18053A3F5DB
:402340000003BCFA8CF2083AA3EBC25310DB01FA02FC634400FA02FCC2F12002BCF1004F20FA02F243EB020008BF20F00100704702F1200201FA02FCC2F1200250EA4C00B7
:4023800021FA02F243EB020008BF20EADC707047014B1868704700BF3C81FF1F0E4B70B51E460E4C0025E41AA410A54204D056F8253098470135F8E700F01AFA084B094CDC
:4023C0001E46E41AA4100025A54204D056F8253098470135F8E770BDFC270000FC270000FC2700000428000010B5431E0A44914204D011F8014B03F8014FF8E710BD0346DE
:402400000244934202D003F8011BFAE77047012B30B50ADC920803680C68013A002A40F8044B41F8043BF6DC30BD03460D781C7803F8015B01F8014BD41A0444002CF5DC3C
:4024400030BDF8B50F46144606461D4698470028214638460BDAA847002801DA3846F8BD21463046A847002809DB3046F8BDA8470028F3DC21463046A8470028F5DB20465B
:40248000F8BD2DE9F04F06468B46144685B00093B20707D1A30705D1B4F1040818BF4FF0010801E04FF002083319BBF1060F019326D81F4604FB0B65AF4280F01681B9465E
:4024C0004E4501D32744F7E7C4EB090A49465046009B98470028F5DDB8F1000F08D1D9F80030DAF80020C9F80020CAF8003005E04346224651464846FFF789FFD146DFE724
:402500004FEA5B050BF1FF33BBF1070F04FB0565019326D0BBF1280F04FB036919D94FEADB076743F119CA19009B3046FFF789FFEA192946009B8246E81BFFF782FF054604
:40254000A9EB47004A46009BC119FFF77AFF814600E0B2462946009B4A465046FFF771FF0546B8F1000F04D133682A6832602B6005E04346224629463046FFF748FF019B21
:40258000371904FB0365A9463B19029301970023029AC4EB020A554555D303933146009B504698470028039B24DC15D1B8F1000F08D1019BDAF800201B6801990A60CAF887
:4025C000003005E04346224651460198FFF71FFF019B234401930123029A22440292D7E703933146009B284698470028039B18DB03D02D1B5545F3D225E0B8F1000F06D1C6
:402600002B68D9F800202A60C9F8003005E04346224649462846FFF7FAFEC4EB09090123E7E7B8F1000F06D1DAF800302A68CAF800202B6005E04346224629465046FFF7C6
:40264000E6FE2D1BC7E704FB0BFB63B3019B06EB0B079A1BC3EB0A0B5A45A8BF5A462AB14346C2EB0A013046FFF7D1FEC9EB0702C5EB0905121BAA4228BF2A4622B143460A
:40268000B91A5046FFF7C3FE5C4506D2009B2246BBFBF4F13046FFF7F4FEAC4225D27E1BB5FBF4FBF4E6B3445F451ED23D46AE4201D32744F8E7C4EB050929464846009B1D
:4026C00098470028F5DDB8F1000F06D12B68D9F800202A60C9F8003005E04346224649462846FFF794FE4D46E1E705B0BDE8F08F00000000313131313131300030313130CC
:4027000030303000313130313130310031313131303031003031313030313100313031313031310031303131313131003131313030303000313131313131310031313131F2
:4027400030313100303030303030300030303031313031003030313031303100303031303030300030303130313131003130303131313000313030313131310030303031C2
:40278000313131003131313031313000537461727420554152540000405100403000000001400010001401408006001B0140000100400140000A004C014000020050014092
:4027C0002000000060520040380700480600801A0140400700488000011121314161536373000000080901010507070404430000F8B500BFF8BC08BC9E4670474D000000E4
:40280000FD0B0000F8B500BFF8BC08BC9E4670472900000028280000C880FF1F78000000E800000000000000000000000000E02EC05D00001800000000366E0100000000EA
:4028400000000000000000000000000000000000000000000000000000000000ED270000000000000000000000000000000000000000000000000000000000000000000044
:4028800000000000000000000000000000000000000000000000000000000000DC80FF1F00000000000000000000000000000000000000000000000000000000000000009E
:4028C00000000000000000000000000000000000000000000000000000000000000000000000000000000000000000000000000000000000000000000000000000000000D8
:402900000000000000000000000000000000000000000000000000000000000000000000000000000000000000000000000000000000000000000000000000000000000097
:402940000000000000000000000000000000000000000000000000000000000000000000000000000000000000000000000000000000000000000000000000000000000057
:402980000000000000000000000000000000000000000000000000000000000000000000000000000000000000000000000000000000000000000000000000000000000017
:020000040003F7
:0200000480007A
:400000000452004003640040036500402E020140280301404C0401403E0501400C0701404E0801403E090140020B0140371401401E1501403A1601401F1701404E18014079
:40004000391901400B1A0140371B014003400140094101400942014007430140024401400145014001460140044701400D48014012490140064C01400D4D014007500140B4
:40008000015101400904192278047904837F850F890F860D88388B720207031B0418066008180A600C7F0D0A102812501407171C18281A501B1B1C781D1B200223202404F8
:4000C00027132A782B092C012D032E782F043278351F360737203B20580459045B045F019001B601BE40D602D720D804DB04DD20DE08DF0104080502070909020C400E1C1E
:400100000F801622171218011E211F402520270A2C022D022E042F083460354037183D803E013F8060016C026D406F01710279408A08C0F0C2F8C4F0CAF0CC70CE90D808CD
:40014000DE08E4800A0116021E0122012C03320340134105420249FF4AFF4BFF4F01501858045A045F016040624064406540668068806A806C806E80821786188A208C1741
:4001800090079208960498029A01A220A617A701A801AA02B020B301B41FBA20BE01C013C105C202C5ECC620C80BC9FFCAFFCBFFCD83CE03CF01D018D283D403D604D804F6
:4001C000D904DA04DB04DC30DF05E040E240E440E540E680E880EA80EC80EE8003040405054007040A110C020D28100213021420151017021A101C041E4827102F10400912
:400200004223430444084622472048024C024D054E0256205D055E6064406C046D906F0875027E02840485488D0292019380940896109B029C209D429E22A002A122A218C5
:40024000A540A604A708C0F2C275C479CA40D07ED218D6F0D880DE109380972098049C209D409F20A208B040B710E401EA80EE4005110603070E080609110A010B060E06A4
:400280000F0C152016011703190C1A021B1326052708330F3407373039803A203B08580459045C115F018402850C8711891C8B028D409001930396029740980299149D20EC
:4002C000A109A202A310A510A602A910AA01AB0CB002B11FB320B401B540B920BE11BF14C063C102C5E0C6BCC80EC9FFCAFFCBFFCEF0CF44D00CD401D804D904DA04DB04D5
:40030000DC10DD11DF01E6C0EA40EB020004042406010701081009080B800D080E04108011081208141016201A401B101C042102222424202544272129082A212D082E042D
:4003400030203102328833083724382439803B803C043D803F1040044108430449014A804B1050A059015A485B1064106710830886209180C0E4C26EC42ECA47CC6FCE7E69
:40038000D006D204D60FE4028D40E4100A013001404249FF4AFF4BFF4F015018528058045A045B045C035D335F016040624064406540668068806A806C806E808202920146
:4003C00097019A01B001B301B402BE01C042C9FFCAFFCBFFCD83CE03CF01D018D804D904DA04DC33DD03DF01E040E240E440E540E680E880EA80EC80EE80012006800D22E1
:400400001A401C041E8027203404412243204522710287308E4094049720980499209A80A320A502A640A920B444C012C250CC40D0A5E640EE40170126013101360140424E
:4004400049FF4AFF4BFF4D834E034F0150185401580459045A045B045C305D335F016040624064406540668068806A806C806E808F01A701AD01B301BF04C042C5ECC6206E
:40048000C80BC9FFCAFFCBFFCD83CE03CF01D018D904DA04DD03DF01E040E240E440E540E680E880EA80EC80EE8014201D40232024402820294036083B80412245224B0521
:4004C000512053205E805F058A809380972098249D409F20A208B020C420CA0ACC40CE08D0A5D6D0E420EA80014405FF06040A040B040D1011C01201140215E71718180241
:4005000019181D3C1E021FC2211C23E12508260129802A022FE330023201331F3538360437C038023B083E445418580459045B045C115D105F0184038503860489029605E3
:40054000970198039A0C9E08A003A204A40AA503A604B20FB303B908BA08BF04C003C504C9FFCA07CBFFCC40CD20CEF0CF05D008D804D904DA04DC01DD01DF01E040E1A8C9
:40058000E240E320000406200704081009480C040E45108011081504171019041D401E401F04210426042716281029042D602E09300834043680372138243C903E0641044D
:4005C0004908500851085F02654067088E8490249C109D08A080A146A508AB10B480B710C064C2F7C46CCAF2CCF2CEF6D002D680D830EA80EC0110011101150119013101AC
:4006000032013E04580459045C105F010401060A072009020C040E250F601410171218201D201E6523402411262027412C28302A34103520362037013E02452047444D44A6
:400640004F6056205E406C2A7440760877228A028C109410954496059B149C049D209E2A9F21A102A440C0F0C2F8C470CA60CCA7CE80D070D230D610E84033803580CC30BE
:400680000020041006100B8088109D80A780C0E0C21050108740901093809A109D80A780D420E010834090109A109D80B380B410E4807104DC019D049D04038084049D04A6
:4006C000C0082740501054028A10901098409A109D809F40B040C880D420D6200B4019805840630487448C10942098409D80A810B402C210C640D480D840E240E440EC80E4
:400700005301A004A904B380D401EA01104074047B0288408F02A004B701C408DC01DE04E201E402E802000F08050A090C02100B1A091C02000F000010940000400000005D
:40074000034200B10C00000004000000010000000001230E33000C003F8400511F0020000800000002C700001CC723000000000010180F2000C02C070000A80000000101E3
:4007800065020300010EC00009FFFFFF62A0F0410C0000000000021004040404111100010000000000004002001030100010101200000000000000000000000000000000B2
:4007C0001E00001E00000000C0000000840040B6B600B400000000000C00000C0C000C0000000000F40000FFFF00040000000000FF0000FFFF00000000000000380000FAC4
:40080000EA002200010000000000000000000000000000000000000000000000000000000000000000000000000000000000000000000000000000000000000000000000AB
:400840000000000000000000000000000000000000000000000000000000000000000000000000000000000000000000000000000000000000000000000000000000000078
:400880000000000000000000000000000000000000000000000000000000000000000000000000000000000000000000000000000000000000000000000000000000000038
:4008C00000000000000000000000000000000000000000000000000000000000000000000000000000000000000000000000000000000000000000000000000000000000F8
:4009000000000000000000000000000000000000000000000000000000000000000000000000000000000000000000000000000000000000000000000000000000000000B7
:0200000490006A
:0400000000004005B7
:0200000490105A
:04000000BC90ACAF55
:0200000490303A
:02000000D2101C
:0200000490402A
:4000000000000000000000000000000000000000000000000000000000000000000000000000000000000000000000000000000000000000000000000000000000000000C0
:400040000000000000000000000000000000000000000000000000000000000000000000000000000000000000000000000000000000000000000000000000000000000080
:400080000000000000000000000000000000000000000000000000000000000000000000000000000000000000000000000000000000000000000000000000000000000040
:4000C0000000000000000000000000000000000000000000000000000000000000000000000000000000000000000000000000000000000000000000000000000000000000
:0200000490501A
:0C00000000012E16106900012E27E27985
:00000001FF