:400000000080002011000000091100000911000008B5044B1A6803F53F5302331A6001F07BF800BFFA46004010B5054C237833B9044B13B10448AFF300800123237010BDCF
:400040004081FF1F00000000142E0000084B10B51BB108490848AFF300800848036803B910BD074B002BFBD0BDE81040184700BF000000004481FF1F142E0000C880FF1F8E
:400080000000000000680B68C01A70470122014B1A6070476081FF1F10B501F01BFB01F02DFB044601F042FB201A024B586000229A6010BD6081FF1F08B5002001F070F97A
:4000C000012001F061F908BD08B5002001F05CF9012001F065F908BD10B501F025FC044601F03AFC201A02F04FF80022014B02F0EBF910BD00408F4030B583B005460191A7
:40010000002407E0291989B201AB185D01F076FC0134E4B2032CF5D903B030BD30B583B00546CDE90023002407E0291989B21DF8040001F063FC0134E4B2072CF5D903B09F
:4001400030BD00BF30B583B0054600220023CDE90023002407E0281980B201F0B7FC0DF804000134E4B2072CF5D9DDE9000103B030BD00BFF8B507460E461546002409E07F
:40018000E00033183844D3E9002380B2FFF7C6FF0134A4B2AC42F3D3F8BD00BF2DE9F04180460F461646002409E0E0003D18404480B2FFF7C7FFC5E900010134A4B2B44277
:4001C000F3D3BDE8F08100BF38B504460D46FFF783FF034BC3E90401C3E9064538BD00BF6081FF1F38B504460D46FFF775FF094BD3E9042301F08AFE22462B4602F0ACFAA4
:4002000018B1002001F0E4FB38BD012001F0E0FB38BD00BF6081FF1F70B505460C462D4B042202F0C0FC14F0010F23D104EBD474641004F18043023B04F18042013A55F87B
:40024000221055F8230002F02DFB55F8241002F029FB631C55F8231002F024FB023455F8241002F01FFB01F0B1FF00221A4B02F02BF92BE0661E06EBD676761006F180430E
:40028000023B06F18042013A55F8221055F8230002F008FB55F8261002F004FB013404EBD474641055F8241002F0FCFA631C55F8231002F0F7FA023455F8241002F0F2FAF5
:4002C00001F084FF0022054B02F0FEF802F094FA70BD00BF850000000000144000001840014BC3E9080170476081FF1F08B5012000F0CCFF012000F0D5FF012000F0DEFF70
:40030000012000F0E7FF08BD38B50D461E4B03EBC000002305E0C25C303A1C4941F823200133062BF7DD194C2068B0FA80F0400900F04CFF6068B0FA80F0400900F052FF09
:40034000A068B0FA80F0400900F058FFE068B0FA80F0400900F05EFF2069B0FA80F0400900F064FF6069B0FA80F0400900F06AFFA069B0FA80F0400900F070FFB5FA85F020
:40038000400900F077FF38BD182E0000F881FF1FF8B5B54B1B68002B00F0968104460D46002305E0B04A02EB8302002191620133032BF7DD002200232046294602F0EAF910
:4003C000002800F0AE80A84BD3E90E232046294602F0B8F9002840F023810022A34B2046294602F0CDF950B94CE00022A04B2046294601F03FFF04460D46013600E00026A6
:4004000000229C4B2046294602F0A6F90028ECD12046294602F0C8F9974F87FB0037C317C3EBA717954A82FB071EF917C1EBAE0101EB8101A7EB41018B4F3964904981FB01
:40044000001EC3EB6E1E82FB0E1C4FEAEE71C1EBAC0101EB8101AEEB4101796482FB00E1C3EBA10382FB0321DA17C2EBA10202EB8202A3EB4202BA6403EB8303A0EB43032E
:40048000FB643CE000227B4B2046294601F0F2FE02F08AF9784E86FB0036C317C3EBA616764A82FB0617F117C1EBA70101EB8101A6EB41016C4E3164714F87FB0017C3EBA0
:4004C000671782FB071EF917C1EBAE0101EB8101A7EB4101716482FB0071C3EBA10382FB0321DA17C2EBA10202EB8202A3EB4202B26403EB8303A0EB4303F36403260023F7
:4005000005E0594A02EB8302002191620133032BF7DD554B03EB86060122B262C3E90E457EE0002200232046294602F00BF940B14D4B00221A645A649A64DA6401229A6277
:400540006EE000224F4B2046294602F0FBF848B1454B0F221A6410225A6412229A641122DA645DE000224FF040432046294602F0E9F848B13C4B0D221A640C225A640B22DD
:400580009A640E22DA644BE000223F4B2046294602F0D8F840B1344B0A221A645A649A64DA640122DA623BE00022384B2046294602F0C8F830B12C4B0A221A645A649A64E9
:4005C000DA642DE0284B0A221A645A649A64DA6400222F4B2046294602F0B4F810B10822214B1A6400222B4B2046294602F0AAF810B108221C4B5A640022274B204629463B
:4006000002F0A0F810B10822174B9A640022234B2046294602F096F810B10822124BDA64114C236D013303F003032365012000F02DFE012000F036FE012000F03FFE0120E8
:4006400000F048FE236DC3F1030204EB820204EB8303916A186CFFF757FE236D03BB002000F014FE2DE000BF6081FF1F0000F03F0000244000408F40D34D62106766666641
:400680001F85EB510000F0BF000008C0000010C0000014C0000018C000001CC0000020C0012B03D1002000F0FDFD0AE0022B03D1002000F003FE04E0032B02D1002000F0B0
:4006C00009FE0022014B1A60F8BD00BF6081FF1F10B5094CD4E90601FFF784FDD4E90801FFF756FE054B1B78692B02D1FFF7ECFC10BDFFF7E1FC10BD6081FF1F1482FF1FEB
:40070000F8B5FFF7E9FC06460F467FE0FFF7E4FC32463B4601F0FAFB04460D460022404B02F024F820B100203E49FFF7D9FD17E000223B4B2046294602F02CF860B1002223
:400740004FF080432046294602F010F820B100203549FFF7C5FD03E0FFF7BEFC06460F4601F0FEF918B101F00BFA00284CD1FFF7B3FC04460D4601E0FFF7AAFFFFF7ACFC01
:4007800022462B4601F0C2FB23A3D3E9002301F0E3FF0028F0D101F0E3F958BB01F0F0F940BB1DA1D1E90001FFF70EFDFFF794FC04460D4616E0FFF78BFFFFF78DFC2246A2
:4007C0002B4601F0A3FB0022154B01F0BBFF48B1164801F075F8052000F088FD0122144B5A6511E001F0BCF970B901F0C9F90028E1D009E001F0B4F9012805D101F0C0F9C0
:4008000010B903220A4B5A65FFF762FF084B5B6D002B3FF47BAFF8BD9A9999999999C93F0000F03F000008C0000010C0683000006081FF1F08B501E0FFF74AFF01F098F9AB
:400840000028F9D001F0A4F90028F5D001F080F90028F1D008BD00BFF8B50026002755E0FFF736FFFFF738FC32463B4601F04EFB04460D4600222A4B01F078FF30B1294B8D
:40088000986D01F091FCFFF72BFD16E00022244B2046294601F07EFF58B10022224B2046294601F063FF20B100202049FFF718FD03E0FFF711FC06460F4601F069F948B9CD
:4008C000FFF7B8FF14A1D1E90001FFF77DFC0222144B5A6501F04CF950B9FFF7ABFF0EA1D1E90001FFF770FC0E4A936D0133936501F02EF950B9FFF79DFF07A1D1E90001E5
:40090000FFF762FC074A936D013B9365054B5B6D012BA5D0F8BD00BF9A9999999999C93F0000F03F6081FF1F0000F83F000010C008B53DE0FFF7CCFE254B1B78632B03D1DE
:4009400000202449FFF7CCFC214B1B78692B04D100204FF04041FFF7C3FC01F019F948B9FFF768FF18A1D1E90001FFF72DFC0022194B5A6501F0FCF858B9FFF75BFF12A1FD
:40098000D1E90001FFF720FCFFF796FB6322104B1A7001F0DDF858B9FFF74CFF0AA1D1E90001FFF711FCFFF78FFB6922084B1A70094B5B6D022BBDD00421054B187801F044
:4009C0001DF808BDAFF300809A9999999999C93F1482FF1F0000F0BF6081FF1F0000000010B501F0AFF8184801F09EF8012000F00DFF962000F090FC002000F007FF00F061
:400A0000D5FE124C0123A360FFF766FBFFF764FBFFF75EFE0A2000F069FC606801F0C4FB07A3D3E9002301F04FFD0022084B01F021FC0022074B01F01DFCC4E9180110BD0F
:400A4000000000000088C340990000006081FF1F000041400000E03F2DE9F04FADF50D7D2822002182A802F05CF8502200216EA802F057F800261CE0384BD3E90601FFF70F
:400A8000B1FBFFF7ADFF8CAB03EB840501F0B4FE45F8280C013400E00024092CECDD0A2182A8FFF7B9FB8CAB03EB860343F8780C0136132EF0DD14216EA8FFF7ADFB01F064
:400AC00085FB06460F46372269460520FFF766FB4FF0000801E008F101080DEBC803D3E9004522462B463046394601F053FE0028F1D108F1FF38404601F056FB0022184BEC
:400B000001F0B8FB0022174B01F002FA82468B460DEBC80898E8000342464B463046394601F0F4F906460F4642464B462046294601F0ECF902460B463046394601F0C4FC2C
:400B40000022074B01F096FB02460B465046594601F0DEF90DF50D7DBDE8F08F6081FF1F0000E03F0000084070B5012641E006B323A1D1E90001FFF727FBFFF76DFF244B45
:400B8000C3E91801FFF7A8FA04460D46FFF7AEFB204B1B78692B0BD11D4E1BA3D3E90023D6E9180101F090FCC6E91801002600E00026174BD3E91801FFF792FBFFF788FDA8
:400BC000FFF78AFA22462B4601F0A0F900224FF0804301F0D5FD60B100F0D2FF30B908A1D1E90001FFF7F0FA012602E00022084B5A65074B5B6D032BB9D070BDAFF30080D5
:400C00009A9999999999C93F52B81E85EB5104406081FF1F1482FF1F30B5EFB062B600F0ADFB654800F09CFB00F08CFF032000F059FD624800F078FF00F034FC00F068FC64
:400C400000F0CCFC00F02CFD00F0D2FD032000F05FFE00F0AFFE00F0CDFE00F00DFE584800F02EFE052000F041FB202000F012FE052000F03BFBFFF72FFA04460D4638E0B5
:400C8000FFF72AFA22462B4601F040F901F08CFD18B900204B49FFF723FBFFF71DFA22462B4601F033F901F07FFD012803D100204549FFF715FBFFF70FFA22462B4601F01A
:400CC00025F901F071FD022803D100203F49FFF707FBFFF701FA22462B4601F017F901F063FD032803D100203949FFF7F9FAFFF7EFFCFFF7F1F922462B4601F007F9002286
:400D0000344B01F033FD0028BAD14FF4DC723249684601F0FBFE372269460520FFF72AFA002000F0D3FE2D4B9865042000F0CEFE2B4B1870FFF7D0F9284B5B6D63B92948BA
:400D400000F0BEFD052000F0D1FA0421244B187800F054FEFFF7D4FC204B5B6D012B07D1214800F0ADFD052000F0C0FAFFF774FD1A4B5B6D022B0CD11C4800F0A1FD0520FE
:400D800000F0B4FA154B996D0020FFF7B5F9FFF7CFFD124B5B6D032B07D1154800F090FD052000F0A3FAFFF7DFFE052000F09EFAFFF78EFCC0E700BF8D0000009900000066
:400DC00078300000000014C0000018C000001CC0000020C000001040B02E00006081FF1F1482FF1F843000008C300000943000009C300000FEE700BFF0B40022174611E04A
:400E000050F82760F3B226F0FF0608E001EB420511F812406D78A5550132013BDBB2002BF4D10137202FEBD9F0BC704710B41D4B1B78DBB203F007011B4A11701B090132B0
:400E400013704122194B1A70012230331A700C2203F22F731A70402203F5DA731A70202204331A7080210C33197004200733187002230F4803703024083004700330017029
:400E80000C490A7090210C4A11700432137040F205120A4B1A804422A3F2CE231A7010BC704700BFCF0100496E5800400D510040885A0040945A0040D85A0040445B0040D4
:400EC00008B50A46002101F02CFE08BD38B501222D4B1A801C2202331A704FF49C7202331A801823294A137040F25721023211800232137045F6BF51023211800232137087
:400F00000222234B1A7008224FF040231A70032103F5007319701F4B1B78DBB21E490B701E4B1A8041F25122023B1A80002419250CE01B4B1B7803F0010343EA440404F094
:400F400003044FF4F07000F02BFE013D0DB1032CEFD115B90320FFF74DFF124B4FF480721A8007221A7000220F490A704820023108701A700222033B1A700C4A137843F020
:400F80000F03137038BD00BF80400040864000400043004008010049A146004022420040254200400440004006400040A243004008B501F0ABFD08BD38B572B63C4A13782B
:400FC00043F00403137000240CE03A4D630019194A0011462A44084691882858FFF770FF0134E4B2052CF0D900240BE03149A3001819420088180622816A406AFFF7D8FF1F
:401000000134E4B2002CF1D02B494FF09040FFF7F3FE40F20332294B1A80294A137843F0020313701032137843F002031370254C237843F040032370A2F58632513A13785E
:4010400043F0100313700A221F492048FFF7B0FF0A221F491F48FFF7ABFF0A221E491F48FFF7A6FF0A221E491E48FFF7A1FF0A221D491E48FFF79CFF0A221D491D48FFF7D1
:4010800097FF1D4A137843F0080313701B4D61232B70FFF71BFF81232B700122184B1A70FFF7C4FE0E2221461648FFF781FF38BDE8460040A4300000840000484E580040F5
:4010C00003500140A0430040040800480051004010080048C05100401C080048F05100402808004810510040340800482051004040080048305100402243004000480040EA
:4011000004000840B043004008B501F0D3FC03680C2B00D1FEE7FEE708B5104E104D16E029686B68AC68002204E051F8040B43F8040B0432A242F8D1E868002203E000218F
:4011400043F8041B04328242F9D11035013E002EE6D101F0B5FCFFF75FFDFEE7010000001031000008B5104A104B1A60104A136843F40073136000230AE0032B03D80D4A82
:4011800052F8231000E00C490C4A42F8231001332F2BF2D90A4B1A780A4B1A70074A0A4B1A60FFF709FF08BD0004FA050CED00E014ED00E000000000091100000080FF1F43
:4011C000BC760040C080FF1F08ED00E0044A137803F0FB03800000F0040018431070704720510040044A137803F0FE0300F0010018431070704700BF20510040044A137830
:4012000003F0EF03000100F0100018431070704720510040044A137803F0BF03800100F0400018431070704720510040044A137803F07F03C001C0B218431070704700BF31
:4012400020510040044A137803F0FD03400000F0020018431070704720510040044A137803F0F703C00000F0080018431070704720510040044A137803F0DF03400100F0DC
:40128000200018431070704720510040044A137803F07F03C001C0B218431070704700BF10510040044A137803F0DF03400100F0200018431070704710510040044A13784D
:4012C00003F0BF03800100F0400018431070704710510040044A137803F0EF03000100F010001843107070471051004010B5044605E0084B186800F053FCA4F50044B4F5D7
:40130000004FF6D8034B586800FB04F000F048FC10BD00BFCC80FF1F08B5034B1B7A00FB03F000F03DFC08BDCC80FF1F014B1B685864704708ED00E04001C0B2014B1870E5
:40134000704700BF01E400E00222014B1A60704700E100E00222014B1A60704780E100E010B50446FFF7F6FF2046FFF7DFFF0620FFF7E2FFFFF7E8FF10BD00BF0222014BE4
:401380001A60704780E200E0044A137803F0DF03400100F0200018431070704730510040044A137803F0BF03800100F0400018431070704730510040084A137843F00403BF
:4013C00013701032137843F00403137002F5A5521E32137843F0800313707047A9430040044A137803F0FC0300F0030018431070704700BF0958004010B487B00446194BA2
:4014000003AA1868596803C2197A11706A4653F80C0F596803C21B7A1370082C1ED812490B7803F08003DBB20B70087806AB1C4414F80C3C14F8182C920002F00C0213438E
:4014400003430B70094A137803F0F3031370117814F8183C0B4343F00C03137007B010BC704700BFD43000000A5800400958004008B50C22084B1A70084A137843F020032A
:4014800013700022064B1A700420FFF7B5FF0120FFF7A6FF08BD00BF08580040095800400A58004008B5054B1B7823B9FFF7E0FF0122024B1A70FFF77FFF08BDD081FF1FC8
:4014C000084A137843F060031370A2F5A652133A137843F0040313701032137843F004031370704777580040054B1A7802F0FC021A701A7800F0030010431870704700BF50
:401500005C58004008B50120FFF7EEFF08BD00BF08B5054B1B7823B90122034B1A70FFF7F1FFFFF7CDFF08BDD181FF1F054A137843F0080313701032137843F008031370F5
:40154000704700BFA74300400F490B7803F0FC0200F0030313430B7001280AD10B4B1B78DBB20B4A13700B4B1B78DBB2013213707047094B1B78DBB2054A1370074B1B78D8
:40158000DBB201321370704743580040130100493646004017010049B3010049BB01004908B50120FFF7D0FF0B4B1A7842F020021A701A7802F0FB021A701A7842F0080298
:4015C0001A7003F527731A7802F0E7021A701A7842F010021A7008BD4358004008B5054B1B7823B9FFF7DCFF0122024B1A70FFF79DFF08BDD281FF1F054A137843F00203B7
:4016000013701032137843F002031370704700BFA8430040054B1A7802F0FD021A701A7800F0020010431870704700BF24580040014B1870704700BF815B0040064B1B78C6
:40164000C3F3810303F19243063393F83031DBB2024A1370704700BF245800400946004008B5064B1A7802F0F3021A701A7800F00C0010431870FFF7E1FF08BD2458004054
:4016800010B50024054B1C7001331C700420FFF7E7FF2046FFF7BEFF10BD00BF2458004008B5074B1B7823B9FFF7EAFF0122044B1A70FFF7A1FFBB20FFF7BAFF08BD00BF47
:4016C000D381FF1F024A137843F080031370704775640040024A137803F07F031370704775640040014B1870704700BF85640040014B1878704700BF65640040014B18883F
:4017000080B2704748680040014B1880704700BF48680040014B188880B2704788680040014B1880704700BF08680040024B1B78024B188880B270470464004088680040E9
:4017400000F00300044B1A7802F0FC021A701A7810431870704700BF7564004008B501E0FFF7D8FFFFF7C4FF10F0080FF8D108BD08B54CF24F30FFF7C7FF4CF24F30FFF76D
:40178000CFFF00F015FA084A137843F01003137000F012FA0020FFF7D3FFFFF7DFFF0720FFF7A0FF08BD00BF9564004008B5054B1B7823B9FFF7DCFF0122024B1A70FFF748
:4017C00081FF08BDD481FF1F0922014B1A7070478364004008B500F0EBF9044A137843F02003137000F0E8F908BD00BF9364004008B5054B1B7823B9FFF7E6FF0122024BBC
:401800001A70FFF7E7FF08BDD581FF1F014B1870704700BF726400407222084B1A702022A3F580731A700622603B1A70472210331A70002251331A70704700BF886500408B
:4018400010B500F0B5F904460A4A137843F020031370A2F58072137843F0100313700132137843F01003137000F03CF8204600F0A3F910BD9865004008B5054B1B7823B903
:40188000FFF7CAFF0122024B1A70FFF7D9FF08BDD681FF1F024B1B780BB1024B18707047D681FF1F49640040034B1B7813F0040FFAD1024B18707047696400404964004095
:4018C00038B5074B1B782BB938BDFFF7EDFF0134A4B201E005460024285D0028F5D138BDD681FF1F054A137843F0020313701032137843F002031370704700BFA2430040EB
:40190000024A137843F080031370704774650040014B1870704700BF87650040014B1878704700BF67650040014B1868704700BF24650040014B1860704700BF24650040E5
:40194000014B1868704700BF44650040014B1860704700BF04650040024B1B78024B1868704700BF046500404465004008B501E0FFF7E6FFFFF7D2FF10F0080FF8D108BDBF
:4019800008B54FF0FF30FFF7D5FF4FF0FF30FFF7DDFF00F00DF9064A137843F01003137000F00AF9FFF7E2FF0020FFF7B1FF08BD9765004008B5054B1B7823B9FFF7E0FF76
:4019C0000122024B1A70FFF79BFF08BDD881FF1F044A137803F0F703C00000F008001843107070473051004008B500F03FF900F047F908BD08B5FFF7F7FF08BD30B583B0F0
:401A00000C468DF8070000F07BF9B4F5006F52D22509A4EB0514A4B200F01EFA00284CD101230DF107022146402000F095F9044607282FD1234B1B7813F0020FFAD0214B7B
:401A40001B7813F0020F06D01E4B1B789B0805D04FF0FF3403E04FF0FF3400E00024E4B9194A537812782946402000F0B1F9072816D1144B1B7813F0020FFAD0114B1B7817
:401A800013F0020F0FD00F4B1B789B0810D04FF0FF340DE0012809D10AE04FF0FF3407E04FF0FF3404E04FF0FF3401E04FF0FF3400F0F8F902E0012400E00424204603B0FA
:401AC00030BD00BF224700401882FF1F38B5044600F06EF8054600F0FDF804F1804000F500400478E4B200F003F9284600F064F8204638BD014B1B681864704708ED00E048
:401B00004001C0B2014B1870704700BF00E400E00122014B1A60704700E100E00122014B1A60704780E100E010B50446FFF7F6FF2046FFF7DFFF0720FFF7E2FFFFF7E8FF93
:401B400010BD00BF0122014B1A60704780E200E0024B187800F00100704700BFF1510040024B1878C0F38000704700BF11510040024B1878C0F38000704700BFF151004001
:401B8000024B1878C0F3C000704700BFF1510040024B1878C0F34010704700BF015100400230800803D000BF01380046FCD17047EFF3108072B6704780F31088704700BFD4
:401BC00010B500F09DF800F047F910BB012000F025F9072818D102210F4800F0A3F802280AD102E00120FFF797FB0C4B1B7813F0020FF7D0002409E0084B1B7813F0020FF8
:401C0000E9D04FF0FF3401E04FF0FF3400F04AF900E00424204610BD1882FF1F2247004010B500F06DF800F017F9D0B900F056F90446072812D102E00120FFF76DFB0A4B63
:401C40001B7813F0020FF7D0074B1B7813F0020F04D0054B1B789B0800D1002400F022F900E00424204610BD2247004008B5FFF7D7FF034610B9FFF7A3FF0346184608BD20
:401C800008B5FFF795FF0F4A137843F0080313701032137843F008031370C8220A4B1A700A4A137843F0100313701032137843F010031370064B1B7813F0200FFAD0FFF7CD
:401CC0007BFF08BDA043004001470040AC43004000470040054A137843F001031370034B1B7813F0020FFAD0704700BF02470040024A137803F0FE03137070470247004064
:401D000008B5FFF755FF064A137843F0080313701032137843F008031370FFF74DFF08BDA043004070B506460D4600240CE00120FFF7F2FA064B1B7813F0010FF7D0054B63
:401D40001B7833550134E4B2AC42F3D3204670BD224700402047004030B43E2801D81F2B03D93F2827D90F2B27D8174C247814F0020F24D0154CB6252570D4252570012570
:401D800025700234247814F0020F1AD10F4C2070C1F300202070C9B22170591EC9B22170002104E0545C094804700131C9B29942F8D3072006E0012004E0012002E00420D8
:401DC00000E0092030BC7047224700402047004030B4104C247814F0020F15D00E4CB6252570D8252570052525700234247814F0020F0BD1084C2070080A2070C9B22170A1
:401E000022702370072002E0042000E0092030BC704700BF22470040204700400C4B1B7813F0020F0FD00B4BB6221A70E1221A700E221A7002331B7813F0020F05D1054BB7
:401E4000187007207047042070470920704700BF224700402047004010B5FFF7A9FE0F4B1B78A3B901220D4B1A700D4B1B6813F0010F0ED00A4A136823F00103136000BF9E
:401E800000BF00BF0122054B5A60002402E0042400E00024FFF790FE204610BDDC81FF1F0400084008B5FFF783FE0A4B00221A705B68012B0AD1084A136843F00103136051
:401EC00000BF00BF00BF0022024B5A60FFF774FE08BD00BFDC81FF1F04000840074B1B7813F0020F08D0064BB6221A70E0221A700D221A700720704704207047224700409E
:401F00002047004081F0004102E000BF83F0004330B54FEA41044FEA430594EA050F08BF90EA020F1FBF54EA000C55EA020C7FEA645C7FEA655C00F0E2804FEA5454D4EB6F
:401F40005555B8BF6D420CDD2C4480EA020281EA030382EA000083EA010180EA020281EA0303362D88BF30BD11F0004F4FEA01314FF4801C4CEA113102D0404261EB410114
:401F800013F0004F4FEA03334CEA133302D0524263EB430394EA050F00F0A780A4F10104D5F1200E0DDB02FA0EFC22FA05F2801841F1000103FA0EF2801843FA05F3594183
:401FC0000EE0A5F120050EF1200E012A03FA0EFC28BF4CF0020C43FA05F3C01851EBE37101F0004507D54FF0000EDCF1000C7EEB00006EEB0101B1F5801F1BD3B1F5001F17
:402000000CD349085FEA30004FEA3C0C04F101044FEA445212F5800F80F09A80BCF1004F08BF5FEA500C50F1000041EB045141EA050130BD5FEA4C0C404141EB010111F4F0
:40204000801FA4F10104E9D191F0000F04BF01460020B1FA81F308BF2033A3F10B03B3F120020CDA0C3208DD02F1140CC2F10C0201FA0CF021FA02F10CE002F11402D8BFA4
:40208000C2F1200C01FA02F120FA0CFCDCBF41EA0C019040E41AA2BF01EB0451294330BD6FEA04041F3C1CDA0C340EDC04F11404C4F1200220FA04F001FA02F340EA0300AA
:4020C00021FA04F345EA030130BDC4F10C04C4F1200220FA02F001FA04F340EA0300294630BD21FA04F0294630BD94F0000F83F4801306BF81F480110134013D4EE77FEAA7
:40210000645C18BF7FEA655C29D094EA050F08BF90EA020F05D054EA000C04BF1946104630BD91EA030F1EBF0021002030BD5FEA545C05D14000494128BF41F0004130BD06
:4021400014F580043CBF01F5801130BD01F0004545F0FE4141F470014FF0000030BD7FEA645C1ABF194610467FEA655C1CBF0B46024650EA013406BF52EA033591EA030F5D
:4021800041F4002130BD00BF90F0000F04BF0021704730B54FF4806404F132044FF000054FF0000150E700BF90F0000F04BF0021704730B54FF4806404F1320410F000459C
:4021C00048BF40424FF000013EE700BF42004FEAE2014FEA31014FEA02701FBF12F07F4393F07F4F81F06051704792F0000F14BF93F07F4F704730B54FF4607401F0004554
:4022000021F0004120E700BF50EA010208BF704730B54FF000050AE050EA010208BF704730B511F0004502D5404261EB41014FF4806404F132045FEA915C3FF4DCAE4FF067
:4022400003025FEADC0C18BF03325FEADC0C18BF033202EBDC02C2F1200300FA03FC20FA02F001FA03FE40EA0E0021FA02F11444C1E600BF70B54FF0FF0C4CF4E06C1CEA38
:4022800011541DBF1CEA135594EA0C0F95EA0C0F00F0DEF82C4481EA030621EA4C5123EA4C5350EA013518BF52EA033541F4801143F4801338D0A0FB02CE4FF00005E1FB60
:4022C00002E506F00042E0FB03E54FF00006E1FB03569CF0000F18BF4EF0010EA4F1FF04B6F5007F64F5407404D25FEA4E0E6D4146EB060642EAC62141EA55514FEAC5208C
:4023000040EA5E504FEACE2EB4F1FD0C88BFBCF5E06F1ED8BEF1004F08BF5FEA500E50F1000041EB045170BD06F0004646EA010140EA020081EA0301B4EB5C04C2BFD4EB02
:402340000C0541EA045170BD41F480114FF0000E013C00F3AB8014F1360FDEBF002001F0004170BDC4F10004203C35DA0C341BDC04F11404C4F1200500FA05F320FA04F089
:4023800001FA05F240EA020001F0004221F0004110EBD37021FA04F642EB06015EEA430E08BF20EAD37070BDC4F10C04C4F1200500FA04F320FA05F001FA04F240EA02005D
:4023C00001F0004110EBD37041F100015EEA430E08BF20EAD37070BDC4F1200500FA05F24EEA020E20FA04F301FA05F243EA020321FA04F001F0004121FA04F220EA0200BA
:4024000000EBD3705EEA430E08BF20EAD37070BD94F0000F0FD101F00046400041EB010111F4801F08BF013CF7D041EA060195F0000F18BF704703F00046520043EB0303FA
:4024400013F4801F08BF013DF7D043EA0603704794EA0C0F0CEA135518BF95EA0C0F0CD050EA410618BF52EA4306D1D181EA030101F000414FF0000070BD50EA410606BFE7
:402480001046194652EA430619D094EA0C0F02D150EA013613D195EA0C0F05D152EA03361CBF104619460AD181EA030101F0004141F0FE4141F470014FF0000070BD41F094
:4024C000FE4141F4780170BD70B54FF0FF0C4CF4E06C1CEA11541DBF1CEA135594EA0C0F95EA0C0F00F0A7F8A4EB050481EA030E52EA03354FEA013100F088804FEA0333F6
:402500004FF0805545EA131343EA12634FEA022245EA111545EA10654FEA00260EF000419D4208BF964244F1FD0404F5407402D25B084FEA3202B61A65EB03055B084FEAD3
:4025400032024FF480104FF4002CB6EB020E75EB030E22BFB61A754640EA0C005B084FEA3202B6EB020E75EB030E22BFB61A754640EA5C005B084FEA3202B6EB020E75EB5C
:40258000030E22BFB61A754640EA9C005B084FEA3202B6EB020E75EB030E22BFB61A754640EADC0055EA060E18D04FEA051545EA16754FEA06164FEAC30343EA52734FEAAD
:4025C000C2025FEA1C1CC0D111F4801F0BD141EA00014FF000004FF0004CB6E711F4801F04BF01430020B4F1FD0C88BFBCF5E06F3FF6AFAEB5EB030C04BFB6EB020C5FEA36
:40260000500C50F1000041EB045170BD0EF0004E4EEA113114EB5C04C2BFD4EB0C0541EA045170BD41F480114FF0000E013C90E645EA060E8DE60CEA135594EA0C0F08BFF2
:4026400095EA0C0F3FF43BAF94EA0C0F0AD150EA01347FF434AF95EA0C0F7FF425AF104619462CE795EA0C0F06D152EA03353FF4FDAE1046194622E750EA410618BF52EAAC
:4026800043067FF4C5AE50EA41047FF40DAF52EA43057FF4EBAE12E74FF0FF3C06E000BF4FF0010C02E000BF4FF0010C4DF804CD4FEA410C7FEA6C5C4FEA430C18BF7FEAC7
:4026C0006C5C1BD001B050EA410C0CBF52EA430C91EA030F02BF90EA020F0020704710F1000F91EA030F58BF994208BF90422CBFD8176FEAE37040F0010070474FEA410CCD
:402700007FEA6C5C02D150EA013C07D14FEA430C7FEA6C5CD6D152EA033CD3D05DF8040B704700BF8446104662468C461946634600E000BF01B5FFF7B7FF002848BF10F11B
:40274000000F01BD4DF808EDFFF7F4FF0CBF012000205DF808FB00BF4DF808EDFFF7EAFF34BF012000205DF808FB00BF4DF808EDFFF7E0FF94BF012000205DF808FB00BF28
:402780004DF808EDFFF7CEFF94BF012000205DF808FB00BF4DF808EDFFF7C4FF34BF012000205DF808FB00BF4FEA410212F5001215D211D56FF47873B3EB625212D94FEA0D
:4027C000C12343F0004343EA505311F0004F23FA02F018BF404270474FF00000704750EA013005D111F0004008BF6FF0004070474FF00000704700BF4FEA4102B2F1E043B4
:4028000024BFB3F5001CDCF1FE5C0DD901F0004C4FEAC0024CEA5070B2F1004F40EB830008BF20F00100704711F0804F21D113F13872BCBF01F00040704741F480114FEAB5
:402840005252C2F11802C2F1200C10FA0CF320FA02F018BF40F001004FEAC1234FEAD32303FA0CFC40EA0C0023FA02F34FEA4303CCE77FEA625307D150EA01331EBF4FF0A0
:40288000FE4040F44000704701F0004040F0FE4040F40000704700BF80F0004002E000BF81F0004142001FBF5FEA410392EA030F7FEA226C7FEA236C6AD04FEA1262D2EB95
:4028C0001363C1BFD218414048404140B8BF5B42192B88BF704710F0004F40F4000020F07F4018BF404211F0004F41F4000121F07F4118BF494292EA030F3FD0A2F1010281
:4029000041FA03FC10EB0C00C3F1200301FA03F100F0004302D5494260EB4000B0F5000F13D3B0F1807F06D340084FEA310102F10102FE2A51D2B1F1004F40EBC25008BF74
:4029400020F0010040EA03007047490040EB000010F4000FA2F10102EDD1B0FA80FCACF1080CB2EB0C0200FA0CF0AABF00EBC25052421843BCBFD0401843704792F0000F8C
:4029800081F4000106BF80F400000132013BB5E74FEA41037FEA226C18BF7FEA236C21D092EA030F04D092F0000F08BF0846704790EA010F1CBF0020704712F07F4F04D189
:4029C000400028BF40F00040704712F100723CBF00F50000704700F0004343F0FE4040F4000070477FEA226216BF08467FEA23630146420206BF5FEA412390EA010F40F424
:402A0000800070474FF0000304E000BF10F0004348BF40425FEA000C08BF704743F0964301464FF000001CE050EA010208BF70474FF000030AE000BF50EA010208BF7047EC
:402A400011F0004302D5404261EB41015FEA010C02BF84460146002043F0B64308BFA3F18053A3F50003BCFA8CF2083AA3EBC25310DB01FA02FC634400FA02FCC2F120027D
:402A8000BCF1004F20FA02F243EB020008BF20F00100704702F1200201FA02FCC2F1200250EA4C0021FA02F243EB020008BF20EADC707047014B1868704700BF3C81FF1FB4
:402AC0000E4B70B51E460E4C0025E41AA410A54204D056F8253098470135F8E700F006FB084B094C1E46E41AA4100025A54204D056F8253098470135F8E770BDF8300000F6
:402B0000F8300000F83000000031000010B5431E0A44914204D011F8014B03F8014FF8E710BD03460244934202D003F8011BFAE77047012B30B50ADC920803680C68013A1D
:402B4000002A40F8044B41F8043BF6DC30BD03460D781C7803F8015B01F8014BD41A0444002CF5DC30BDF8B50F46144606461D4698470028214638460BDAA847002801DA81
:402B80003846F8BD21463046A847002809DB3046F8BDA8470028F3DC21463046A8470028F5DB2046F8BD2DE9F04F06468B46144685B00093B20707D1A30705D1B4F10408C4
:402BC00018BF4FF0010801E04FF002083319BBF1060F019326D81F4604FB0B65AF4280F01681B9464E4501D32744F7E7C4EB090A49465046009B98470028F5DDB8F1000F5F
:402C000008D1D9F80030DAF80020C9F80020CAF8003005E04346224651464846FFF789FFD146DFE74FEA5B050BF1FF33BBF1070F04FB0565019326D0BBF1280F04FB0369D5
:402C400019D94FEADB076743F119CA19009B3046FFF789FFEA192946009B8246E81BFFF782FF0546A9EB47004A46009BC119FFF77AFF814600E0B2462946009B4A46504669
:402C8000FFF771FF0546B8F1000F04D133682A6832602B6005E04346224629463046FFF748FF019B371904FB0365A9463B19029301970023029AC4EB020A554555D30393FF
:402CC0003146009B504698470028039B24DC15D1B8F1000F08D1019BDAF800201B6801990A60CAF8003005E04346224651460198FFF71FFF019B234401930123029A224432
:402D00000292D7E703933146009B284698470028039B18DB03D02D1B5545F3D225E0B8F1000F06D12B68D9F800202A60C9F8003005E04346224649462846FFF7FAFEC4EB16
:402D400009090123E7E7B8F1000F06D1DAF800302A68CAF800202B6005E04346224629465046FFF7E6FE2D1BC7E704FB0BFB63B3019B06EB0B079A1BC3EB0A0B5A45A8BFDC
:402D80005A462AB14346C2EB0A013046FFF7D1FEC9EB0702C5EB0905121BAA4228BF2A4622B14346B91A5046FFF7C3FE5C4506D2009B2246BBFBF4F13046FFF7F4FEAC4252
:402DC00025D27E1BB5FBF4FBF4E6B3445F451ED23D46AE4201D32744F8E7C4EB050929464846009B98470028F5DDB8F1000F06D12B68D9F800202A60C9F8003005E0434684
:402E0000224649462846FFF794FE4D46E1E705B0BDE8F08F0000000031313131313130003031313030303000313130313130310031313131303031003031313030313100CB
:402E400031303131303131003130313131313100313131303030300031313131313131003131313130313100303030303030300030303031313031003030313031303100B1
:402E8000303031303030300030303130313131003130303131313000313030313131310030303031313131003131313031313000713D0AD7A37013407B14AE47E17A1540F2
:402EC000D7A3703D0AD718408FC2F5285C8F1B40A4703D0AD7A31D40AE47E17A14AE1F40E17A14AE47E12040E17A14AE47E121406666666666E62240EC51B81E85EB2340A4
:402F0000EC51B81E85EB24407B14AE47E1FA2640000000000000284014AE47E17A9429400000000000002B409A99999999192C40F6285C8FC2752F4085EB51B81E45304033
:402F4000D7A3703D0A973040D7A3703D0A973040AE47E17A146E3140713D0AD7A3F03140F6285C8FC2753240B81E85EB51F832407B14AE47E17A33401F85EB51B8DE33401D
:402F8000B81E85EB51783440C3F5285C8F82354085EB51B81E05364000000000008036408FC2F5285C4F374085EB51B81EC5374052B81E85EB91384014AE47E17A143940CF
:402FC00085EB51B81E853940D7A3703D0A173A401F85EB51B89E3A400AD7A3703D4A3B403333333333333C406666666666E63C40EC51B81E85AB3D40713D0AD7A3303E4026
:40300000AE47E17A14EE3E40B81E85EB51B83F40713D0AD7A33040403D0AD7A3709D4040E17A14AE47E14040E17A14AE47214140D7A3703D0A974140E17A14AE47E14140E8
:4030400066666666662642400AD7A3703D6A42400000000000E0424052B81E85EB5143403333333333134440456E746572204D6F646520310A000000537461727420554167
:40308000525400004D6F646520300A004D6F646520310A004D6F646520320A004D6F646520330A0040510040300000000140001000140140000800400140000A004C014021
:4030C000000200500140200060520040FC07004806000000011121314161536373000000080901010507070404430000F8B500BFF8BC08BC9E4670474D00000065110000F8
:40310000F8B500BFF8BC08BC9E4670472900000020310000C880FF1F78000000E0000000000000000000E02EC05D00001800000000366E01000000000000000000000000F0
:403140000000000000000000000000000000000000000000E93000000000000000000000000000000000000000000000000000000000000000000000000000000000000036
:403180000000000000000000000000000000000000000000DC80FF1F0000000000000000000000000000000000000000000000000000000000000000000000000000000095
:4031C00000000000000000000000000000000000000000000000000000000000000000000000000000000000000000000000000000000000000000000000000000000000CF
:40320000000000000000000000000000000000000000000000000000000000000000000000000000000000000000000000000000000000000000000000000000000000008E
:40324000000000000000000000000000000000000000000000000000000000000000000000000000000000000000000000000000000000000000000000000000000000004E
:40328000000000000000000000000000000000000000000000000000000000000000000000000000000000000000000000000000000000000000000000000000000000000E
:020000040003F7
:0200000480007A
:4000000004520040046400400265004035020140310301404B04014036050140070701405508014035090140020B0140311401401D1501404116014029170140401801407D
:4000400041190140591A01404A1B0140034001400C410140094201400643014002440140014501400246014003470140104801400B490140044C01400F4D0140075001404D
:40008000015101400804190278087909837F850F8838890F870D887201170220061C07170A090C0A100312041304150117021A1B1B181C1B1F17250227012A132D072E1B18
:4000C0002F083220331F341F3A203B08580459045B045F0185018A048E029107950296029A029F07A201A907AC06AD04B406B507B601D602D720D804D904DB04DD20DE08E3
:40010000DF01008001A0040407450A100B040C020E010F04100212801402171019301A011C041D041E181F2020082304271029902C022F20300231043340368037153B043F
:400140003E013F0461406C026DC0724079407C027E808604C0F3C2D6C4C9CA5CCCFBCEC2D808DE0806011C01220134013E1040644105420249FF4AFF4BFF4F01501858044E
:400180005A045F016040624064406540668068806A806C806E80820F860F88038A0C8C058E0A900F9610970198039A0C9C0FA210A805AA0AB010B20FB301BE01C034C1056A
:4001C000C206C5ECC602C807C9FFCAFFCBFFCD83CE03CF01D018D283D403D604D804D904DA04DB04DC30DF05E040E240E440E540E680E880EA80EC80EE8000080210065042
:4002000007050A010C020E1912C01680171018041B101C401E202720360840044280469048064C024D044F21544056805C405D045E205F0165026F0577407D808502925502
:4002400093409B109D409F45A006A140A204A440A680AF40C0F4C2F1C458CC40D0C5D23CD6F0D880DE10924493409B089D40A688AB20AF08030205060D01110415061D088F
:400280002401250129012E012F083306340135083701382039083E103F144002460449FF4A074BFF4C404D204EF04F0550085418580459045A045B045C105D115F01604038
:4002C00061A8624063208702880389018A0C8C0A8E049205940395029604A208A302A803A902AA04AF02B301B40FB702BA20BF44C021C106C50BC6E0C70CC819C9FFCAFFA1
:40030000CBFFCEF0CF44D00CD401D804D904DA04DB04DC01DD11DF01E6C0EA40EB020120020209090A10110112081401170819201A041F202244240225502720280429228D
:400340002B012C212D1032083582360A38283D403E06420647204A084B045014511854015501564257015A985B015C0167098720A510C003C20CC4AACA7DCCD2CED6D02CC2
:40038000D204D68FD830E4088110E001050309010B020D020F0121033103404149FF4AFF4BFF4F015018528059045A045B045C105D335F0160406240644065406680688051
:4003C0006A806C806E80C041C9FFCAFFCBFFCD83CE03CF01D018DA04DD03DF01E040E240E440E540E680E880EA80EC80EE8020C02A023844391041804240458046807001B9
:4004000072C0844089108A088E80900494029A029E80A180A688AF10B404B508CA01CE0ED099E002E240E48002010F011A0426023001320234043501405449FF4AFF4BFF13
:400440004D834E034F015018580459045A045C335D035F016040624064406540668068806A806C806E8083018F019001B601B701BE40BF40C041C5ECC602C807C9FFCAFF35
:40048000CBFFCD83CE03CF01D018D401D804D904DA04DB04DD33DF01E040E240E440E540E680E880EA80EC80EE8005020A400E04170819401D081F122240240838023A404E
:4004C0003F4041804280464049054C015180524059055A80850287028A028C04924493409B089D40A688AA40C010C248C420CE19D089D210D60BE210E804EC2001100223F0
:40050000041C05080623080309180F23101F113F12201401153C1702183319041A0C1B401C3F1F042008240425272718280C2C022D1C2F21302C31403210331F340F373887
:400540003AA23B083E0456025711580459045B045C115D105F0180028E018F02940197039F06A106A301A801AB05AF01B003B307B802BB08D804D904DC11DF0100020202C8
:400580000422071008040C400D200E621208140117291A801C101D201E421F20220826842750280429022B012E402F203248361537403A403D803E2A5C106C206D58762A35
:4005C00077297D017E40891090029304940195519709980499029A40A001A140A301A420A60AA980AB08AD10AF01B001C079C2F4C4F2CA5DCCFACEF8D620E280EC200510CC
:4006000006030C1C0E020F081009110C1210130314101501160C170E1F0C20102414280C29012A112B062F03310F3310341F3B023F04580459045C115F0181228311850745
:4006400086018B808E028F60914493119561970E9A029B609F80A001A160A560A801A907AE01AF60B118B202B307B580B601B760B880BE04BF11C025C104C206C401C50ED3
:40068000C6C0C809C9FFCAFFCBFFCC62CDA0CEF0CF41D00CD804D904DA04DC11DD01DF01E640E702E910EA30EB10ED10EE10EF12000402020540071008040A800F0812487D
:4006C000130414401540172018041D401F0420202202242125102604274028042B012C402D502E48324A34013684371038043A403D883E2244404520460847604C014E0437
:400700004F0856208401868488108A128D108F019002911092C093049421970998449A409B109C01A164A288A301A612B504C0A5C24CC4DECAFCCCFBCEFAD0B0D230E2C0BB
:40074000EC10EE4033803580CC300302054007800B205B0487809D80A780C0E0C210D640E040878099409D809F04A302A780AF10E610EC4099409D80AB04AF02E810EA8098
:400780007980DC0195808140958003208508C0082508534058105C10854087408C1099409D80A508B108C880D4A0D620E210E4100B8019805A208B408E109D80AC10C2109E
:4007C000C640D480EE4054209908A320D402104075087B0288408B028F209908A320B420C408DC01DE04E203E401EC08000F08050A090C02100A1A0A1C02000F10900000AC
:40080000400000003E00003E20002000C0000000800040B0B000B000000000000D00000D0D000D0000000000F40000FFFF00040000000000FF0000FFFF0000000000000005
:40084000D80000FAEA0002000100000000000000000000000000000000000000000000000000000000000000000000000000000000000000000000000000000000000000B9
:400880000000000000000000000000000000000000000000000000000000000000000000000000000000000000000000000000000000000000000000000000000000000038
:4008C00000000000000000000000000000000000000000000000000000000000000000000000000000000000000000000000000000000000000000000000000000000000F8
:4009000000000000000000000000000000000000000000000000000000000000000000000000000000000000000000000000000000000000000000000000000000000000B7
:400940000000000000000000000000000000000000000000000000000000000000000000000000000000000000000000000000000000000000000000000000000000000077
:0200000490006A
:0400000000004005B7
:0200000490105A
:04000000BC90ACAF55
:0200000490303A
:02000000D4B575
:0200000490402A
:4000000000000000000000000000000000000000000000000000000000000000000000000000000000000000000000000000000000000000000000000000000000000000C0
:400040000000000000000000000000000000000000000000000000000000000000000000000000000000000000000000000000000000000000000000000000000000000080
:400080000000000000000000000000000000000000000000000000000000000000000000000000000000000000000000000000000000000000000000000000000000000040
:4000C0000000000000000000000000000000000000000000000000000000000000000000000000000000000000000000000000000000000000000000000000000000000000
:0200000490501A
:0C00000000012E16106900012E2BE51ED9
:00000001FF